:020000040800F2
:10000000880500205D020008D1150008C915000808
:10001000CD150008F1050008951700080000000044
:10002000000000000000000000000000D9150008DA
:10003000F505000800000000D5150008DD150008D2
:100040008102000881020008810200088102000884
:100050008102000881020008810200088102000874
:100060008102000881020008810200088102000864
:100070008102000881020008810200088102000854
:100080008102000881020008810200088102000844
:100090008102000881020008810200088102000834
:1000A0008102000881020008810200088102000824
:1000B0008102000881020008810200088102000814
:1000C0008102000881020008810200088102000804
:1000D00081020008891700088102000881020008D7
:1000E00081020008810200088102000881020008E4
:1000F00081020008810200088102000881020008D4
:1001000081020008810200088102000881020008C3
:1001100081020008810200088102000881020008B3
:1001200081020008810200088102000881020008A3
:100130008102000881020008810200088102000893
:100140008102000881020008810200088102000883
:100150008102000881020008810200088102000873
:100160008102000881020008810200088102000863
:1001700081020008810200088102000800000000DE
:10018000810200088102000800F002F800F057F830
:1001900014A696E8000CB244B344DA4501D100F04D
:1001A0004EF8BAE80F000FA696E83000A5EB04055C
:1001B00004EB0607AAEB0704A7F101074FEA1515A0
:1001C0004FEA3414A4F10104AC4201D300F037F833
:1001D00013F0010F18BFFB1A43F0010300F001F800
:1001E000DBE71847CCB50000ECB50000103A24BF9F
:1001F00078C878C1FAD8520724BF30C830C144BF8C
:1002000004680C6070470000704700000023002461
:1002100000250026103A28BF78C1FBD8520728BF16
:1002200030C148BF0B607047782900F0F78000208C
:1002300070471FB508F0C7FA1FBD10B510BD00F01C
:10024000A5F91146FFF7F5FF08F0C6F900F0C3F96C
:1002500003B4FFF7F2FF03BC01F09EFA0C480168FB
:1002600041F4700101600B4880470B480047FEE7EE
:10027000FEE7FEE7FEE7FEE7FEE7FEE7FEE7FEE756
:10028000FEE7000005480649044A064B7047000097
:1002900088ED00E0E11500088901000888010020D0
:1002A0008805002088010020704753EA020C00F006
:1002B00069802DE9F04B4FF00006002B1FBFB3FA09
:1002C00083F503FA05F424FA05F65E4012BF1643DF
:1002D000B2FA82F502FA05F4C5F120051EBF22FA32
:1002E00005FC44EA0C04203556EA044C4FEA144459
:1002F00018BF641C4FF000084FF00009904271EBEA
:10030000030C39D3002919BFB1FA81F701FA07F6B6
:10031000B0FA80F700FA07F6C7F120071EBF20FAEF
:1003200007FC46EA0C062037B6FBF4FCA7EB0507F2
:10033000103F07F01F0BCBF120062CFA06F60CFA43
:100340000BFB44BFB3460026202FA4BF5E464FF0F0
:10035000000B5BEA060C08BF4FF0010B19EB0B0911
:1003600048EB0608ABFB027C06FB02CC0BFB03CC84
:10037000C01B71EB0C01C1E70B46024641464846E3
:10038000BDE8F08B13B5084318BF4FF0FF300146AE
:10039000AFF30080BDE81C40704700000FB4044973
:1003A00010B503AA029800F0C3F810BC5DF814FB66
:1003B0007C0000202DE9F0410E460446002020621A
:1003C0002046E168884730B3252805D0D4E90121CB
:1003D0009047206A401CF2E7E168204600278847E2
:1003E000050018D0A5F14100192802D820354FF496
:1003F00000673246294620462760FFF715FF40B1C7
:10040000012804D0F61D26F007060836D8E7361D69
:10041000D6E72846DAE7206ABDE8F08170B50446E1
:100420000D4621461068AFF300802188090502D5EA
:100430000F4A7A4402E00E4A7A440E32002104F157
:10044000240305E000F00F060009965D5E54491C88
:100450000028F7D120780023000704D5702D02D0A2
:1004600009B1022311322046BDE8704000F006B801
:10047000AA83000070477047704770472DE9F04726
:100480000D4699469246044600F124080168880604
:1004900004D5E06921F01001216000E00120A842AC
:1004A00001DD471B00E00027A1697A1902EB090072
:1004B000081AA0612078C00602D42046AFF300805D
:1004C000002608E0D4E901211AF806009047206AC6
:1004D000401C761C20624E45F4DB2078C0060AD50D
:1004E0002046AFF3008006E0D4E901213020904798
:1004F000206A401C2062381EA7F10107F4DC07E0E7
:10050000D4E9012118F805009047206A401C2062B8
:10051000281EA5F10105F3DC2046AFF3008020780A
:10052000000602D50220BDE8F0870120FBE70000AD
:10053000074B70B50D467B4400F011F80446284681
:1005400000F020F810B14FF0FF3070BD204670BDB4
:100550001713000001694A1C02610878704700B552
:100560008FB0CDE901310021059105497944CDE9EC
:10057000031011466846FFF71DFF0FB000BD0000D5
:10058000E5FFFFFF007B00F080007047754600F03C
:100590002BF8AE4605006946534620F00700854615
:1005A00018B020B5FFF76EFEBDE820404FF0000602
:1005B0004FF000074FF000084FF0000BAC46ACE8DE
:1005C000C009ACE8C009ACE8C009ACE8C00921F03A
:1005D00007018D46704710B50446AFF300802046F2
:1005E000BDE81040FFF734BE0048704718000020F7
:1005F000FEE7000070470000B3F5804F034618D1B6
:10060000B0B553F822C00020CCF6F0700CEA000C14
:10061000D1E9000ED1E9024540EA0C0040EA0E1093
:10062000896940EA042040EA05400143BDE8B04042
:1006300001E06FF07041002043F822107047000085
:100640002DE9F043D1E9008C864601F11007D1E98C
:100650000209F0CF5EF828308022CFF6F0721A40FF
:1006600042EA0C0242EA090222432A4332430B6A5D
:100670003A434F6A1A438B6A3A43CF6A1A43CB6BA9
:100680003A43096B1A431143014308284FF0000015
:1006900008BF41F040014EF82810BDE8F08300008B
:1006A000F0B500EB82025068D1E902E400F0404C62
:1006B000D1E90030D1E9045643EA0C03002743EAAC
:1006C0000010CFF6F07740EA0E20896907EB055558
:1006D00040EA04402843FE36084340EA0661002011
:1006E0005160F0BD70B5866D044600F039F994F89C
:1006F0003510022928D105462068216C026822F0B5
:1007000016020260426922F08002426109B9A16CBE
:1007100019B1016821F008010160016821F00101AF
:10072000016000BF20680068C00714D000F018F90D
:10073000401B0628F6D320206065002084F8340092
:10074000032084F8350070BD80206065002084F8A7
:100750003400012070BDE06D3F2101FA00F0B0606F
:100760000020012184F8340084F8351070BD0000A9
:1007700090F83510022909D1052180F8351000685C
:10078000016821F00101016000207047802141656E
:10079000012070472DE9F04F82B000F13E4202F196
:1007A000FF72870541F6004647EA9227C4F2020627
:1007B000082243F6004EB04208BF0722C4F2010EE1
:1007C000072F38BF3A46002700264FF00008009256
:1007D00009E000BF08F101080236B8F1100F07F177
:1007E000040700F0A3800A68012303FA08F412EA60
:1007F0000409EFD0D1F804C003230CF0030BABF1D4
:10080000010203FA06F5012A6FEA050A10D8826888
:10081000CD6802EA0A02B5402A4382604268A243D8
:10082000CCF3001404FA08F42243426006E000BF4F
:10083000BBF1030F02D14FF0030B1EE0C2688C68BE
:1008400002EA0A02B4402243BBF1020FC26014D193
:100850006FF0030202EA58020244D2F820C007F007
:100860001C040F230D69A3402CEA0303A5402B436E
:100870001362D1F804C00CF0030B02680BFA06F304
:1008800002EA0A021A435FEACC030260A2D5002200
:1008900043F644030192C4F202031A684FF6084C6F
:1008A00042F480421A601A68CFF6FF7C02F480425C
:1008B0000192019A28F00302724452F80C3007F0BA
:1008C0000C050F24AC40A343009C04FA05F52B4310
:1008D00042F80C30DEF800204B6842EA0905DC03E0
:1008E00058BF22EA0905CEF80050DEF804209C0328
:1008F00042EA090558BF22EA0905CEF80450DEF89D
:100900000820DC0242EA090543F60C4458BF22EAFB
:100910000905CEF80850C4F2010422689B0242EA9D
:10092000090558BF22EA0905256053E702B0BDE872
:10093000F08F0000426902EA0103914341EA03415A
:1009400081617047002A08BF090481617047000077
:1009500042F20000CEF204000068000C7047000074
:1009600040F28410C2F200000068704740F20C00B0
:1009700040F28411C2F20000C2F2000100780A685D
:10098000104408607047000080B543F60040C4F290
:100990000200016841F400710160016841F4806166
:1009A0000160052000F070F80F2000F005F800F05D
:1009B0002BF8002080BD0000B0B540F20C02C2F25E
:1009C000000240F204011278C2F200014FF47A737F
:1009D0000968B3FBF2F20446B1FBF2F1084600F0FD
:1009E00099FB0F2C4FF001050CD858B94FF0FF3090
:1009F00021460022002500F01BF840F21000C2F250
:100A0000000004602846B0BD70470000002848BFC1
:100A1000704700F01F01012202FA01F11C2202EAD4
:100A2000D0004EF20012CEF200028150704700005A
:100A300010B54EF60C5CCEF2000CDCF80030C3F3BF
:100A4000022E8EF00704042C28BF0424BEF10303F9
:100A50004FF0FF3E0EFA04F438BF0023A143994043
:100A60000EFA03F39A43114300F00F0200F16043C2
:100A70000901043A03F564436244002848BF02F1C7
:100A80000C03197010BD00004EF60C51CEF200019F
:100A90000A684FF6FF031A4060F30A2242F08060B2
:100AA00040F0FD7008607047002804BF01207047C7
:100AB0002DE9F04143F60808C4F202080446D8F8CC
:100AC000F8030D4600F00700884207D288F8F85373
:100AD000D8F8F80300F00700A84276D12068810713
:100AE00017D5410705D5D8F8001041F4E051C8F8F2
:100AF0000010010705D5D8F8001041F46041C8F88E
:100B00000010D8F80010A26821F0F0011143C8F8D5
:100B10000010C0073FD1D8F8F80300F00700A84242
:100B200007D988F8F853D8F8F80300F00700A8426E
:100B30004BD12068410707D5D8F80010E26821F4AE
:100B4000E0511143C8F80010000708D5D8F800009C
:100B5000216920F4604040EAC100C8F8000000F0BC
:100B60007BF8D8F8001048F61602C1F30311C0F65E
:100B70000002515C40F2040220FA01F140F2100040
:100B8000C2F200000068C2F200021160FFF714FF19
:100B90000020BDE8F0816068811E022907D258F864
:100BA000081C89015CBF0120BDE8F08110E001282C
:100BB00007D158F8081C89035CBF0120BDE8F0810B
:100BC00006E058F8081C890702D40120BDE8F0812E
:100BD000D8F8001021F003010843C8F80000FFF71F
:100BE000BFFE064641F28837D8F80000616800F081
:100BF0000C00B0EB810F8ED0FFF7B2FE801BB84225
:100C0000F2D90320BDE8F08140F2040043F6080168
:100C1000C2F20000C4F202010068096848F6260228
:100C2000C1F38221C0F60002515CC8407047000049
:100C300040F2040043F60801C2F20000C4F20201CF
:100C40000068096848F62602C1F34231C0F6000286
:100C5000515CC8407047000010B543F60404C4F26C
:100C60000204606800F00C0142F200400829C0F262
:100C7000F40007D0042918BF10BD41F20020C0F2D3
:100C80007A0010BD216801F03F0221682368490203
:100C9000C3F3881105D4A1FB00010023FFF705FB76
:100CA00006E041F20020C0F27A004843B0FBF2F0C7
:100CB00021680222C1F3014102EB4101B0FBF1F0D6
:100CC00010BD0000002804BF012070472DE9F0414D
:100CD00082B00446007843F60006C007C4F202065C
:100CE0000BD0B06800F00C00042878D13068800385
:100CF00003D56068002800F05181207880071AD55C
:100D0000B06810F00C0F08D0B06800F00C00082894
:100D100040F07F80706840027BD43068800703D544
:100D2000E068012840F03A813068216920F0F8003D
:100D300040EAC10030602078000713D420784007D3
:100D400027D4A569002D00F02581B06800F00C00C3
:100D5000082840F09180012D40F0F980012002B078
:100D6000BDE8F0816069002840F20000C4F247202D
:100D700072D00121C0F8801EFFF7F2FD054600BFCA
:100D8000706F8007DAD4FFF7EBFD401B0228F7D91C
:100D9000D9E0306C5FEAC0080AD400200190306CC2
:100DA00040F080503064306C00F080500190019829
:100DB00047F20007C4F200073868C0053ED438681F
:100DC00040F480703860FFF7CBFD05463868C005F9
:100DD00034D4FFF7C5FD401B0228F7D9B3E0B06853
:100DE00000F00C00082803D1706840023FF57EAF88
:100DF0006068B0F5803F07D0B0F5A02F40F08D803F
:100E0000306840F480203060306840F480303060DA
:100E10008DE0E068002852D00020C4F24720012174
:100E20000160FFF79DFD0546306880073FF57CAF08
:100E3000FFF796FD401B0228F6D984E0A068012840
:100E400005D0052850D1306F40F004003067306F76
:100E500040F00100306751E00021C0F8801EFFF72C
:100E60007FFD0546706F80077FF568AFFFF778FD5F
:100E7000401B0228F6D966E00027C4F2472700206D
:100E80003866FFF76DFD022D05460DD130688001F3
:100E900040F18880FFF764FD401B02284FF00300FB
:100EA000F4D902B0BDE8F0813068800172D5FFF757
:100EB00057FD401B02284FF00300F5D9F1E7002051
:100EC000C4F2472000210160FFF74AFD054600BF3C
:100ED000306880077FF52FAFFFF742FD401B0228E7
:100EE0004FF00300F4D9DCE7316F002821F0010155
:100EF0003167316F21F00401316774D0FFF730FDA5
:100F0000054641F2883700BF306F80077BD4FFF77A
:100F100027FD401BB842F7D915E03168002821F4BD
:100F200080313160316821F48021316074D0FFF765
:100F300017FD0546306880033FF5DFAEFFF710FD73
:100F4000401B6428F6D9032002B0BDE8F081706828
:100F5000E16900F480028A4220D1216A00F03F0258
:100F60008A421BD147F6C071626A0140B1EB821F11
:100F700014D1A16A4FF6FF73C903994300F44032BC
:100F8000A1F580318A4209D1E16A00F07060B0EBCE
:100F9000016F03D1002002B0BDE8F081012002B052
:100FA000BDE8F08104F11C052FCD084340EA821012
:100FB000D9034FF6FF729143A1F5803140EA0560F5
:100FC0000843706001203866FFF7CAFC044600BF82
:100FD00030688001DED4FFF7C3FC001B02284FF00D
:100FE0000300F5D95DE7FFF7BBFC054641F2883702
:100FF000306F800707D5FFF7B3FC401BB8424FF0B6
:101000000300F5D94DE7B8F1000F3FF59AAE306C0B
:1010100020F08050306494E6FFF7A2FC054600BF44
:10102000306880037FF569AEFFF79AFC401B6428A7
:101030004FF00300F4D934E7002804BF01207047C3
:1010400070B5044690F8490015460E4628B90020B0
:1010500084F84800204600F01BF8206804F10801DD
:10106000FFF7EEFA2068A2683146FFF719FBD4E9D2
:101070000102236B2946FFF7BFFA2068A16850F8E8
:10108000212042F0010240F82120002070BD000024
:10109000B0B586B0002043F630010190C4F20201E1
:1010A0008A6840F6004442F001028A608A68C4F20D
:1010B000020402F001020192019A01900A6801AD56
:1010C00042F008020A600A6802F008020192019ADE
:1010D0000190086840F0100008600868012100F0E5
:1010E0001000019001984CF20370019002200290D0
:1010F000CDE903100C20059020462946FFF74AFB56
:101100004FF68070019004F580602946FFF742FB9E
:1011100006B0B0BD411E0020B0EB116F1CBF012016
:1011200070474EF21002CEF2000251604EF623518B
:10113000CEF20001F0230B70072190601160704720
:101140007047000070470000B0B582B002680546E5
:101150001068D368546900F02F01202903F02001A2
:1011600006D129B1284602B0BDE8B04000F048BA27
:101170005FEA007C1EBF04F0010E03F4907414EBD0
:101180000E0440D1296BC40618D5012916D113F0DD
:10119000100113D000200190106801905068019058
:1011A00001985069400636D4A88DE98DEB8D002B4F
:1011B00018BF884240F0D38002B0B0BD010655D5BB
:1011C00013F0800152D095F83D002128F4D1A86891
:1011D000B0F5805F03D12869002800F0DF80286A1D
:1011E000411C296200785060E88C01380104E884D1
:1011F000E2D1D06820F08000D060D06840F040009C
:10120000D06002B0B0BDC40718BF13F480733FD1E3
:10121000430743D449E0A86B01684B689CB2002C9B
:10122000CAD0A98D8C42C7D2EB85C369B3F5807F44
:1012300017D0D16821F48071D160516921F001018A
:101240005161516921F040015161202185F83E1022
:1012500000212963D16821F01001D160FFF742FA23
:10126000A98DE88D081A81B228468CE04006A3D5E6
:1012700013F04000A0D0D068202120F04000D060C2
:10128000284685F83D1002B0BDE8B04000F09AB99C
:101290002B6C43F001032B64430706D5BEF1000F0E
:1012A00003D02B6C43F002032B64830706D5BEF1F9
:1012B000000F03D02B6C43F004032B64BCF1000F30
:1012C00006D55EEA010303D02B6C43F008032B64C0
:1012D0002B6C002B3FF470AF800604D519B1284663
:1012E00000F08EF92A685069296C00F0400001F086
:1012F000080140182CD0D06820F49070D06050695C
:1013000020F001005061286B012803D1D06820F043
:101310001000D060202085F83E000020286350692E
:10132000400635D5506920F040005061A86B78B375
:1013300041F2F551C0F600010165FFF719FA0028E6
:101340003FF43AAFA86B016D02B0BDE8B04008476A
:101350002846FFF7F7FE0020286402B0B0BDD3682E
:10136000401A23F49073D360536981B223F00103D0
:101370005361202385F83E3000232B63D368284631
:1013800023F01003D36002B0BDE8B040FFF7D8BE31
:10139000284602B0BDE8B040FFF7D4BE286A30F856
:1013A000021B6FF35F21516028621DE7002804BF14
:1013B0000120704710B5044690F83D0028B9002080
:1013C00084F83C00204600F021F8242084F83D00F9
:1013D0002068C16821F40051C160204600F060F926
:1013E0002068016921F490410161416921F02A01DD
:1013F0004161C16841F40051C16000202021206496
:1014000084F83D1084F83E1010BD000070B586B021
:101410000024C4F202040068A4F57041884201D09F
:1014200006B070BD002043F630010190C4F2020105
:101430004A6901AD42F010024A614A69072602F08A
:1014400010020192019A01900A6842F001020A60BA
:101450000A6802F001020192019A0190086840F0C6
:10146000010008600868012100F001000190019866
:101470004FF40070019002200290CDE90310204645
:1014800029460596FFF786F94FF4806001902046C3
:1014900029460596FFF77EF92520FFF7B7FA2520A4
:1014A00003210322FFF7C4FA06B070BD034690F88B
:1014B0003E0020280AD100294FF0010018BF002A61
:1014C00000D1704793F83C00012801D102207047F9
:1014D00000201863996222219A85DA85186483F8BE
:1014E0003E10196883F83C00CA6842F48072CA60F2
:1014F0004A6942F001024A61CA6842F02002CA60A9
:1015000070470000006841F20001C4F20101884206
:1015100018BF704740F27800C2F20000017803293A
:101520002CD8DFE801F0020B162040F2D401C2F201
:1015300000010978AA293AD1012137E040F2D4010B
:10154000C2F200010978BB39B1FA81F149094900B9
:101550002CE040F2D401C2F200010A780021CC2A2A
:1015600008BF032122E040F2D401C2F20001097851
:10157000DD39B1FA81F14909890017E00B2916D844
:1015800040F27A12C2F2000201EB020C40F2D403E4
:10159000CA07C2F2000301F101021B78D1B208BFF1
:1015A0009B080C390CF8043C18BF1146017040F23E
:1015B000281040F2D401C2F20000C2F20001012260
:1015C000FFF774BF70470000FEE70000FEE7000071
:1015D000704700007047000070470000FFF7C6B971
:1015E0004EF68850CEF20000016841F470010160AF
:1015F00070470000806B0021C185C184FFF7A2BD48
:1016000010B5044690F83E00222848D1A268214631
:10161000B2F5805F0CD151F8280F51F8182C8AB917
:10162000216849686FF35F2120F8021BA0620FE078
:1016300051F8280F0AB9226922B12268526802F0D3
:101640007F0201E022685268027008680130086079
:10165000E08D01380104E08518BF10BD2068C16825
:1016600021F02001C160C16821F48071C16041692D
:1016700021F001014161202184F83E10216B0129F4
:1016800008D1C16821F01001C160A18D2046FFF78B
:1016900057FD02E02046FFF735FF0020206310BD14
:1016A00010B504460068D4E902C22369016921F437
:1016B000405111430161626943EA0C01E36911433E
:1016C000C268194349F20C639A431143C1604169EE
:1016D000A26921F4407141F20043114340F4806259
:1016E000C4F201039A42416102D1FFF7A1FA01E07D
:1016F000FFF78AFAE16963681922B1F5004FA0FB90
:10170000020120D15A00DB0FFEF7CFFD48F21F5136
:10171000C5F2EB11A0FB01235A094FF69C73C0F6EA
:10172000FF7303F1805302FB0300322303EBC0007D
:10173000A0FB01014FF4F87000EA111000EB021059
:10174000C1F342111CE09A009B0FFEF7AEFD48F278
:101750001F51C5F2EB11A0FB01235A094FF69C73F0
:10176000C0F6FF7302FB0300322303EB0010A0FB63
:101770000101F02000EA511000EB0210C1F3431107
:1017800008442168886010BD40F22810C2F20000B1
:10179000FFF7DABCFEE700007047000040F2D0011E
:1017A000C2F200010860704780B54EF2180140F2A5
:1017B000D002CEF20001C2F2000251F804CC12684D
:1017C000002350434FF47A7200FB02FE086809E0E0
:1017D00003449B1A824228BF63447345104628BFC6
:1017E00080BD00BF0A688242F2D10A688242EFD10E
:1017F0000A688242ECD10A688242F3D0E8E700002E
:1018000080B54EF2180140F2D002CEF20001C2F2D1
:10181000000251F804CC1268002302FB00FE0868A5
:1018200008E003449B1A824228BF63447345104674
:1018300028BF80BD0A688242F3D10A688242F0D193
:101840000A688242EDD10A688242F3D0E9E70000DB
:1018500041F20001C4F201010A68520609D40A6883
:1018600052065CBF0A685FEA426202D40A68520606
:10187000F2D5C2B24A607047F0B581B040F26C1741
:10188000C2F20007044638887988802501FB00F6FB
:1018900000200021C6F6004506F000FC388925F836
:1018A000020C9EB1042E06F0030007D326F00301BC
:1018B00004392C802C802C802C80F9D130B1012867
:1018C0002C8003D002282C8018BF2C8001B0F0BDE2
:1018D000F0B581B0CF20ADF80200BDF80200802441
:1018E000ADF80200BDF80200C6F6004424F8020C70
:1018F0000020ADF80200BDF80210C122ADF80210C0
:10190000BDF802104FF0100C2180ADF80220BDF898
:1019100002104FF0010EADF80210BDF802102A2798
:1019200021803021ADF80210BDF80230ADF8023050
:10193000BDF802302380ED23ADF80230BDF802304F
:10194000ADF80230BDF8023024F8023C6423ADF853
:101950000230BDF80230ADF80230BDF8023023800D
:101960000323ADF80230BDF80230ADF80230BDF807
:10197000023023801223ADF80230BDF80230ADF8FA
:101980000230BDF8023023808123ADF80230BDF86B
:101990000230ADF80230BDF802302380E823ADF804
:1019A0000230BDF80230ADF80230BDF8023024F844
:1019B000023C8523ADF80230BDF80230ADF80230AC
:1019C000BDF802302380ADF802C0BDF80230ADF89A
:1019D0000230BDF8023023807A23ADF80230BDF822
:1019E0000230ADF80230BDF802302380CB23ADF8D1
:1019F0000230BDF80230ADF80230BDF8023024F8F4
:101A0000023C3923ADF80230BDF80230ADF80230A7
:101A1000BDF8023023802C23ADF80230BDF802302F
:101A2000ADF80230BDF802302380ADF80200BDF8F9
:101A30000230ADF80230BDF8023023803423ADF817
:101A40000230BDF80230ADF80230BDF8023023801C
:101A50000223ADF80230BDF80230ADF80230BDF817
:101A600002302380F723ADF80230BDF80230ADF824
:101A70000230BDF8023024F8023C2023ADF80230D9
:101A8000BDF80230ADF80230BDF802302380EA2301
:101A9000ADF80230BDF80230ADF80230BDF80230CA
:101AA00024F8023CADF80200BDF80230ADF8023077
:101AB000BDF802302380ADF80200BDF80230ADF869
:101AC0000230BDF802302380C023ADF80230BDF8EB
:101AD0000230ADF80230BDF8023024F8023C1B237E
:101AE000ADF80230BDF80230ADF80230BDF802307A
:101AF0002380ADF80220BDF80220ADF80220BDF829
:101B0000022024F8022CADF802E0BDF80220ADF866
:101B10000220BDF802202280C522ADF80220BDF8C7
:101B20000220ADF80220BDF8022024F8022CADF806
:101B30000210BDF80220ADF80220BDF8022022807C
:101B4000ADF80210BDF802100A22ADF80210BDF87F
:101B500002102180C721ADF80210BDF80210ADF8C7
:101B60000210BDF8021024F8021CB721ADF80210D3
:101B7000BDF80210ADF80210BDF802102180362128
:101B8000ADF80210BDF80210ADF80210BDF8021059
:101B900024F8021C4821ADF80210BDF80210ADF87F
:101BA0000210BDF8021021803A21ADF80210BDF8F4
:101BB0000210ADF80210BDF8021024F8021C5521E5
:101BC000ADF80210BDF80210ADF80210BDF8021019
:101BD0002180B121ADF80210BDF80210ADF802105D
:101BE000BDF8021024F8021CADF80200BDF8021086
:101BF000ADF80210BDF8021021801A21ADF80210D4
:101C0000BDF80210ADF80210BDF802102180B62117
:101C1000ADF80210BDF80210ADF80210BDF80210C8
:101C200024F8021CADF80220BDF80210ADF8021035
:101C3000BDF802102180A221ADF80210BDF80210FB
:101C4000ADF80210BDF802102180F221ADF80210AB
:101C5000BDF80210ADF80210BDF8021024F8021C05
:101C6000ADF80200BDF80210ADF80210BDF8021088
:101C700021802621ADF80210BDF80210ADF8021047
:101C8000BDF8021024F8021CADF802E0BDF8021005
:101C9000ADF80210BDF802102180E021ADF802106D
:101CA000BDF80210ADF80210BDF8021024F8021CB5
:101CB0000F21ADF80210BDF80230ADF80230BDF8CA
:101CC00002302380ADF80270BDF80230ADF802306A
:101CD000BDF8023023802823ADF80230BDF8023071
:101CE000ADF80230BDF8023023800823ADF8023091
:101CF000BDF80250ADF80250BDF8025025800E2507
:101D0000ADF80250BDF80250ADF80250BDF80250D7
:101D10002580ADF80230BDF802302B25ADF8023039
:101D2000BDF8023023805423ADF80230BDF80230F4
:101D3000ADF80230BDF802302380A923ADF802309F
:101D4000BDF80230ADF80230BDF8023023804323E5
:101D5000ADF80230BDF80230ADF80230BDF8023007
:101D60002380ADF80220BDF80220ADF80220BDF8B6
:101D700002202280ADF80210BDF80220ADF802204A
:101D8000BDF802202280ADF80200BDF80220ADF8B7
:101D90000220BDF802202280ADF80200BDF802202A
:101DA000ADF80220BDF802202280ADF80200BDF897
:101DB0000220ADF80220BDF802202280ADF802001A
:101DC000BDF80220ADF80220BDF802202280E122F9
:101DD000ADF80220BDF80220ADF80220BDF80220C7
:101DE00024F8022CADF80200BDF80220ADF8022064
:101DF000BDF8022022801522ADF80220BDF8022095
:101E0000ADF80220BDF8022022801722ADF8022092
:101E1000BDF80220ADF80220BDF802202280072282
:101E2000ADF80220BDF80220ADF80220BDF8022076
:101E300022801122ADF80220BDF80230ADF8023048
:101E4000BDF8023023800623ADF80230BDF8023021
:101E5000ADF80230BDF802302380ADF80250BDF875
:101E60000230ADF80230BDF8023023805623ADF8C1
:101E70000230BDF80230ADF80230BDF802302380E8
:101E80003C23ADF80230BDF80230ADF80230BDF8A9
:101E9000023023800523ADF80230BDF80230ADF8E2
:101EA0000230BDF802302380ADF802C0BDF8023028
:101EB000ADF80230BDF802302380ADF80210BDF855
:101EC0000230ADF80230BDF8023023803F23ADF878
:101ED0000230BDF80260ADF80260BDF802602680F5
:101EE000ADF80230BDF80260ADF80260BDF80260E6
:101EF0002680ADF80210BDF80210ADF80210BDF852
:101F000002102180ADF80250BDF80210ADF80210A9
:101F1000BDF8021024F8021CADF80200BDF8021052
:101F2000ADF80210BDF802102180ADF80200BDF836
:101F30000210ADF80210BDF802102180ADF802E0E9
:101F4000BDF80210ADF80210BDF802102180ADF806
:101F50000230BDF80210ADF80210BDF80210218069
:101F6000ADF80270BDF80210ADF80210BDF8021015
:101F700024F8021CADF80200BDF80210ADF8021002
:101F8000BDF802102180ADF80200BDF80210ADF8D6
:101F90000210BDF802102180ADF80200BDF8020069
:101FA000ADF80200BDF802002080EF20ADF802007D
:101FB000BDF80200ADF80200BDF802002080ADF8C7
:101FC0000220BDF80200ADF80200BDF8020024F8BE
:101FD000020C7820FFF7E8FB2920ADF80200BDF8DD
:101FE0000200ADF80200BDF8020024F8020C01B0B6
:101FF000F0BD00002DE9F04F81B0FF23ADF80230B5
:10200000BDF802008024ADF80200BDF80200C6F65B
:10201000004424F8020CADF80230BDF802004FF085
:10202000060EADF80200BDF802004FF00F0B208045
:102030009820ADF80200BDF802004FF00B0AADF891
:102040000200BDF802004FF010092080ADF802E058
:10205000BDF802004025ADF80200BDF802004FF0C7
:102060000A0C2080BC20ADF80200BDF80200ADF8DB
:102070000200BDF8020024F8020C0120ADF80200B5
:10208000BDF80210ADF80210BDF802102180ADF8C5
:1020900002B0BDF80210ADF80210BDF802102180A8
:1020A0006121ADF80210BDF80210ADF80210BDF8C4
:1020B00002102180ADF80230BDF80210ADF8021018
:1020C000BDF802102180ADF80200BDF80210ADF895
:1020D0000210BDF802102180ADF80200BDF8021018
:1020E000ADF80210BDF802102180ADF802A0BDF8D5
:1020F0000210ADF80210BDF802102180ADF8029078
:10210000BDF80210ADF80210BDF802102180372191
:10211000ADF80210BDF80210ADF80210BDF80210C3
:1021200021806321ADF80210BDF80210ADF8021055
:10213000BDF802102180ADF80230BDF80210ADF8F4
:102140000210BDF802102180ADF80230BDF8021077
:10215000ADF80210BDF802102180ADF80200BDF804
:102160000210ADF80210BDF802102180ADF8020097
:10217000BDF80210ADF80210BDF802102180002158
:10218000ADF80210BDF80220ADF80220BDF8022023
:102190002280ADF80210BDF80220ADF80220BDF893
:1021A00002202280ADF80230BDF80220ADF80220F6
:1021B000BDF8022022805222ADF80220BDF8022094
:1021C000ADF80220BDF802202280ADF80200BDF873
:1021D0000220ADF80220BDF802202280ADF80210E6
:1021E000BDF80220ADF80220BDF802202280ADF833
:1021F0000250BDF80220ADF80220BDF80220228076
:10220000BD22ADF80220BDF80220ADF80220BDF8D5
:10221000022024F8022CADF80200BDF80220ADF82F
:102220000220BDF8022022802322ADF80220BDF852
:102230000230ADF80230BDF8023023804523ADF8FE
:102240000230BDF80260ADF80260BDF80260268081
:102250006726ADF80260BDF80270ADF80270BDF8F7
:1022600002702780ADF80200BDF80270ADF8027070
:10227000BDF802702780ADF80220BDF80220ADF84D
:102280000220BDF802202280ADF80230BDF8022005
:10229000ADF80220BDF802202280ADF80260BDF842
:1022A00002201326ADF80220BDF802202280BE22B3
:1022B000ADF80220BDF80220ADF80220BDF80220E2
:1022C00024F8022CADF80210BDF80220ADF802206F
:1022D000BDF802202280ADF80200BDF80220ADF862
:1022E0000220BDF802202280AB22ADF80220BDF80A
:1022F0000220ADF80220BDF8022022806022ADF855
:102300000220BDF80220ADF80220BDF80220228094
:102310002222ADF80220BDF80230ADF80230BDF83F
:1023200002302380ADF80220BDF80230ADF8023053
:10233000BDF802302380ADF80220BDF80230ADF8C0
:102340000230BDF802302380ADF80220BDF8023023
:10235000ADF80230BDF802302380ADF80220BDF8A0
:1023600002202023ADF80220BDF802202280C722DF
:10237000ADF80220BDF80220ADF80220BDF8022021
:1023800024F8022C3622ADF80220BDF80220ADF868
:102390000220BDF802202280ED22ADF80220BDF817
:1023A0000220ADF80220BDF8022024F8022C7F2282
:1023B000ADF80220BDF80220ADF80220BDF80220E1
:1023C0002280ADF802B0BDF80220ADF80220BDF8C1
:1023D00002202280C022ADF80220BDF80220ADF814
:1023E0000220BDF8022024F8022CADF802B0BDF89E
:1023F0000220ADF80220BDF802202280ADF802A034
:10240000BDF80220ADF80220BDF802202280ADF810
:1024100002C0BDF80220ADF80220BDF802202280E3
:10242000FC22ADF80220BDF80220ADF80220BDF874
:10243000022024F8022C0822ADF80220BDF8022068
:10244000ADF80220BDF802202280DF22ADF8022084
:10245000BDF80220ADF80220BDF8022024F8022CBD
:10246000ADF80210BDF80220ADF80220BDF8022040
:102470002280ADF80210BDF80220ADF80220BDF8B0
:1024800002202280ADF80210BDF80220ADF8022033
:10249000BDF802202280ADF80210BDF80220ADF890
:1024A0000220BDF802202280ADF80210BDF8022003
:1024B000ADF80220BDF802202280ADF80230BDF850
:1024C0000220ADF80220BDF802202280F322ADF8F0
:1024D0000220BDF80220ADF80220BDF8022024F849
:1024E000022C7422ADF80220BDF80220ADF80220C3
:1024F000BDF802202280B422ADF80220BDF80220EF
:10250000ADF80220BDF8022024F8022CADF802102C
:10251000BDF80220ADF80220BDF802202280ADF8FF
:102520000210BDF80220ADF80220BDF80220228082
:10253000ADF80210BDF80220ADF80220BDF802206F
:102540002280F722ADF80220BDF80220ADF802206B
:10255000BDF8022024F8022C8222ADF80220BDF83A
:102560000220ADF80220BDF802202280B122ADF891
:102570000220BDF80220ADF80220BDF8022024F8A8
:10258000022CADF80210BDF80220ADF80220BDF813
:1025900002202280ADF80260BDF80220ADF80220D2
:1025A000BDF802202280ADF80260BDF80220ADF82F
:1025B0000220BDF802202280F222ADF80220BDF8F0
:1025C0000220ADF80220BDF8022024F8022C80225F
:1025D000ADF80220BDF80220ADF80220BDF80220BF
:1025E00022800422ADF80220BDF80220ADF80220BE
:1025F000BDF802202280ADF80250BDF80220ADF8EF
:102600000220BDF8022022802822ADF80220BDF869
:102610000220ADF80220BDF802202280C122ADF8D0
:102620000220BDF80220ADF80220BDF8022024F8F7
:10263000022C1722ADF80220BDF80220ADF80220CE
:10264000BDF8022022808822ADF80220BDF8025099
:10265000ADF80250BDF802502580ADF80220BDF85B
:1026600002200E25ADF80220BDF802202280ADF830
:102670000230BDF80220ADF80220BDF80220228011
:10268000E022ADF80220BDF80220ADF80220BDF82E
:10269000022024F8022CADF80210BDF80220ADF89B
:1026A0000220BDF802202280ADF802C0BDF8022051
:1026B000ADF80220BDF8022022801222ADF80220DF
:1026C000BDF80220ADF80220BDF802202280ADF84E
:1026D0000290BDF80220ADF80220BDF80220228051
:1026E000ADF80250BDF80220ADF80220BDF802207E
:1026F0002280ADF80230BDF80220ADF80220BDF80E
:1027000002202280CC22ADF80220BDF80220ADF8D4
:102710000220BDF8022022800722ADF80220BDF879
:102720000220ADF80220BDF802202280ADF802E0C0
:10273000BDF80220ADF80220BDF802202280ADF8DD
:1027400002A0BDF80220ADF80220BDF802202280D0
:10275000ADF80250BDF80220ADF80220BDF802200D
:102760002280ADF802B0BDF80220ADF80220BDF81D
:10277000022022800D22ADF80220BDF80230ADF813
:102780000230BDF8023023801523ADF80230BDF8C9
:102790000280ADF80280BDF802702780ADF802908B
:1027A000BDF80270ADF80270BDF802702780ADF878
:1027B0000210BDF80270ADF80270BDF802702780FB
:1027C000E127ADF80270BDF80270ADF80270BDF8F7
:1027D000027024F8027CADF80210BDF80270ADF86A
:1027E0000270BDF802702780ADF802A0BDF802703B
:1027F000ADF80270BDF802702780ADF80260BDF838
:102800000260ADF80260BDF802602680ADF80220DB
:10281000BDF80220ADF80220BDF802202280ADF8FC
:102820000250BDF80220ADF80220BDF8022022803F
:102830001B22ADF80220BDF80220ADF80220BDF841
:10284000022022807122ADF80220BDF80220ADF8EE
:102850000220BDF802202280ADF802E0BDF802207F
:10286000ADF80220BDF802202280ADF802E0BDF8EC
:102870000220ADF80220BDF802202280ADF802C08F
:10288000BDF80220ADF80220BDF802202280ADF88C
:1028900002B0BDF80220ADF80220BDF8022022806F
:1028A000ADF80250BDF80220ADF80220BDF80220BC
:1028B0002280ADF802B0BDF80220ADF80220BDF8CC
:1028C00002202280ADF80230BDF80220ADF80220CF
:1028D000BDF8022022800C22ADF80220BDF80220B3
:1028E000ADF80220BDF802202280ADF80210BDF83C
:1028F0000220ADF80220BDF8022022802A22ADF885
:102900000220BDF80220ADF80220BDF8022024F814
:10291000022CADF80210BDF80220ADF80220BDF87F
:1029200002202280ADF80210BDF80220ADF802208E
:10293000BDF802202280ADF80200BDF80200ADF81B
:102940000200BDF802002080DF20ADF80200BDF8D3
:102950000200ADF80200BDF8020020802B20ADF887
:102960000200BDF80200ADF80200BDF8020024F834
:10297000020CADF80210BDF80200ADF80200BDF87F
:1029800002002080ADF80210BDF80200ADF8020090
:10299000BDF8020020800320ADF80200BDF802005F
:1029A000ADF80200BDF8020020801F20ADF8020043
:1029B000BDF80200ADF80200BDF8020020803A2008
:1029C000ADF80200BDF80200ADF80200BDF802004B
:1029D00024F8020C5520ADF80200BDF80200ADF855
:1029E0000200BDF8020020803620ADF80200BDF8DC
:1029F0000200ADF80200BDF8020024F8020CADF8A8
:102A00000210BDF80200ADF80200BDF802002080FF
:102A10001120ADF80200BDF80200ADF80200BDF8CB
:102A2000020024F8020C7820FEF7BEFE2920ADF843
:102A30000200BDF80200ADF80200BDF8020024F863
:102A4000020C1420FEF7B0FE2C20ADF80200BDF8F9
:102A50000200ADF80200BDF8020024F8020C01B03B
:102A6000BDE8F08F2DE9F04F81B0ED20ADF8020008
:102A7000BDF802008024ADF80200BDF80200C6F6E1
:102A8000004424F8020C0120ADF80200BDF8020059
:102A90004FF02109ADF80200BDF8020001222080AC
:102AA000FE20ADF80200BDF802000025ADF80200DE
:102AB000BDF802008B262080EE20ADF80200BDF8A4
:102AC00002000223ADF80200BDF802004FF0200A18
:102AD00024F8020CDE20ADF80200BDF802004FF031
:102AE0003C08ADF80200BDF802004FF0360E208021
:102AF000ADF80290BDF80210C420ADF80210BDF888
:102B000002104FF0320B2180F121ADF80210BDF818
:102B100002104FF02C0CADF80210BDF8021024F892
:102B2000021CADF80220BDF80210ADF80210BDF88D
:102B300002102180DF21ADF80210BDF80210ADF8BF
:102B40000210BDF8021024F8021C1021ADF802108A
:102B5000BDF80210ADF80210BDF802102180ADF8EA
:102B60000200BDF80210C620ADF80210BDF8021038
:102B700024F8021C8F21ADF80210BDF80210ADF848
:102B80000210BDF802102180ADF80200BDF802105D
:102B9000E220ADF80210BDF8021024F8021CADF8D6
:102BA0000250BDF80210ADF80210BDF802102180ED
:102BB000ADF80200BDF80210ADF80210BDF8021029
:102BC0002180ADF80200BDF80210ADF80210BDF88A
:102BD00002102180ADF80200BDF802105D20ADF8B2
:102BE0000210BDF802102180BF21ADF80210BDF81F
:102BF0000210ADF80210BDF8021024F8021CAA2140
:102C0000ADF80210BDF80210ADF80210BDF80210C8
:102C10002180B021ADF80210BDF80210ADF802100D
:102C2000BDF8021024F8021C0D21ADF80210BDF809
:102C30000220ADF80220BDF802202280ADF802503B
:102C4000BDF80220ADF80220BDF802202280ADF8C8
:102C50000210BDF80210ADF80210BDF8021021807C
:102C6000ADF80250BDF80210ADF80210BDF8021028
:102C700021801121ADF80210BDF80210ADF802104C
:102C8000BDF802102180ADF80250BDF80210ADF879
:102C90000210BDF8021021801921ADF80210BDF814
:102CA0000210ADF80210BDF802102180ADF80250FC
:102CB000BDF80210ADF80210BDF802102180ADF889
:102CC0000290BDF80210ADF80210BDF8021021808C
:102CD000ADF80250BDF80210ADF80210BDF80210B8
:102CE00021802D21ADF80210BDF80210ADF80210C0
:102CF000BDF802102180ADF80250BDF80210ADF809
:102D00000210BDF8021021803D21ADF80210BDF87F
:102D10000210ADF80210BDF802102180ADF802508B
:102D2000BDF80210ADF80210BDF802102180ADF818
:102D30000200BDF80210ADF80210BDF802102180AB
:102D4000ADF80250BDF80210ADF80210BDF8021047
:102D50002180ADF80200BDF802108B20ADF8021002
:102D6000BDF802102180ADF80250BDF80210ADF898
:102D70000210BDF802102180B121ADF80210BDF89B
:102D80000210ADF80210BDF8021024F8021C8021D8
:102D9000ADF80210BDF80210ADF80210BDF8021037
:102DA0002180ADF80250BDF80210ADF80210BDF858
:102DB00002102180ADF80200BDF802100220ADF82B
:102DC0000210BDF802102180ADF80250BDF80210CB
:102DD000ADF80210BDF8021021809621ADF8021066
:102DE000BDF80220ADF80220BDF802202280ADF827
:102DF0000250BDF80220ADF80220BDF8022022806A
:102E0000B222ADF80220BDF80220ADF80220BDF8D4
:102E1000022024F8022CADF80250BDF80220ADF8D3
:102E20000220BDF802202280ADF80250BDF8022039
:102E3000ADF80220BDF802202280ADF80200BDF8F6
:102E40000220B320ADF80220BDF802202280ADF8A8
:102E50000250BDF80220ADF80220BDF80220228009
:102E60000322ADF80220BDF80270ADF80270BDF883
:102E700002702780ADF80250BDF80270ADF8027004
:102E8000BDF802702780ADF80200BDF80270B720CF
:102E9000ADF80270BDF8027024F8027CADF8025063
:102EA000BDF80270ADF80270BDF802702780ADF871
:102EB0000250BDF80270ADF80270BDF802702780B4
:102EC000ADF80250BDF80270ADF80270BDF80270A6
:102ED0002780ADF80250BDF80270ADF80270BDF861
:102EE00002702780ADF80250BDF80270ADF8027094
:102EF000BDF802702780ADF80250BDF80270ADF841
:102F00000270BDF802702780ADF80250BDF8027063
:102F1000ADF80270BDF802702780ADF80250BDF820
:102F20000270ADF80270BDF802702780ADF8025053
:102F3000BDF80270ADF80270BDF802702780ADF8E0
:102F40000250BDF80270ADF80270BDF80270278023
:102F5000ADF80250BDF80270ADF80270BDF8027015
:102F60002780ADF80250BDF80270ADF80270BDF8D0
:102F700002702780ADF80250BDF80270ADF8027003
:102F8000BDF802702780ADF80250BDF80270ADF8B0
:102F90000270BDF802702780ADF80250BDF80270D3
:102FA000ADF80270BDF802702780ADF80250BDF890
:102FB0000270ADF80270BDF802702780ADF80250C3
:102FC000BDF80270ADF80270BDF802702780ADF850
:102FD0000250BDF80270ADF80270BDF80270278093
:102FE000ADF80250BDF80270ADF80270BDF8027085
:102FF0002780ADF80250BDF80270ADF80270BDF840
:1030000002702780ADF80250BDF80270ADF8027072
:10301000BDF802702780ADF80250BDF80270ADF81F
:103020000270BDF802702780ADF80250BDF8027042
:10303000ADF80270BDF802702780ADF80250BDF8FF
:103040000270ADF80270BDF802702780B427ADF8A9
:103050000270BDF80270ADF80270BDF8027024F87D
:10306000027CADF80260BDF80270ADF80270BDF8E8
:1030700002702780ADF80250BDF80270ADF8027002
:10308000BDF802702780ADF80210BDF802100427C9
:10309000ADF80210BDF802102180ADF80250BDF865
:1030A0000210ADF80210BDF802102180A121ADF888
:1030B0000210BDF80210ADF80210BDF80210218018
:1030C000ADF80250BDF80210ADF80210BDF80210C4
:1030D0002180B521ADF80210BDF80210ADF8021044
:1030E000BDF8021024F8021CADF80230BDF8021041
:1030F000FF23ADF80210BDF802102180ADF8025098
:10310000BDF80210ADF80210BDF802102180ADF834
:103110000220BDF80210ADF80210BDF802102180A7
:10312000ADF80250BDF80210ADF80210BDF8021063
:103130002180ADF80270BDF80210ADF80210BDF8A4
:1031400002102180ADF80250BDF80210ADF8021057
:10315000BDF802102180B621ADF80210BDF80210B2
:10316000ADF80210BDF8021024F8021CADF80250B0
:10317000BDF80210ADF80210BDF802102180ADF8C4
:103180000250BDF80210ADF80210BDF80210218007
:10319000ADF80200BDF802106420ADF80210BDF8D1
:1031A000021024F8021CADF80250BDF80210ADF870
:1031B0000210BDF802102180ADF80250BDF80210D7
:1031C000ADF80210BDF8021021803F21ADF80210C9
:1031D000BDF80210ADF80210BDF802102180ADF864
:1031E0000250BDF80210ADF80210BDF802102180A7
:1031F0005E21ADF80210BDF80210ADF80210BDF866
:1032000002102180ADF80250BDF80210ADF8021096
:10321000BDF802102180ADF80200BDF80210DC20DC
:10322000ADF80210BDF802102180ADF80250BDF8D3
:103230000210ADF80210BDF8021021808C21ADF80B
:103240000210BDF80210ADF80210BDF80210218086
:10325000ADF80250BDF80210ADF80210BDF8021032
:103260002180AC21ADF80210BDF80210ADF80210BB
:10327000BDF802102180ADF80250BDF80210ADF883
:103280000210BDF802102180ADF80200BDF8021056
:10329000ADF80210BDF802102180ADF80250BDF863
:1032A0000210ADF80210BDF8021021807021ADF8B7
:1032B0000210BDF80210ADF80210BDF80210218016
:1032C000ADF80250BDF80210ADF80210BDF80210C2
:1032D00021809021ADF80210BDF80210ADF8021067
:1032E000BDF802102180ADF80250BDF80210ADF813
:1032F0000210BDF802102180EB21ADF80210BDF8DC
:103300000210ADF80210BDF802102180ADF8025095
:10331000BDF80210ADF80210BDF802102180ADF822
:103320000200BDF80210C220ADF80210BDF8021074
:103330002180ADF80250BDF80210ADF80210BDF8C2
:1033400002102180B821ADF80210BDF80210ADF8CE
:103350000210BDF8021024F8021CADF80250BDF8AE
:103360000210ADF80210BDF802102180ADF8025035
:10337000BDF80210ADF80210BDF802102180ADF8C2
:103380000250BDF80210ADF80210BDF80210218005
:10339000ADF80250BDF80210ADF80210BDF80210F1
:1033A0002180ADF80250BDF80210ADF80210BDF852
:1033B00002102180ADF80250BDF80210ADF80210E5
:1033C000BDF802102180ADF80250BDF80210ADF832
:1033D0000210BDF802102180ADF80250BDF80210B5
:1033E000ADF80210BDF802102180BA21ADF802102C
:1033F000BDF80210ADF80210BDF8021024F8021C4E
:103400002421ADF80210BDF80220ADF80220BDF86D
:1034100002202280ADF80250BDF80220ADF8022053
:10342000BDF802202280ADF80250BDF80220ADF8B0
:103430000220BDF802202280ADF80250BDF8022023
:10344000ADF80220BDF802202280C122ADF8022092
:10345000BDF80220ADF80220BDF8022024F8022CAD
:10346000ADF802A0BDF802602322ADF80260BDF8FD
:1034700002602680ADF80250BDF80260ADF802602F
:10348000BDF8026026805426ADF80260BDF80260E7
:10349000ADF80260BDF802602680ADF80250BDF8BC
:1034A0000260ADF80260BDF802602680ADF802301F
:1034B000BDF802603A23ADF80260BDF802602680D4
:1034C000ADF80250BDF80260ADF80260BDF80260D0
:1034D0002680ADF80200BDF802600A20ADF8026057
:1034E000BDF8026024F8026CADF80200BDF802607D
:1034F0003C20ADF80260BDF802602680ADF80250B5
:10350000BDF80260ADF80260BDF802602680ADF83B
:103510000270BDF80270ADF80270BDF8027027802D
:10352000ADF80250BDF80270ADF80270BDF802703F
:103530002780C327ADF80270BDF80270ADF80270A5
:10354000BDF8027024F8027CADF80200BDF80270EC
:10355000ADF80270BDF802702780ADF80250BDF8DA
:103560000270ADF80270BDF802702780ADF802302D
:10357000BDF802702C23ADF80270BDF802702780F0
:10358000ADF80250BDF80270ADF80270BDF80270DF
:1035900027803927ADF80270BDF80270ADF80270CF
:1035A000BDF802702780ADF80250BDF80270ADF88A
:1035B0000270BDF8027027803727ADF80270BDF8A1
:1035C0000270ADF80270BDF802702780ADF80250AD
:1035D000BDF80270ADF80270BDF802702780ADF83A
:1035E0000200BDF802703620ADF80270BDF802701E
:1035F0002780ADF80250BDF80270ADF80270BDF83A
:1036000002702780ADF80200BDF802703220ADF8DC
:103610000270BDF802702780ADF80250BDF802704C
:10362000ADF80270BDF802702780ADF80200BDF859
:1036300002702920ADF80270BDF802702780ADF845
:103640000250BDF80270ADF80270BDF8027027801C
:103650002F27ADF80270BDF80260ADF80260BDF82A
:1036600002602680ADF80250BDF80260ADF802603D
:10367000BDF802602680ADF80230BDF80260292353
:10368000ADF80260BDF802602680ADF80250BDF8CA
:103690000260ADF80260BDF802602680ADF802302D
:1036A000BDF80260ADF80260BDF802602680ADF89A
:1036B0000250BDF80260ADF80260BDF802602680DD
:1036C0002626ADF80260BDF80230ADF80230BDF834
:1036D00002302380ADF80250BDF80230ADF8023060
:1036E000BDF802302380ADF80210BDF80230ADF80D
:1036F0000230BDF802302380ADF80250BDF8023030
:10370000ADF80230BDF802302380ADF80210BDF8EC
:103710000230ADF80230BDF802302380ADF802501F
:10372000BDF80230ADF80230BDF80230238023230B
:10373000ADF80230BDF80230ADF80230BDF802300D
:103740002380ADF80250BDF80230ADF80230BDF86C
:1037500002302380ADF80280BDF802304FF07A08C5
:10376000ADF80230BDF802302380ADF80250BDF84C
:103770000230ADF80230BDF802302380ADF802E02F
:10378000BDF802304FF08B0EADF80230BDF80230BC
:103790002380ADF80250BDF80230ADF80230BDF81C
:1037A00002302380ADF802B0BDF80230ADF802302F
:1037B000BDF802302380ADF80250BDF80230ADF8FC
:1037C0000230BDF802302380ADF80270BDF802303F
:1037D000ADF80230BDF802302380ADF80250BDF8DC
:1037E0000230ADF80230BDF802302380ADF802C0DF
:1037F000BDF802304FF0C40CADF80230BDF8023015
:103800002380ADF80250BDF80230ADF80230BDF8AB
:1038100002302380ADF80200BDF80230C420ADF8BC
:103820000230BDF802302380ADF80250BDF80230FE
:10383000ADF80230BDF802302380ADF80260BDF86B
:1038400002301626ADF80230BDF802302380ADF804
:103850000250BDF80230ADF80230BDF802302380CE
:10386000ADF80210BDF80230ADF80230BDF80230FC
:103870002380ADF80250BDF80230ADF80230BDF83B
:1038800002302380ADF80210BDF80210ADF802102E
:10389000BDF802102180ADF80250BDF80210ADF85D
:1038A0000210BDF802102180ADF80220BDF8021010
:1038B000ADF80210BDF802102180ADF80250BDF83D
:1038C0000210ADF80210BDF802102180ADF8020020
:1038D000BDF802106220ADF80210BDF8021024F805
:1038E000021CADF80200BDF802100520ADF8021070
:1038F000BDF802102180ADF80250BDF80210ADF8FD
:103900000210BDF802102180ADF80200BDF80210CF
:103910008420ADF80210BDF802102180ADF80250ED
:10392000BDF80210ADF80210BDF802102180ADF80C
:103930000200BDF80210F020ADF80210BDF8021030
:103940002180ADF80250BDF80210ADF80210BDF8AC
:1039500002102180ADF80200BDF802105020ADF831
:103960000210BDF802102180ADF80250BDF802101F
:10397000ADF80210BDF8021021801821ADF8021038
:10398000BDF80230ADF80230BDF802302380ADF84A
:103990000250BDF80230ADF80230BDF8023023808D
:1039A000A423ADF80230BDF80230ADF80230BDF806
:1039B00002302380ADF80250BDF80230ADF802307D
:1039C000BDF802302380ADF80210BDF80210ADF84A
:1039D0000210BDF802102180ADF80250BDF80210AF
:1039E000ADF80210BDF802102180ADF80200BDF85C
:1039F0000210F320ADF80210BDF802102180ADF8DE
:103A00000250BDF80210ADF80210BDF8021021807E
:103A10000C21ADF80210BDF80210ADF80210BDF88F
:103A200002102180ADF80250BDF80210ADF802106E
:103A3000BDF8021021801721ADF80210BDF8023048
:103A4000ADF80230BDF802302380ADF80250BDF869
:103A50000230ADF80230BDF8023023809523ADF876
:103A60000230BDF80230ADF80230BDF802302380DC
:103A7000ADF80250BDF80230ADF80230BDF80230AA
:103A80002380ADF80200BDF80230E620ADF8023028
:103A9000BDF802302380ADF80250BDF80230ADF819
:103AA0000230BDF802302380ADF80200BDF80230CC
:103AB0004420ADF80230BDF802302380ADF802504A
:103AC000BDF80230ADF80230BDF802302380C523C6
:103AD000ADF80230BDF80230ADF80230BDF802306A
:103AE00024F8023CADF802B0BDF802304FF0520BA2
:103AF000ADF80230BDF802302380ADF80250BDF8B9
:103B00000230ADF80230BDF802302380ADF802007B
:103B1000BDF802307620ADF80230BDF802302380C7
:103B2000ADF80250BDF80230ADF80230BDF80230F9
:103B300023806523ADF80230BDF80230ADF80230C5
:103B4000BDF802302380ADF80250BDF80230ADF868
:103B50000230BDF802302380ADF80200BDF802301B
:103B60008820ADF80230BDF802302380ADF8025055
:103B7000BDF80230ADF80230BDF802302380ADF858
:103B80000200BDF80230C620ADF80230BDF80230A8
:103B90002380ADF80250BDF80230ADF80230BDF818
:103BA00002302380ADF80200BDF802300120ADF8EC
:103BB0000230BDF8023024F8023CADF802A0BDF896
:103BC0000220A823ADF80220BDF802202280ADF823
:103BD0000250BDF80220ADF80220BDF8022022807C
:103BE000ADF80210BDF80210B922ADF80210BDF810
:103BF00002102180ADF80250BDF80210ADF802109D
:103C0000BDF802102180ADF80200BDF80210C720F7
:103C1000ADF80210BDF802102180ADF80250BDF8D9
:103C20000210ADF80210BDF802102180ADF80200BC
:103C3000BDF80210E020ADF80210BDF8021024F823
:103C4000021CADF80250BDF80210ADF80210BDF82C
:103C500002102180ADF80250BDF80210ADF802103C
:103C6000BDF802102180ADF80250BDF80210ADF889
:103C70000210BDF802102180ADF80250BDF802100C
:103C8000ADF80210BDF802102180C821ADF8021075
:103C9000BDF80210ADF80210BDF8021024F8021CA5
:103CA000ADF80250BDF80210ADF80210BDF80210D8
:103CB0002180ADF80250BDF80210ADF80210BDF839
:103CC00002102180ADF80250BDF80210ADF80210CC
:103CD000BDF802102180ADF80250BDF80210ADF819
:103CE0000210BDF802102180C921ADF80210BDF804
:103CF0000210ADF80210BDF8021024F8021CADF855
:103D00000250BDF80210ADF80210BDF8021021807B
:103D1000ADF80250BDF80210ADF80210BDF8021067
:103D20002180ADF80250BDF80210ADF80210BDF8C8
:103D300002102180ADF80250BDF80210ADF802105B
:103D4000BDF802102180ADF80250BDF80210ADF8A8
:103D50000210BDF802102180ADF80250BDF802102B
:103D6000ADF80210BDF802102180ADF80250BDF888
:103D70000210ADF80210BDF802102180ADF802501B
:103D8000BDF80210ADF80210BDF802102180ADF8A8
:103D90000250BDF80210ADF80210BDF802102180EB
:103DA000ADF80250BDF80210ADF80210BDF80210D7
:103DB0002180ADF80250BDF80210ADF80210BDF838
:103DC00002102180ADF80250BDF80210ADF80210CB
:103DD000BDF802102180ADF80250BDF80210ADF818
:103DE0000210BDF802102180ADF80250BDF802109B
:103DF000ADF80210BDF802102180ADF80250BDF8F8
:103E00000210ADF80210BDF802102180ADF802508A
:103E1000BDF80210ADF80210BDF802102180ADF817
:103E20000200BDF802101C20ADF80210BDF802100F
:103E300024F8021CADF80260BDF80210ADF80210C3
:103E4000BDF802102180ADF80250BDF80210ADF8A7
:103E50000210BDF802102180ADF80200BDF802107A
:103E6000ADF80210BDF802102180ADF80250BDF887
:103E70000210ADF80210BDF802102180ADF80290DA
:103E8000BDF802004FF06409ADF80200BDF8020071
:103E9000CA212080ADF80250BDF80200ADF8020042
:103EA000BDF8020020803620ADF80200BDF8020007
:103EB000ADF80200BDF802002080ADF80250BDF858
:103EC0000200ADF80200BDF8020020804620ADF8E7
:103ED0000200BDF80200ADF80200BDF8020020802B
:103EE000ADF80250BDF80200ADF80200BDF80200C6
:103EF0002080ADF802B0BDF80200ADF80200BDF8B8
:103F000002002080ADF80250BDF80200ADF80200BA
:103F1000BDF802002080ADF80290BDF80200ADF8B7
:103F20000200BDF802002080ADF80250BDF802008A
:103F3000ADF80200BDF802002080ADF80280BDF8A7
:103F40000200ADF80200BDF802002080ADF802507A
:103F5000BDF80200ADF80200BDF802002080ADF807
:103F600002E0BDF80200ADF80200BDF802002080BA
:103F7000ADF80250BDF80200ADF80200BDF8020035
:103F800020809920ADF80200BDF80200ADF80200D3
:103F9000BDF802002080ADF80250BDF80200ADF877
:103FA0000200BDF802002080ADF80230BDF802002A
:103FB000ADF80200BDF802002080ADF80250BDF857
:103FC0000200ADF80200BDF802002080ADF802202A
:103FD000BDF80200ADF80200BDF802002080ADF887
:103FE0000250BDF80200ADF80200BDF802002080CA
:103FF000ADF802C0BDF80200ADF80200BDF8020045
:104000002080ADF80250BDF80200ADF80200BDF806
:1040100002002080ADF80210BDF80200ADF80200E9
:10402000BDF802002080ADF80250BDF80200ADF8E6
:104030000200BDF802002080D220ADF80200BDF8D9
:1040400002A0ADF802A0BDF802704FF0F30A27807D
:10405000ADF80250BDF80270ADF80270BDF8027004
:104060002780D927ADF80270BDF80270ADF8027054
:10407000BDF802702780ADF80250BDF80270ADF8AF
:104080000270BDF802702780E027ADF80270BDF81D
:104090000270ADF80270BDF802702780ADF80250D2
:1040A000BDF80270ADF80270BDF802702780ADF85F
:1040B00002A0BDF80270ADF80270BDF80270278052
:1040C000ADF80250BDF80270ADF80270BDF8027094
:1040D0002780E127ADF80270BDF80270ADF80270DC
:1040E000BDF8027024F8027CADF80260BDF80260F1
:1040F000ADF80260BDF802602680ADF80250BDF850
:104100000260ADF80260BDF8026026801C26ADF8A2
:104110000260BDF80260ADF80260BDF80260268062
:10412000ADF80250BDF80260ADF80260BDF8026063
:1041300026802226ADF80260BDF80260ADF802606C
:10414000BDF802602680ADF80250BDF80260ADF8FF
:104150000260BDF8026026803626ADF80260BDF828
:104160000260ADF80260BDF802602680ADF8025032
:10417000BDF80260ADF80260BDF8026026804526F9
:10418000ADF80260BDF80260ADF80260BDF80260F3
:104190002680ADF80250BDF80260ADF80260BDF8AF
:1041A00002602680ADF802B0BDF80270D126ADF8ED
:1041B0000270BDF802704FF0DD0B2780ADF80250A1
:1041C000BDF80270ADF80270BDF802702780ADF83E
:1041D0000290BDF802704FF09709ADF80270BDF87B
:1041E00002702780ADF80250BDF80270ADF8027081
:1041F000BDF802702780ADF80280BDF802704FF064
:104200000508ADF80270BDF802702780ADF80250C5
:10421000BDF80270ADF80270BDF802702780ADF8ED
:1042200002E0BDF802704FF0880EADF80270BDF8E4
:1042300002702780ADF80250BDF80270ADF8027030
:10424000BDF8027027809927ADF80270BDF80270A2
:10425000ADF80270BDF802702780ADF80250BDF8CD
:104260000270ADF80270BDF802702780ADF8023020
:10427000BDF80230C227ADF80230BDF8023023800D
:10428000ADF80250BDF80230ADF80230BDF8023092
:104290002380ADF80220BDF80220A623ADF802204D
:1042A000BDF802202280ADF80250BDF80220ADF822
:1042B0000220BDF802202280ADF802C0BDF8022025
:1042C0004FF0F30CADF80220BDF802202280ADF8CB
:1042D0000250BDF80220ADF80220BDF80220228075
:1042E000ADF80210BDF80210C722ADF80210BDF8FB
:1042F00002102180ADF80250BDF80210ADF8021096
:10430000BDF802102180ADF80200BDF80200B7210F
:10431000ADF80200BDF802002080ADF80250BDF8F3
:104320000200ADF80200BDF802002080D820ADF8F0
:104330000200BDF80200ADF80200BDF802002080C6
:10434000ADF80250BDF80200ADF80200BDF8020061
:104350002080E020ADF80200BDF80200ADF80200B8
:10436000BDF802002080ADF80250BDF80200ADF8A3
:104370000200BDF802002080ADF802A0BDF80200E6
:104380004FF0440AADF80200BDF802002080ADF8FD
:104390000250BDF80200ADF80200BDF80200208016
:1043A000E220ADF80200BDF80200ADF80200BDF851
:1043B000020024F8020CADF80280BDF80200ADF84E
:1043C0000200BDF802002080ADF80250BDF80200E6
:1043D000ADF80200BDF8020020800B20ADF802000D
:1043E000BDF80200ADF80200BDF802002080ADF873
:1043F0000250BDF80200ADF80200BDF802002080B6
:104400001B20ADF80200BDF80200ADF80200BDF8B7
:1044100002002080ADF80250BDF80200ADF80200A5
:10442000BDF8020020803420ADF80200BDF8020083
:10443000ADF80200BDF802002080ADF80250BDF8D2
:104440000200ADF80200BDF802002080ADF802A025
:10445000BDF80200ADF80200BDF802002080ADF802
:104460000250BDF80200ADF80200BDF80200208045
:104470004F20ADF80200BDF80200ADF80200BDF813
:1044800002002080ADF80250BDF80200ADF8020035
:10449000BDF8020020806120ADF80200BDF80200E6
:1044A000ADF80200BDF802002080ADF80250BDF862
:1044B0000200ADF80200BDF8020020807920ADF8BE
:1044C0000200BDF80200ADF80200BDF80200208035
:1044D000ADF80250BDF80200ADF80200BDF80200D0
:1044E0002080ADF802E0BDF80200ADF80200BDF892
:1044F00002002080ADF80250BDF80200ADF80200C5
:10450000BDF802002080ADF80290BDF80200ADF8C1
:104510000200BDF802002080ADF80250BDF8020094
:10452000ADF80200BDF802002080ADF80230BDF801
:104530000200ADF80200BDF802002080ADF8025084
:10454000BDF80200ADF80200BDF802002080ADF811
:104550000210BDF80200ADF80200BDF80200208094
:10456000ADF80250BDF80200ADF80200BDF802003F
:104570002080ADF80270BDF80200ADF80200BDF871
:1045800002002080ADF80250BDF80200ADF8020034
:10459000BDF802002080ADF80220BDF80200ADF8A1
:1045A0000200BDF802002080ADF80250BDF8020004
:1045B000ADF80200BDF802002080ADF80260BDF841
:1045C0000200ADF80200BDF802002080ADF80250F4
:1045D000BDF80200ADF80200BDF802002080D62030
:1045E000ADF80200BDF80200ADF80200BDF802000F
:1045F0002080ADF80250BDF80200ADF80200BDF811
:1046000002002080DD20ADF80200BDF80200ADF808
:104610000200BDF802002080ADF80250BDF8020093
:10462000ADF80200BDF802002080ADF802C0BDF870
:104630000200ADF80200BDF802002080ADF8025083
:10464000BDF80200ADF80200BDF802002080E320B2
:10465000ADF80200BDF80200ADF80200BDF802009E
:1046600024F8020CADF80280BDF802004FF0930868
:10467000ADF80200BDF802002080ADF80250BDF890
:104680000200ADF80200BDF8020020800A20ADF85B
:104690000200BDF80200ADF80200BDF80200208063
:1046A000ADF80250BDF80200ADF80200BDF80200FE
:1046B00020801C20ADF80200BDF80200ADF8020019
:1046C000BDF802002080ADF80250BDF80200ADF840
:1046D0000200BDF8020020803320ADF80200BDF8D2
:1046E0000200ADF80200BDF802002080ADF80250D3
:1046F000BDF80200ADF80200BDF802002080ADF860
:1047000002A0BDF802004FF0740AADF80200BDF837
:1047100002002080ADF80250BDF80200ADF80200A2
:10472000BDF8020020805020ADF80200BDF8020064
:10473000ADF80200BDF802002080ADF80250BDF8CF
:104740000200ADF80200BDF8020020806220ADF842
:104750000200BDF80200ADF80200BDF802002080A2
:10476000ADF80250BDF80200ADF80200BDF802003D
:1047700020807820ADF80200BDF80200ADF80200FC
:10478000BDF802002080ADF80250BDF80200ADF87F
:104790000200BDF802002080ADF802E0BDF8020082
:1047A0004FF0C40EADF80200BDF802002080ADF855
:1047B0000250BDF80200ADF80200BDF802002080F2
:1047C000ADF80290BDF802004FF08409ADF8020088
:1047D000BDF802002080ADF80250BDF80200ADF82F
:1047E0000200BDF802002080ADF80230BDF80200E2
:1047F000ADF80200BDF802002080ADF80250BDF80F
:104800000200ADF80200BDF802002080ADF80210F1
:10481000BDF802000121ADF80200BDF802002080C1
:10482000ADF80250BDF80200ADF80200BDF802007C
:104830002080ADF80270BDF80200A227ADF802009A
:10484000BDF802002080ADF80250BDF80200ADF8BE
:104850000200BDF802002080ADF80220BDF8020081
:10486000ADF80200BDF802002080ADF80250BDF89E
:104870000200ADF80200BDF802002080ADF8026031
:10488000BDF80200B326ADF80200BDF8020020809A
:10489000ADF80250BDF80200ADF80200BDF802000C
:1048A0002080D520ADF80200BDF80200ADF802006E
:1048B000BDF802002080ADF80250BDF80200ADF84E
:1048C0000200BDF802002080ADF802B0BDF8020081
:1048D0004FF05D0BADF80200BDF802002080ADF88E
:1048E0000250BDF80200ADF80200BDF802002080C1
:1048F000ADF802C0BDF802004FF0CD0CADF80200DB
:10490000BDF802002080ADF80250BDF80200ADF8FD
:104910000200BDF802002080E420ADF80200BDF8DE
:104920000200ADF80200BDF8020024F8020CADF858
:104930000210BDF80200ADF80200BDF802002080B0
:10494000ADF80250BDF80200ADF80200BDF802005B
:104950002080ADF80210BDF80200ADF80200BDF8ED
:1049600002002080ADF80250BDF80200ADF8020050
:10497000BDF8020020800220ADF80200BDF8020060
:10498000ADF80200BDF802002080ADF80250BDF87D
:104990000200ADF80200BDF8020020802A20ADF828
:1049A0000200BDF80200ADF80200BDF80200208050
:1049B000ADF80250BDF80200ADF80200BDF80200EB
:1049C00020803C20ADF80200BDF80200ADF80200E6
:1049D000BDF802002080ADF80250BDF80200ADF82D
:1049E0000200BDF8020020804B20ADF80200BDF8A7
:1049F0000200ADF80200BDF802002080ADF80250C0
:104A0000BDF80200ADF80200BDF802002080ADF84C
:104A100002B0BDF80200ADF80200BDF8020020802F
:104A2000ADF80250BDF80200ADF80200BDF802007A
:104A30002080ADF802A0BDF80200ADF80200BDF87C
:104A400002002080ADF80250BDF80200ADF802006F
:104A5000BDF802002080ADF80290BDF80200ADF86C
:104A60000200BDF802002080ADF80250BDF802003F
:104A7000ADF80200BDF802002080ADF80280BDF85C
:104A80000200ADF80200BDF802002080ADF802502F
:104A9000BDF80200ADF80200BDF802002080ADF8BC
:104AA0000270BDF80200ADF80200BDF802002080DF
:104AB000ADF80250BDF80200ADF80200BDF80200EA
:104AC0002080ADF80260BDF80200ADF80200BDF82C
:104AD00002002080ADF80250BDF80200ADF80200DF
:104AE000BDF802002080BE20ADF80200BDF8021023
:104AF000ADF80210BDF802102180ADF80250BDF8EB
:104B00000210ADF80210BDF802102180ADF802E0ED
:104B1000BDF80210ADF80210BDF802102180ADF80A
:104B20000250BDF80210ADF80210BDF8021021804D
:104B3000ADF802C0BDF80220DD21ADF80220BDF8BD
:104B400002202280ADF80250BDF80220ADF802200C
:104B5000BDF802202280D322ADF80220BDF8023039
:104B6000ADF80230BDF802302380ADF80250BDF838
:104B70000230ADF80230BDF802302380ADF80210EB
:104B8000BDF80230F321ADF80230BDF802302380C9
:104B9000ADF80250BDF80230ADF80230BDF8023079
:104BA0002380ADF80210BDF80230ADF80230BDF838
:104BB00002302380ADF80250BDF80230ADF802306B
:104BC000BDF802302380E523ADF80230BDF8023095
:104BD000ADF80230BDF8023024F8023CADF80250C6
:104BE000BDF80230ADF80230BDF802302380ADF8D8
:104BF0000250BDF80230ADF80230BDF8023023801B
:104C0000ADF80250BDF80230ADF80230BDF8023008
:104C10002380ADF80250BDF80230ADF80230BDF887
:104C2000023023800223ADF80230BDF80230ADF827
:104C30000230BDF802302380ADF80250BDF80230DA
:104C4000ADF80230BDF8023023802923ADF80230E0
:104C5000BDF80230ADF80230BDF802302380ADF867
:104C60000250BDF80230ADF80230BDF802302380AA
:104C70003C23ADF80230BDF80230ADF80230BDF88B
:104C800002302380ADF80250BDF80230ADF802309A
:104C9000BDF8023023804B23ADF80230BDF802305E
:104CA000ADF80230BDF802302380ADF80250BDF8F7
:104CB0000230ADF80230BDF802302380ADF802B00A
:104CC000BDF802304FF0F30BADF80230BDF8023002
:104CD0002380ADF80250BDF80230ADF80230BDF8C7
:104CE00002302380ADF802A0BDF802304FF0560A22
:104CF000ADF80230BDF802302380ADF80250BDF8A7
:104D00000230ADF80230BDF802302380ADF80290D9
:104D1000BDF802304FF05509ADF80230BDF8023051
:104D20002380ADF80250BDF80230ADF80230BDF876
:104D300002302380ADF80280BDF802304FF07708D2
:104D4000ADF80230BDF802302380ADF80250BDF856
:104D50000230ADF80230BDF802302380ADF80270A9
:104D6000BDF802304427ADF80230BDF80230238090
:104D7000ADF80250BDF80230ADF80230BDF8023097
:104D80002380ADF80260BDF802304526ADF8023050
:104D9000BDF802302380ADF80250BDF80230ADF806
:104DA0000230BDF802302380ADF80200BDF80200E9
:104DB0007623ADF80200BDF802002080ADF8025065
:104DC000BDF80200ADF80200BDF802002080ADF889
:104DD00002E0BDF802004FF0BB0EADF80200BDF8D6
:104DE00002002080ADF80250BDF80200ADF80200CC
:104DF000BDF802002080ADF802C0BDF802004FF0FF
:104E0000110CADF80200BDF802002080ADF8025090
:104E1000BDF80200ADF80200BDF802002080ADF838
:104E20000220BDF802006622ADF80200BDF80200C3
:104E30002080ADF80250BDF80200ADF80200BDF8C8
:104E400002002080DC20ADF80200BDF80200ADF8C1
:104E50000200BDF802002080ADF80250BDF802004B
:104E6000ADF80200BDF802002080ADF80210BDF8D8
:104E700002009921ADF80200BDF802002080ADF8D3
:104E80000250BDF80200ADF80200BDF8020020801B
:104E9000E620ADF80200BDF80200ADF80200BDF852
:104EA000020024F8020CADF802C0BDF80200ADF813
:104EB0000200BDF802002080ADF80250BDF80200EB
:104EC000ADF80200BDF8020020803420ADF80200E9
:104ED000BDF80200ADF80200BDF802002080ADF878
:104EE0000250BDF80200ADF80200BDF802002080BB
:104EF000ADF802A0BDF80200ADF80200BDF8020056
:104F00002080ADF80250BDF80200ADF80200BDF8F7
:104F100002002080ADF80230BDF80200ADF80200BA
:104F2000BDF802002080ADF80250BDF80200ADF8D7
:104F30000200BDF802002080ADF80280BDF802003A
:104F4000ADF80200BDF802002080ADF80250BDF8B7
:104F50000200ADF80200BDF802002080ADF802208A
:104F6000BDF80200ADF80200BDF802002080ADF8E7
:104F70000250BDF80200ADF80200BDF8020020802A
:104F80008820ADF80200BDF80200ADF80200BDF8BF
:104F900002002080ADF80250BDF80200ADF802001A
:104FA000BDF802002080ADF80210BDF80200ADF897
:104FB0000200BDF802002080ADF80250BDF80200EA
:104FC000ADF80200BDF802002080ADF802E0BDF8A7
:104FD0000200ADF80200BDF802002080ADF80250DA
:104FE000BDF80200ADF80200BDF802002080ADF867
:104FF0000210BDF80200ADF80200BDF802002080EA
:10500000ADF80250BDF80200ADF80200BDF8020094
:105010002080ADF80220BDF80200ADF80200BDF816
:1050200002002080ADF80250BDF80200ADF8020089
:10503000BDF802002080ADF80290BDF80200ADF886
:105040000200BDF802002080ADF80250BDF8020059
:10505000ADF80200BDF802002080ADF80290BDF866
:105060000200ADF80200BDF802002080ADF8025049
:10507000BDF80200ADF80200BDF802002080ADF8D6
:105080000260BDF80200ADF80200BDF80200208009
:10509000ADF80250BDF80200ADF80200BDF8020004
:1050A00020804320ADF80200BDF80200ADF80200F8
:1050B000BDF802002080ADF80250BDF80200ADF846
:1050C0000200BDF802002080ADF80270BDF80200B9
:1050D000ADF80200BDF802002080ADF80250BDF826
:1050E0000200ADF80200BDF802002080E720ADF814
:1050F0000200BDF80200ADF80200BDF8020024F87D
:10510000020C3220ADF80200BDF80200ADF802003A
:10511000BDF802002080ADF80250BDF80200ADF8E5
:105120000200BDF802002080ADF80290BDF8020038
:10513000ADF80200BDF802002080ADF80250BDF8C5
:105140000200ADF80200BDF802002080ADF8023088
:10515000BDF80200ADF80200BDF802002080ADF8F5
:105160000250BDF80200ADF80200BDF80200208038
:10517000ADF80220BDF80200ADF80200BDF8020053
:105180002080ADF80250BDF80200ADF80200BDF875
:10519000020020806720ADF80200BDF80230ADF8B3
:1051A0000230BDF802302380ADF80250BDF8023065
:1051B000ADF80230BDF802302380ADF80200BDF832
:1051C0000200ADF80200BDF802002080ADF80250E8
:1051D000BDF80200ADF80200BDF802002080872073
:1051E000ADF80200BDF80230ADF80230BDF8023073
:1051F0002380ADF80250BDF80230ADF80230BDF8A2
:1052000002302380ADF80210BDF80230ADF8023054
:10521000BDF802302380ADF80250BDF80230ADF881
:105220000230BDF802302380ADF802E0BDF8023054
:10523000ADF80230BDF802302380ADF80250BDF861
:105240000230ADF80230BDF802302380ADF8021014
:10525000BDF80230ADF80230BDF802302380ADF861
:105260000250BDF80230ADF80230BDF802302380A4
:10527000ADF80280BDF80230ADF80230BDF8023062
:105280002380ADF80250BDF80230ADF80230BDF811
:1052900002302380ADF80270BDF802302927ADF846
:1052A0000230BDF802302380ADF80250BDF8023064
:1052B000ADF80230BDF802302380ADF802A0BDF891
:1052C0000230ADF80230BDF802302380ADF8025054
:1052D000BDF80230ADF80230BDF802302380232340
:1052E000ADF80230BDF80230ADF80230BDF8023042
:1052F0002380ADF80250BDF80230ADF80230BDF8A1
:10530000023023803323ADF80230BDF80230ADF80F
:105310000230BDF802302380ADF80250BDF80230F3
:10532000ADF80230BDF802302380ADF80260BDF860
:105330000230ADF80230BDF802302380ADF80250E3
:10534000BDF80230ADF80230BDF802302380E8230A
:10535000ADF80230BDF80230ADF80230BDF80230D1
:1053600024F8023CADF80250BDF80230ADF802302E
:10537000BDF802302380ADF80250BDF80230ADF820
:105380000230BDF802302380ADF80210BDF80230C3
:10539000ADF80230BDF802302380ADF80250BDF800
:1053A0000230ADF80230BDF802302380ADF80200C3
:1053B000BDF802008823ADF80200BDF8020020808D
:1053C000ADF80250BDF80200ADF80200BDF80200D1
:1053D0002080ADF80230BDF80200ADF80200BDF843
:1053E00002002080ADF80250BDF80200ADF80200C6
:1053F000BDF802002080ADF80280BDF80200ADF8D3
:105400000200BDF802002080ADF80250BDF8020095
:10541000ADF80200BDF802002080ADF80220BDF812
:105420000200ADF80200BDF802002080ADF8025085
:10543000BDF80200ADF80200BDF802002080ADF812
:105440000230BDF80200AA23ADF80200BDF8020048
:105450002080ADF80250BDF80200ADF80200BDF8A2
:1054600002002080ADF80230BDF80200ADF8020065
:10547000BDF802002080ADF80250BDF80200ADF882
:105480000200BDF802002080ADF802E0BDF8020085
:10549000ADF80200BDF802002080ADF80250BDF862
:1054A0000200ADF80200BDF802002080ADF8021045
:1054B000BDF802004421ADF80200BDF802002080D2
:1054C000ADF80250BDF80200ADF80200BDF80200D0
:1054D0002080ADF80220BDF80200ADF80200BDF852
:1054E00002002080ADF80250BDF80200ADF80200C5
:1054F000BDF802002080ADF80290BDF80200ADF8C2
:105500000200BDF802002080ADF80250BDF8020094
:10551000ADF80200BDF802002080ADF80290BDF8A1
:105520000200ADF80200BDF802002080ADF8025084
:10553000BDF80200ADF80200BDF802002080ADF811
:105540000210BDF80200ADF80200BDF80200208094
:10555000ADF80250BDF80200ADF80200BDF802003F
:105560002080ADF80210BDF80200AA21ADF80200BB
:10557000BDF802002080ADF80250BDF80200ADF881
:105580000200BDF802002080ADF80290BDF80200D4
:10559000ADF80200BDF802002080ADF80250BDF861
:1055A0000200ADF80200BDF802002080E920ADF84D
:1055B0000200BDF80200ADF80200BDF8020024F8B8
:1055C000020CADF80230BDF80200ADF80200BDF8E3
:1055D00002002080ADF80250BDF80200ADF80200D4
:1055E000BDF802002080ADF80250BDF80200ADF811
:1055F0000200BDF802002080ADF80250BDF80200A4
:10560000ADF80200BDF802002080ADF80250BDF8F0
:105610000200ADF80200BDF8020024F8020CADF85B
:105620000210BDF80200ADF80200BDF802002080B3
:10563000CF20ADF80200BDF80200ADF80200BDF8C1
:10564000020024F8020CADF80250BDF80200ADF8DB
:105650000200BDF802002080ADF80250BDF8020043
:10566000ADF80200BDF802002080ADF80250BDF890
:105670000200ADF80200BDF802002080ADF8025033
:10568000BDF80200ADF80200BDF802002080ADF8C0
:105690000250BDF80200ADF80200BDF80200208003
:1056A000ADF80250BDF80200ADF80200BDF80200EE
:1056B0002080ADF80250BDF80200ADF80200BDF840
:1056C00002002080ADF80250BDF80200ADF80200E3
:1056D000BDF802002080ADF80250BDF80200ADF820
:1056E0000200BDF802002080ADF80250BDF80200B3
:1056F000ADF80200BDF802002080ADF80250BDF800
:105700000200ADF80200BDF802002080ADF80250A2
:10571000BDF80200ADF80200BDF802002080ADF82F
:105720000250BDF80200ADF80200BDF80200208072
:10573000ADF80250BDF80200ADF80200BDF802005D
:105740002080ADF80250BDF80200ADF80200BDF8AF
:1057500002002080ADF80250BDF80200ADF8020052
:10576000BDF802002080ADF80250BDF80200ADF88F
:105770000200BDF802002080F020ADF80200BDF864
:105780000200ADF80200BDF8020024F8020CADF8EA
:105790000250BDF80200ADF80200BDF80200208002
:1057A0005020ADF80200BDF80200ADF80200BDF8CF
:1057B00002002080ADF80250BDF80200ADF80200F2
:1057C000BDF802002080ADF80250BDF80200ADF82F
:1057D0000200BDF802002080ADF80250BDF80200C2
:1057E000ADF80200BDF802002080ADF802B0BDF8AF
:1057F0000200ADF80200BDF8020024F8020CADF87A
:105800000250BDF80200ADF80200BDF80200208091
:10581000F920ADF80200BDF80200ADF80200BDF8B5
:10582000020024F8020C0620ADF80200BDF80200C8
:10583000ADF80200BDF8020020801020ADF8020093
:10584000BDF80200ADF80200BDF802002080ADF8FE
:105850000270BDF80200ADF80200BDF80200208021
:10586000ADF80250BDF80200ADF80200BDF802002C
:1058700020803A20ADF80200BDF80200ADF8020029
:10588000BDF8020024F8020CADF80290BDF8020049
:10589000ADF80200BDF802002080ADF802C0BDF8EE
:1058A0000200ADF80200BDF8020024F8020C6420EA
:1058B000FBF77AFFADF80270BDF802002C21ADF8BD
:1058C0000200BDF8020024F8020C3520ADF80200F9
:1058D000BDF80200ADF80200BDF8020024F8020C89
:1058E000ADF80250BDF80200ADF80200BDF80200AC
:1058F00020805120ADF80200BDF80200ADF8020092
:10590000BDF8020024F8020CFF20ADF80200BDF83B
:105910000200ADF80200BDF8020020805320ADF86F
:105920000200BDF80200ADF80200BDF8020024F844
:10593000020CADF80210BDF80200ADF80200BDF88F
:1059400002002080ADF80290BDF80200ADF8020020
:10595000BDF8020024F8020C8220ADF80200BDF868
:105960000200ADF80200BDF802002080ADF8021080
:10597000BDF80200ADF80200BDF8020024F8020CE8
:1059800001B0BDE8F08F00002DE9F04F89B07E2412
:10599000C6F600444FF470402080552060804FF2DE
:1059A0000100CFF6FF70AA2120806180411C069182
:1059B000218052216180811C059121800821618014
:1059C000C11C4FF0010C4FF4364004912180A4F823
:1059D00002C020804BF20250CFF6FF70342100F15C
:1059E000FF026180228000F58072618022804FF486
:1059F00030424BF20103618022800D22CFF6FF730B
:105A00004BF20176628023805F1C1D464FF43743C2
:105A1000CFF6FF766280039727806280238024235D
:105A2000771C63802680638027804FF43147638032
:105A3000278005F58077628027804BF2021762800D
:105A4000278062804FF43842228006F580724BF640
:105A50000206638002922280CFF6FF764FF4324234
:105A6000638026806380228000224FF43947628061
:105A7000278006F1FF076380278006F58077638023
:105A8000278063804FF4334323804BF20133CFF6FA
:105A9000FF7305275E1C67802380678026806780F0
:105AA0004FF43A4727804BF60147CFF6FF77A7F52B
:105AB000007661802680A7F2FF16618026806180D3
:105AC0004FF4354121800B2103F500736180238061
:105AD000618020804FF43C404BF60243618020807F
