:020000040800F2
:1000000070080020CD010008AB170008A3170008F6
:10001000A717000809040008E91A000800000000FA
:10002000000000000000000000000000D9170008D8
:100030000D04000800000000AD170008DB170008E1
:10004000E7010008E7010008E7010008E7010008F0
:10005000E7010008E7010008E7010008E7010008E0
:10006000E7010008E7010008E7010008E7010008D0
:10007000E7010008E7010008E7010008E7010008C0
:10008000E7010008E7010008E7010008E7010008B0
:10009000E7010008E7010008E7010008E7010008A0
:1000A000E7010008E7010008E7010008E701000890
:1000B000E7010008E7010008E7010008E701000880
:1000C000E7010008E7010008E7010008E701000870
:1000D000E7010008D91A0008E7010008E701000855
:1000E000E7010008E7010008E7010008E701000850
:1000F000E7010008E7010008E7010008E701000840
:10010000E7010008E7010008E7010008E70100082F
:10011000E7010008E7010008E7010008E70100081F
:10012000E7010008E7010008E7010008E70100080F
:1001300000F002F800F03AF80AA090E8000C8244BF
:100140008344AAF10107DA4501D100F02FF8AFF29C
:10015000090EBAE80F0013F0010F18BFFB1A43F0A5
:10016000010318476897000088970000103A24BFE1
:1001700078C878C1FAD8520724BF30C830C144BF0C
:1001800004680C607047000000230024002500264E
:10019000103A28BF78C1FBD8520728BF30C148BFEA
:1001A0000B6070471FB51FBD10B510BD00F0EAF819
:1001B0001146FFF7F7FF05F097F900F01CF903B4BB
:1001C000FFF7F2FF03BC01F0E1FF000009488047A0
:1001D00009480047FEE7FEE7FEE7FEE7FEE7FEE729
:1001E000FEE7FEE7FEE7FEE704480549054A064B41
:1001F00070470000E317000831010008700200207A
:100200007008002070040020700400207047000077
:100210000FB4044910B503AA029800F07DF810BC91
:100220005DF814FB8C0000204FF0000200B513466F
:1002300094469646203922BFA0E80C50A0E80C5006
:10024000B1F12001BFF4F7AF090728BFA0E80C50B7
:1002500048BF0CC05DF804EB890028BF40F8042BB0
:1002600008BF704748BF20F8022B11F0804F18BF1D
:1002700000F8012B704700004FF0013C50F8042BB0
:1002800051F8043B9A4221D1A2EB0C03934313EAA9
:10029000CC1317D150F8042B51F8043B9A4215D1D6
:1002A000A2EB0C03934313EACC130BD150F8042BAD
:1002B00051F8043B9A4209D1A2EB0C03934313EA91
:1002C000CC13DBD04FF00000704700BFD01A01BA4A
:1002D000B1FA81F101F0180122FA01F0CB40C1F12D
:1002E0002001DBB2C0B2C01A2CFA01F3D11A91433B
:1002F00011EAC311E6D170477047704770477047E5
:1003000010B500F01BF8006810BD10B5044600F0F1
:1003100015F8046010BD0000074B70B50D467B4416
:1003200000F015F80446284600F024F810B14FF00C
:10033000FF3070BD204670BD8350000000487047FC
:100340000C02002001694A1C02610878704700B560
:100350008FB0CDE901310021059105497944CDE9FE
:1003600003101146684600F032F80FB000BD0000DF
:10037000E5FFFFFF007B00F08000704700487047FA
:100380000C0200207546FFF7F9FFAE4605006946EE
:10039000534620F00700854618B020B5FFF724FF2C
:1003A000BDE820404FF000064FF000074FF0000876
:1003B0004FF0000B21F00701AC46ACE8C009ACE8F7
:1003C000C009ACE8C009ACE8C0098D4670472DE90A
:1003D000F04106460024D6E90170F56880463046B3
:1003E00003E04146B847641C3046A8470028F8D1CE
:1003F0002046BDE8F08110B50446AFF300802046EA
:10040000BDE81040FFF7DBBE00BFFEE7704700000D
:1004100070B50446B3F5804F13D1D1E9000540EA29
:1004200005108D6840EA05208D6928438D8940EAD2
:10043000054054F82250064E3540284344F8220027
:1004400003E06FF0704044F82200002070BD00000F
:100450000000F0CF70B50246086852F8200020F086
:1004600001000E6842F826008868082801D1402360
:1004700000E00023486818438E683043CE6830435C
:100480000E6930434E693043CE6930430E6A3043C3
:100490004E6A30438E6A3043CE6A30430E6B40EA78
:1004A000060488690443486B0443074D45F480659E
:1004B00045F4E025086852F82000A84320430E6860
:1004C00042F82600002070BD7FFB080010B50346EF
:1004D000D1E9000440EA04108C6840EA04208C89C9
:1004E00040EA0444088A401E44EA0054087D801E05
:1004F00044EA00608C692043541C53F8244004F003
:1005000040442043541C43F82400002010BD014601
:10051000002291F82100022808D00420886300BF3F
:10052000002081F8200000BF0120704708680068A3
:1005300020F00E000B6818600868006820F00100C9
:100540000B68186091F8403001209840CB6B5860E0
:10055000012081F8210000BF002081F8200000BFA9
:100560001046E2E770B50446002594F82100022801
:1005700003D00420A0630125C1E02068006820F0BA
:100580000E00216808602068006820F001002168E2
:1005900008605C492068884252D95A4978392068F5
:1005A000884201D1012047E05649643920688842D9
:1005B00001D1102040E0534950392068884201D1D0
:1005C000801539E04F493C392068884201D18014B8
:1005D00032E04C4928392068884202D14FF48030FB
:1005E0002AE0484914392068884202D14FF480102B
:1005F00022E044492068884201D140041CE042497D
:100600002068884201D1012016E03F49143120685A
:10061000884201D110200FE03B49283120688842F0
:1006200001D1801508E038493C312068884201D169
:10063000801401E04FF480303349091F086051E015
:10064000304978392068884201D1012047E02D499E
:1006500064392068884201D1102040E0294950398E
:100660002068884201D1801539E026493C3920684C
:10067000884201D1801432E022492839206888421A
:1006800002D14FF480302AE01E4914392068884294
:1006900002D14FF4801022E01A492068884201D12B
:1006A00040041CE018492068884201D1012016E06E
:1006B000154914312068884201D110200FE01249F9
:1006C00028312068884201D1801508E00E493C316C
:1006D0002068884201D1801401E04FF4803009493C
:1006E00080394860012084F8210000BF002084F890
:1006F000200000BF606B10B12046616B8847284620
:1007000070BD000080000240080402402DE9F84757
:10071000024600239C467BE14FF0010808FA03F4EF
:10072000D1F8008008EA0400A0427DD1DFF8F4A2ED
:10073000D1F80480A8EB0A09D0453AD014DCB8F10E
:10074000030F50D009DCB8F1000F31D0B8F1010F20
:100750001CD0B8F1020F49D120E0B8F1110F18D028
:10076000B8F1120F42D11EE0B9F5881F25D006DC82
:10077000B9F5803F20D0B9F5801F37D11AE0B9F51F
:10078000001F18D0B9F5041F30D117E0D1F80CC004
:100790002DE0D1F80C8008F1040C28E0D1F80C8091
:1007A00008F1080C23E0D1F80C8008F10C0C1EE0D5
:1007B00000BF00BF00BF00BF00BF00BFD1F808806E
:1007C000B8F1000F02D14FF0040C0BE0D1F8088013
:1007D000B8F1010F03D14FF0080C146102E04FF0A3
:1007E000080C546103E04FF0000C00E000BF00BFB4
:1007F000FF2801D8904601E002F104084646FF2890
:1008000002D84FEA830803E0A3F108084FEA8808FA
:100810004746D6F800804FF00F0909FA07F928EA91
:1008200009080CFA07F900E07AE048EA0908C6F876
:100830000080D1F8048008F08058B8F1805F6FD153
:1008400000BFDFF8E481D8F8188048F00108DFF82D
:10085000D891C9F81880C846D8F8188008F001085F
:10086000CDF8008000BF00BF4FEAB9384FEA9309C6
:1008700058F829504FEA83784FEA18794FF00F085B
:1008800008FA09F825EA0805DFF8A081424502D1F7
:100890004FF0000824E0DFF89881424502D14FF084
:1008A00001081DE0DFF88C81424502D14FF00208BB
:1008B00016E0DFF88481424502D14FF003080FE0D3
:1008C000DFF87881424502D14FF0040808E0DFF8F4
:1008D0007081424502D14FF0050801E04FF0060853
:1008E0004FEA83794FEA197908FA09F848EA0505C9
:1008F000DFF850814FEA930948F82950D1F8048075
:1009000008F48038B8F5803F0BD1DFF83C81D8F887
:10091000008048EA0008DFF83091C9F800800AE05A
:1009200075E0DFF82481D8F8008028EA0008DFF8B5
:100930001891C9F80080D1F8048008F40038B8F59F
:10094000003F0ED1DFF8008108F10408D8F80080DC
:1009500048EA0008DFF8F09009F10409C9F80080BE
:100960000DE0DFF8E48008F10408D8F8008028EAF8
:100970000008DFF8D49009F10409C9F80080D1F823
:10098000048008F48018B8F5801F0ED1DFF8B88015
:1009900008F10808D8F8008048EA0008DFF8A890B5
:1009A00009F10809C9F800800DE0DFF89C8008F122
:1009B0000808D8F8008028EA0008DFF88C9009F1D0
:1009C0000809C9F80080D1F8048008F40018B8F5C7
:1009D000001F0ED1DFF8708008F10C08D8F80080F5
:1009E00048EA0008DFF8609009F10C09C9F80080B6
:1009F0000DE0DFF8548008F10C08D8F8008028EAF0
:100A00000008DFF8449009F10C09C9F800805B1C6C
:100A1000D1F8008028FA03F8B8F1000F7FF47CAE1B
:100A2000BDE8F887000011100010024000080140E6
:100A3000000C01400010014000140140001801406A
:100A4000001C014008000140000401400246936878
:100A50000B400BB1012000E00020704710B5C268C8
:100A600021EA020302EA010443EA0443036110BDE0
:100A70000AB1016101E00B0403617047014800689D
:100A8000704700009400002003480068034909787B
:100A90000844014908607047940000209C00002031
:100AA00010B50848006840F01000064908600320AF
:100AB00000F080F80F2000F007F800F02BF800207D
:100AC00010BD00000020024070B504460E480078BA
:100AD0004FF47A71B1FBF0F00C490968B1FBF0F505
:100AE000284600F017FC08B1012070BD102C07D279
:100AF00000222146501E00F01EF80548046001E067
:100B00000120F2E70020F0E79C0000200000002018
:100B100098000020704701460846002809DB00F0D5
:100B20001F0301229A4043099B0003F1E023C3F80D
:100B3000002100BF70472DE9F05F80460D46164644
:100B4000002700F0E7FF074639462A46334601F002
:100B50000700C0F1070ABAF1040F02D94FF0040AE6
:100B600001E0C0F1070AD14600F1040ABAF1070F0B
:100B700002D24FF0000A01E0A0F1030AD4464FF080
:100B8000010A0AFA09FAAAF1010A0AEA020A0AFAA9
:100B90000CFA4FF0010B0BFA0CFBABF1010B0BEA5B
:100BA000030B4AEA0B042146404600F0BBFFBDE8B8
:100BB000F09F000000BF00F00702064B19684FF6D7
:100BC000FF031940044B0B4343EA0221014B196018
:100BD00000BF70470CED00E00000FA0570B5044658
:100BE0000D460CB9012070BD5A48006800F007009E
:100BF000A8420ED25748006820F007002843554904
:100C000008600846006800F00700A84201D00120F3
:100C1000E9E7207800F0020002281DD1207800F0DA
:100C20000400042805D14C48406840F4E0604A497B
:100C30004860207800F00800082805D14648406840
:100C400040F46050444948604348406820F0F00058
:100C5000A168084340494860207800F0010078B35B
:100C60006068012806D13C48006800F4003090B963
:100C70000120B8E76068022806D13748006800F014
:100C8000007040B90120AEE73348006800F0020070
:100C900008B90120A7E73048406820F003006168E8
:100CA00008432D494860FFF7E9FE064609E0FFF7D3
:100CB000E5FE801B41F28831884202D9032092E789
:100CC00007E02548406800F00C006168B0EB810F38
:100CD000EDD12048006800F00700A8420ED91D4859
:100CE000006820F0070028431A4908600846006899
:100CF00000F00700A84201D0012074E7207800F03E
:100D00000400042807D11448406820F4E060E1683A
:100D1000084311494860207800F00800082808D1ED
:100D20000D48406820F46050216940EAC1000A493A
:100D3000486000F03FF808494968C1F30311074AC9
:100D4000515CC8400649086006480068FFF7BCFED1
:100D5000002048E700200240001002408E67000893
:100D60000000002098000020014800687047000043
:100D70000000002000B5FFF7F7FF04494968C1F300
:100D80000221034A515CC84000BD0000001002402F
:100D90009E67000800B5FFF7E7FF04494968C1F303
:100DA000C221034A515CC84000BD0000001002404F
:100DB0009E670008F0B585B00FF26C0C9CE8E0105F
:100DC00001A8A0E8E0101CA52D68009500210022D4
:100DD000002300240020194D696801F00C05F5B1CD
:100DE000042D02D0082D19D101E0154819E001ADFC
:100DF000C1F38346AC5D01F4803555B10F4D6D688C
:100E0000C5F340451DF805200D4D6543B5FBF2F3D4
:100E100002E00C4D04FB05F3184602E000BF084851
:100E200000BF00BF05B0F0BD0203040506070809B6
:100E30000A0B0C0D0E0F10100102000000100240F2
:100E400000127A0000093D00F8B504460CB90120F3
:100E5000F8BD207800F00100002878D0F8484068FC
:100E600000F00C0004280CD0F548406800F00C009D
:100E7000082811D1F248406800F48030B0F5803F76
:100E80000AD1EF48006800F4003000285FD06068A5
:100E900000285CD10120DBE700BF6068B0F5803F2F
:100EA00006D1E748006840F48030E549086028E052
:100EB000606858B9E248006820F48030E049086072
:100EC0000846006820F4802008601AE06068B0F5E9
:100ED000A02F0BD1DA48006840F48020D849086080
:100EE0000846006840F4803008600AE0D448006892
:100EF00020F48030D24908600846006820F4802041
:100F0000086000BF606888B1FFF7B8FD054606E0DD
:100F1000FFF7B4FD401B642801D9032098E7C848B7
:100F2000006800F400300028F2D010E0FFF7A6FDC2
:100F3000054606E0FFF7A2FD401B642801D9032007
:100F400086E7BF48006800F400300028F2D120781E
:100F500000F00200022857D1B948406800F00C00A8
:100F600050B1B748406800F00C00082818D1B448C8
:100F7000406800F4803098B9B148006800F0020081
:100F800020B12069012801D0012061E7AC48006848
:100F900020F0F800616940EAC100A949086033E027
:100FA0002069E8B10120A7490860FFF767FD054601
:100FB00006E0FFF763FD401B022801D9032047E745
:100FC0009F48006800F002000028F2D09C480068AA
:100FD00020F0F800616940EAC1009949086013E017
:100FE000002098490860FFF749FD054606E0FFF735
:100FF00045FD401B022801D9032029E790480068DD
:1010000000F002000028F2D1207800F00800082843
:101010002DD1A069B8B101208B490860FFF72EFDE2
:10102000054606E0FFF72AFD401B022801D90320F0
:101030000EE78348406A00F002000028F2D0012049
:1010400000F0B6FB13E000207F490860FFF716FDB3
:10105000054606E0FFF712FD401B022801D90320D8
:10106000F6E67748406A00F002000028F2D12078C6
:1010700000F00400042873D100277148C06900F013
:10108000805070B900BF6E48C06940F080506C4914
:10109000C8610846C06900F08050009000BF00BFE2
:1010A00001276A48006800F48070B0B9674800689A
:1010B00040F4807065490860FFF7E0FC054606E0F3
:1010C000FFF7DCFC401B642801D90320C0E65F4821
:1010D000006800F480700028F2D000BFE0680128AA
:1010E00006D15748006A40F001005549086227E0E0
:1010F000E06858B95248006A20F00100504908627F
:101100000846006A20F00400086219E0E06805283B
:101110000BD14B48006A40F0040049490862084678
:10112000006A40F0010008620AE04548006A20F0C9
:101130000100434908620846006A20F00400086282
:1011400000BFE068A0B1FFF799FC054609E0FFF792
:1011500095FC401B41F28831884202D9032077E692
:1011600022E03748006A00F002000028EFD012E0C9
:10117000FFF784FC054608E0FFF780FC401B41F2C6
:101180008831884201D9032062E62D48006A00F0C8
:1011900002000028F0D1012F05D12948C06920F0B4
:1011A00080502749C86100BFE069C8B3244840683F
:1011B00000F00C00082860D0E069022848D1002027
:1011C00020490866FFF75AFC054606E0FFF756FC83
:1011D000401B022801D903203AE61948006800F0B4
:1011E00000700028F2D1206AB0F5803F07D1144882
:1011F000406820F40030A168084311494860D4E9F0
:10120000080108430E49496821F4741108430C4948
:10121000486001200B490866FFF730FC054607E0EF
:101220003DE0FFF72BFC401B022801D903200FE60D
:101230000348006800F000700028F2D02FE00000A2
:101240000010024000004242800442420070004010
:10125000002014490866FFF711FC054606E0FFF779
:101260000DFC401B022801D90320F1E50E4800685F
:1012700000F000700028F2D111E0E069012800D1EF
:10128000E6E50948466806F48031206A814204D1C7
:1012900006F47011606A814201D00120D8E5002077
:1012A000D6E50000000042420010024070B504463E
:1012B0000E4615461CB1A069B0F5807F01D1012012
:1012C00070BD94F8410028B9002084F84000204601
:1012D00000F01FF804F108012068FFF7BBF8314661
:1012E000A2682068FFF7F2F82946236BD4E90102CF
:1012F000FFF78EF8A168206850F8210040F0010047
:10130000A268216841F82200012084F841000020F1
:10131000D6E7704770B504462546681EB0F1807F59
:1013200001D301200FE0681E4FF0E02148610F213A
:101330004FF0FF3000F0F6FB00204FF0E021886115
:1013400007200861002070BD704770472DE9F84FF5
:101350000446206805682068C668206847694FF021
:101360000009CA4605F00F09B9F1000F0AD105F0CE
:10137000200038B106F0200020B1204600F067FAC6
:10138000BDE8F88FB9F1000F71D007F0010018B96E
:1013900006F4907000286AD005F0010030B106F420
:1013A000807018B1206C40F00100206405F004004A
:1013B00030B107F0010018B1206C40F00200206449
:1013C00005F0020030B107F0010018B1206C40F0C8
:1013D0000400206405F0080048B106F0200010B9B0
:1013E00007F0010018B1206C40F008002064206C68
:1013F00068B305F0200028B106F0200010B12046A7
:1014000000F025FA20684069C0F3801A206C00F0D3
:10141000080010B9BAF1000F22D0204600F0ECF914
:101420002068406900F04000B0B12068406920F0B9
:10143000400021684861A06B50B15648A16B4863D9
:10144000A06BFFF78FF810B1A06B416B88470CE0E1
:101450002046FFF77AFF08E02046FFF776FF04E01A
:101460002046FFF772FF0020206489E7FFE7206B2A
:10147000012878D105F01000002874D006F0100083
:10148000002870D000BF0020009020680068009005
:1014900020684068009000BF00BF2068406900F0ED
:1014A0004000C0B3A06B006840681FFA80F8B8F134
:1014B000000F2FD0A08D40452CDDA4F82E80A06B0E
:1014C000806920281FD02068C06820F480702168BF
:1014D000C8602068406920F00100216848612068E8
:1014E000406920F0400021684861202084F83E00D7
:1014F000002020632068C06820F010002168C860C8
:10150000A06BFFF704F8A08DE28D801A81B220460F
:10151000FFF71AFF34E7FFE7A08DE18D401A1FFAAD
:1015200080F8E08DE8B1B8F1000F1AD02068C068EB
:1015300020F490702168C8602068406920F00100A4
:1015400021684861202084F83E0000202063206844
:10155000C06820F010002168C86041462046FFF7AF
:10156000F3FE0DE7FFE705F0800030B106F08000E4
:1015700018B1204600F07FFA02E705F0400030B1D4
:1015800006F0400018B1204600F051F9F8E600BF1F
:10159000F6E60000E517000810B504460CB9012076
:1015A00010BDA06900B100E000BF94F83D0028B96B
:1015B000002084F83C00204600F028F8242084F81D
:1015C0003D002068C06820F400502168C8602046B3
:1015D00000F0B0F92068006920F4904021680861AB
:1015E0002068406920F02A00216848612068C068AE
:1015F00040F400502168C86000202064202084F856
:101600003D0084F83E000020CAE7000010B586B017
:1016100004462849206888424AD100BF00BF2648B6
:10162000806940F00400244988610846806900F020
:101630000400019000BF00BF00BF00BF00BF08460C
:10164000806940F0040088610846806900F0040069
:10165000019000BF00BF00BF00BF00BF0846806907
:1016600040F4804088610846806900F48040019021
:1016700000BF00BF00BF4815029002200390012068
:1016800004900320059002A90C48FFF73FF84FF49F
:10169000806002900020039002A90848FFF736F806
:1016A0002520FFF738FA032211462520FFF743FAD9
:1016B00006B010BD00380140001002400008014093
:1016C00070B504460D46164694F83E00202816D103
:1016D00005B10EB9012070BD00BF94F83C0001288F
:1016E00001D10220F7E7012084F83C0000BF002070
:1016F000206332462946204600F09AF9EBE70220A3
:10170000E9E7000010B504462049206888423BD133
:101710001F48008800F4004088BB1D48008800F482
:10172000804070B11B4800780A2803D00020184977
:10173000088024E01648008840F4004014490880DE
:101740001DE0144800780D2806D11148008840F4A7
:1017500080400F49088012E00E4800780C49098843
:10176000C1F30D010C4A505409480088401C084937
:10177000088008460088C72801DD00200880012273
:1017800004490648FFF79CFF10BD000000380140E7
:101790009000002092000020AC0000207401002086
:1017A000704700BFFEE700BFFEE7704770470000CC
:1017B00008B508490968C9084FF47A72B1FBF2F11B
:1017C0004143009100BF00BF00994A1E00920029CA
:1017D000F9D108BD00000020704710B5FFF754F99B
:1017E00010BD704770B505466C6A0020E085E08446
:1017F0002046FFF7AAFD70BD0168C96821F4907109
:101800000268D1600168496921F0010102685161F3
:10181000016B012905D10168C96821F01001026836
:10182000D160202180F83E1000210163704710B57F
:1018300004462068C06820F040002168C86020206D
:1018400084F83D002046FFF7ABFF002010BDF8B53F
:10185000044694F83E00222869D1A068B0F5805F64
:101860000CD1206950B90025A66A20684068C0F3F1
:1018700008003080A06A801CA06215E0A56A0026DE
:10188000A068B0F5805F03D0A06828B9206918B9B6
:1018900020684068287004E02068406800F07F00FD
:1018A0002870A06A401CA062E08D401E80B2E085D6
:1018B000A8BB2068C06820F020002168C8602068AC
:1018C000C06820F480702168C8602068406920F0FA
:1018D000010021684861202084F83E00206B012827
:1018E0001ED1002020632068C06820F0100021680D
:1018F000C8602068006800F0100010280AD100BFFE
:1019000000200090206800680090206840680090E7
:1019100000BF00BFA18D2046FFF716FD03E004E0E5
:101920002046FFF7EFFE0020F8BD0020FCE7022074
:10193000FAE7000070B504462168096921F44051B6
:10194000E2681143226811612269A168114362694A
:1019500041EA02052168C96841F20C6291432943BA
:101960002268D1602168496921F44071A26911435C
:10197000226851612D4A2168914202D1FFF70AFA8B
:1019800001E0FFF7F7F900EBC00101EB001162681D
:101990009200B1FBF2F100EBC00202EB00126368AF
:1019A0009B00B2FBF3F26423B2FBF3F202EBC2033F
:1019B00003EB0212A1EB8201322202EB011164223D
:1019C000B1FBF2F101F0F00100EBC00202EB0012FA
:1019D00063689B00B2FBF3F26423B2FBF3F201EB0A
:1019E000021200EBC00101EB001163689B00B1FB28
:1019F000F3F100EBC00303EB00136668B600B3FB22
:101A0000F6F36426B3FBF6F303EBC30606EB03130E
:101A1000A1EB8301322303EB01116423B1FBF3F14A
:101A200001F00F0111442268916070BD003801403F
:101A300010B5034699629A85DA8500201864222041
:101A400083F83E0000BF002083F83C0000BF186808
:101A5000C06840F480701C68E0601868406940F01D
:101A600001001C6860611868C06840F020001C68B4
:101A7000E060002010BD014691F83D00212828D1EA
:101A80008868B0F5805F0BD1086948B90A6A108888
:101A9000C0F308000B685860086A801C086205E003
:101AA0000B6A581C086218780B685860C88C401E76
:101AB00080B2C88458B90868C06820F080000B68FC
:101AC000D8600868C06840F040000B68D86000200B
:101AD00070470220FCE7000010B50248FFF736FC13
:101AE00010BD00007401002000BFFEE7490050EA6D
:101AF000C12018BF04204A0D18BF40F0010040F279
:101B0000FF72B2EB515F08BF40F00200012808BF2E
:101B10000520704702480068C0F3022070470000AB
:101B20000CED00E010B5002804DB0A07130E054A8F
:101B3000135406E00A07140E034A00F00F031B1F9C
:101B4000D45410BD00E400E018ED00E02DE9F74F9B
:101B5000144694B00021C4E902111599079121F0AF
:101B60000045C9498D4206DC1599C4E9000117B04A
:101B70000020BDE8F08FC549DFF814A3A9423CDD81
:101B80000799C44E0029C44FC44A1599534619DD1C
:101B900004F0BEF9554506D0C14AC24B04F0B8F96D
:101BA000C4E900010AE04FF0D352BE4B04F0B0F993
:101BB00032463B4604F0ACF9C4E9000117B00120FD
:101BC000BDE8F08F03F0BAFD554506D0B44AB54BD9
:101BD00003F0B4FDC4E900010AE04FF0D352B14B69
:101BE00003F0ACFD32463B4603F0A8FDC4E900011A
:101BF00017B04FF0FF30BDE8F08FAB49A9421599FF
:101C000078DB21F0004183468846A84AA84B04F0BF
:101C10003FF80022A74B03F091FD03F0A3FF0990CA
:101C200003F0CFFF06460F469C4A534604F030F8B7
:101C300043465A4604F060F980468A46984A994BD2
:101C40003046394604F024F82A0D01250B9242460D
:101C5000534604F051F9032DC4E9000139D00B9823
:101C6000C1F30A51401A05EB45111139814230DAAE
:101C70009148C346784400EB0510CDF80CA00C90B9
:101C8000D0E900233046394604F002F802460B46FC
:101C9000049106905846039904F03AF980468A4622
:101CA00002460B465846039904F032F9049B069A03
:101CB00004F02EF983460C9803913946D0E90223AB
:101CC000304603F0E5FF5A46039B04F021F96D1CF2
:101CD000BDE707980028A2BF099817B0BDE8F08FAC
:101CE000616881F000416160099817B04042BDE829
:101CF000F08FFFE784461598C1F31301C0F30A5033
:101D0000A0F2F5304FEA601800F01F06C6F120007F
:101D1000139000200690079041F4801E05206D4628
:101D200076B1664A08EB00017A4452F8213002EBA2
:101D30008101B3404A68139922FA01F1194305E081
:101D40005F4908EB0002794451F82210A1FB0E27ED
:101D5000A1FB0C131A449A4234BF0123002303EB66
:101D6000070A05EB8003D3E901B70F448F4234BF64
:101D70000121002193448B4411B1934502D903E022
:101D8000934501D2012100E00021C3E901B751448C
:101D900045F82010011EA0F10100C1DC0298059F4A
:101DA00000F10050800F12900298DDE90356800088
:101DB00003F007FF834628460D9103F019FF6FF0EB
:101DC0001D0204F09EFCCDE90E01304603F010FF29
:101DD0006FF03D0204F095FC80468A46384603F0D9
:101DE00007FF6FF05D0204F08CFC07464246534645
:101DF000119103F0A3FCDDE90E2303F09FFC5A468A
:101E00000D9B03F09BFC00250E465A4628460D9B71
:101E100004F07EF8DDE90E2304F07AF842465346DA
:101E200004F076F83A46119B04F066F8DFF898A0C3
:101E3000244A534603F02CFF07468846234A244B86
:101E40003146284603F024FF3A46434603F076FC29
:101E5000074688464FF0A84253463146284603F0CD
:101E600017FF3A46434603F069FC159A12F0004FFB
:101E700004D0129A81F0004152421292C4E900014A
:101E8000129817B0BDE8F08FFB21E93F7CD90240E2
:101E9000FB21F93F7370032E8A19A33B00004054C5
:101EA0003163621A61B4D03DFB21394183C8C96DE9
:101EB000305FE43F0000E03FE87A0000647A000011
:101EC000467A0000182D4454FB21F93D3326A61113
:101ED000460B113C2DE9FF4D21F0004807460C460A
:101EE000B8F1795F08DA03F03DFE002801BF002059
:101EF000324904B0BDE8F08D3A46234610461946F3
:101F000003F0C6FE054602462D480E460B46062146
:101F1000784400F05DF82A46334603F0B9FEDDE967
:101F2000022382468B463846214603F0B1FE044622
:101F30000F4652465B462846314603F0A9FE22462C
:101F40003B4603F0E5FF07468A464FF0FF3228463E
:101F5000314604F0D6FB1B4A90450ADA3A4653460E
:101F600003F0D6FF04B00022BDE8F04D134B03F0A0
:101F7000C3BF154A4245A8BFA8F500154FF000049D
:101F8000B8BF124D22462B4603F0C2FF06468846D4
:101F900022462B460020094903F0BAFF04460D46AD
:101FA0003A4653463046414603F0B2FF04B022465B
:101FB0002B46BDE8F04D03F09FBF00000000F03F4E
:101FC0001C7800003333D33F0000E93F0000D23FCC
:101FD0002DE9F0414F1E00EBC7010446D1E9000195
:101FE00015461E4637F006020DD02A46334603F04A
:101FF0004FFE7F1E04EBC703D3E9002303F09EFBD3
:1020000037F00602F1D1022F25D0042F13D0062F6E
:1020100018BFBDE8F0812A46334603F039FED4E903
:102020000A2303F08BFB2A46334603F031FED4E942
:10203000082303F083FB2A46334603F029FED4E944
:10204000062303F07BFB2A46334603F021FED4E946
:10205000042303F073FB2A46334603F019FED4E948
:10206000022303F06BFB2A46334603F011FED4E94A
:102070000023BDE8F04103F061BB00002DE9FF4DF6
:10208000054621F0004084B00C46B0F1795F0BDAD0
:102090002846FFF72BFD042808BF00F06FF82846FC
:1020A00008B02146BDE8F08D2A460B46104603F0E5
:1020B000EFFD06460F462A46234603F0E9FD80461B
:1020C00026488A4632463B4605217844FFF780FF82
:1020D00083461098029160B3214A224B40465146F4
:1020E00003F0D6FDCDE900015A4640465146029B19
:1020F00003F0CEFD82468846DDE906014FF0FF324F
:1021000004F0FFFA5246434603F002FF32463B46D4
:1021100003F0BEFDDDE9062303F0FAFEDDE900234E
:1021200003F0F6FE08B02A462346BDE8F04D03F062
:10213000E3BE0B465A463046394603F0A9FD084A2D
:10214000084B03F0FBFA4246534603F0A1FD08B0EA
:102150002A462346BDE8F04D03F0F0BA5A77000056
:10216000495555555555C5BF012204F0CABA00223C
:1021700013461046114603F09DBB0000024A0020A2
:10218000110704F0BEBA000001FDFFFF00BF704759
:1021900010B500BF012220210248FEF769FC00BFF4
:1021A00010BD0000000C014038B5044640F2DF13BA
:1021B00040F23F1200210846009400F0B2F938BD09
:1021C00000B585B00020019002900390049000BFFC
:1021D00000BF1B48806940F0080019498861084623
:1021E000806900F00800009000BF00BF00BF00BF82
:1021F00000BF0846806940F0100088610846806989
:1022000000F01000009000BF00BF00BF022001904E
:1022100000200290012003900320049001A90948A6
:10222000FEF774FA20200190012002900390032011
:10223000049001A90448FEF769FA05B000BD00004A
:1022400000100240000C0140001001402DE9F04157
:1022500086B005460E460EB1052E03DD002006B001
:10226000BDE8F081002408E004EB440005EB4000E9
:1022700008B90020F3E7601CC4B2B442F4DB0122C9
:1022800005A948F24E1002F019FB9DF8140000F069
:10229000800080287ED19DF8140000F00F07BE4218
:1022A00001DA304600E03846074600247EE0474920
:1022B00031F81400062203A902F000FB9DF80C007F
:1022C0009DF80D1040EA0120ADF804009DF80E00C5
:1022D0009DF80F1040EA0120ADF806009DF81000AF
:1022E0009DF8111040EA0120ADF8080000F0E6FB6F
:1022F0008046B8F1000F09D0B8F1010F14D0B8F141
:10230000020F22D0B8F1030F46D132E0BDF804002D
:1023100004EB440125F81100BDF8060004EB44016C
:1023200005EB4101488037E0BDF8060004EB4401AD
:1023300025F8110000F0C8FBBDF80410401A04EBAA
:10234000440105EB4101488026E000F0C3FBBDF8E5
:102350000410401A04EB440125F8110000F0B4FB0E
:10236000BDF80610401A04EB440105EB410148801A
:1023700012E000F0AFFBBDF80610401A04EB440178
:1023800025F81100BDF8040004EB440105EB410100
:10239000488000E017E000BF00BFBDF8080004EB74
:1023A000440105EB41018880601CC4B2BC42FFF6C9
:1023B0007EAF00200590012205A948F24E1002F0E0
:1023C00095FB38464BE7002049E7000026970008B8
:1023D00010B5292000F034FB10BD2DE9F05F064652
:1023E0000F4691469B46C9F1000400254FEA49007B
:1023F000C0F1020800BF7A1991B2321B90B25A465E
:1024000000F07DF87A1991B2321990B25A4600F074
:1024100076F87A1B91B2321990B25A4600F06FF8F2
:102420007A1B91B2321B90B25A4600F068F8C2464D
:10243000AA450ADC6D1C012000EB45008044EC42FB
:1024400003D1A24501DC4FF0000AA24504DD641C63
:10245000012000EB44008044002CCCDDBDE8F09F5F
:102460002DE9FC5F04460D4616461F46B44201DACC
:10247000301B00E0A01B1FFA80F8BD4201DA781B78
:1024800000E0E81B1FFA80F9B44201DA012001E004
:102490004FF0FF300190BD4201DA012001E04FF022
:1024A000FF300090A8EB09000FFA80FA3946304659
:1024B0000C9A00F024F81CE0294620460C9A00F003
:1024C0001EF84FEA4A000FFA80FBC9F1000083456D
:1024D00006DDAAEB09000FFA80FA0198204484B2C5
:1024E000C34506DA0AEB08000FFA80FA0098284480
:1024F00085B2B442E0D1BD42DED1BDE8FC9F70B5EB
:1025000004460D4616462146204601F05BFC29464E
:10251000284601F0A1FC01F036FE304600F098FAA2
:1025200070BD2DE9F04707460C4615461E46DDF8FE
:1025300020A02946384601F045FC3146204601F0EE
:102540008BFC01F020FEA1460EE0B84606E05046A6
:1025500000F07EFA08F101001FFA80F8A845F6DDC8
:1025600009F101001FFA80F9B145EEDDBDE8F08701
:1025700000B593B000200F901090119012901C2184
:1025800008A8FDF751FE1C2101A8FDF74DFE00BF74
:1025900000BFFE48406940F48070FC49486108462D
:1025A000406900F48070009000BF00BF00BF00BF12
:1025B00000BF0846806940F0400088610846806995
:1025C00000F04000009000BF00BF00BF00BF00BF90
:1025D0000846806940F0200088610846806900F064
:1025E0002000009000BF00BF00BF00BF00BF084632
:1025F000806940F0200088610846806900F0200072
:10260000009000BF00BF00BF00BF00BF0846806948
:1026100040F0200088610846806900F020000090AA
:1026200000BF00BF00BF00BF00BF0846806940F088
:10263000200088610846806900F02000009000BFFB
:1026400000BF00BF00BF00BF0846806940F0200007
:1026500088610846806900F02000009000BF00BF3C
:1026600000BF00BF00BF0846806940F020008861BD
:102670000846806900F02000009000BF00BF00BF46
:1026800000BF00BF0846806940F02000886108460E
:10269000806900F02000009000BF00BF00BF00BFB5
:1026A00000BF0846806940F04000886108468069A4
:1026B00000F04000009000BF00BF00BF00BF00BF9F
:1026C0000846806940F0400088610846806900F053
:1026D0004000009000BF00BF00BF00BF00BF084621
:1026E000806940F0400088610846806900F0400041
:1026F000009000BF00BF00BF00BF00BF0846806958
:1027000040F0400088610846806900F04000009079
:1027100000BF00BF00BF00BF00BF0846806940F097
:10272000400088610846806900F04000009000BFCA
:1027300000BF00BF00BF00BF0846806940F04000F6
:1027400088610846806900F04000009000BF00BF2B
:1027500000BF00BF00BF0846806940F040008861AC
:102760000846806900F04000009000BF00BF00BF35
:1027700000BF00BF0846806940F0400088610846FD
:10278000806900F04000009000BF00BF00BF00BFA4
:1027900000BF0846806940F04000886108468069B3
:1027A00000F04000009000BF00BF00BF00BF00BFAE
:1027B0000846806940F0200088610846806900F082
:1027C0002000009000BF00BF00BF00BF00BF084650
:1027D000806940F0200088610846806900F0200090
:1027E000009000BF00BF00BF00BF00BF0846806967
:1027F00040F0200088610846806900F020000090C9
:1028000000BF00BF00BF08200F90022010900320DF
:1028100012900FA95E48FDF779FF80200F900220EB
:102820001090032012900FA95A48FDF76FFF102057
:102830000F9002201090032012900FA95548FDF729
:1028400065FF20200F9002201090032012900FA906
:102850005048FDF75BFF4FF480400F90022010902E
:10286000032012900FA94B48FDF750FF4FF4004092
:102870000F9002201090032012900FA94548FDF7F9
:1028800045FF01200F9002201090032012900FA905
:102890004048FDF73BFF02200F901090032012905C
:1028A0000FA93C48FDF732FF80200F9002201090C6
:1028B000032012900FA93648FDF728FF4FF48070CF
:1028C0000F9002201090032012900FA93048FDF7BE
:1028D0001DFF4FF400700F90022010900320129003
:1028E0000FA92B48FDF712FF4FF480600F900220D4
:1028F0001090032012900FA92548FDF707FF4FF411
:1029000000600F9002201090032012900FA9204821
:10291000FDF7FCFE4FF480500F9002201090032032
:1029200012900FA91A48FDF7F1FE4FF400500F90D6
:1029300002201090032012900FA91548FDF7E6FE23
:102940004FF480400F9002201090032012900FA9A6
:102950000F48FDF7DBFE4FF400400F90022010906F
:10296000032012900FA90A48FDF7D0FE4FF48070A3
:102970000F9002201090032012900FA90548FDF738
:10298000C5FE4FF400700F90022005E000100240D9
:1029900000180140001401401090032012900FA96C
:1029A0002048FDF7B3FE4FF480600F900220109096
:1029B000032012900FA91B48FDF7A8FE4FF02040FE
:1029C00019490860194848600620886000211648A7
:1029D000C16001611021416100218161C161016219
:1029E00041624FF4805181620021C1624FF4804105
:1029F0000163002141638163002008900F200A9049
:102A000000200B900E9003200190012003900020E5
:102A10000490079001AA08A90348FEF747FC13B0E9
:102A200000BD000000140140B8010020040100A016
:102A300000BF00BF01490888704700000000106017
:102A400001B5BDF800000149088008BDFEFF0F6018
:102A500001B5BDF800000149088008BD0000106004
:102A600010B5D420FFF7ECFFFFF7E2FF0446FFF7B5
:102A7000DFFF0446FFF7DCFF4FF6FF7101EA002499
:102A8000FFF7D6FFC0B2044345F21030844212D0A3
:102A9000D320FFF7D5FFFFF7CBFF0446FFF7C8FFB2
:102AA0000446FFF7C5FF4FF6FF7101EA0024FFF768
:102AB000BFFFC0B20443204610BD00000148C079EA
:102AC00070470000A0000020014880887047000087
:102AD000A00000200148408870470000A0000020AE
:102AE00000B585B00020019002900390049000BFD3
:102AF00000BF1148806940F008000F49886108460E
:102B0000806900F00800009000BF00BF00BF2020D7
:102B100001900120029003900320049001A907482E
:102B2000FDF7F4FD00BF002220210448FDF7A0FFBF
:102B300000BF05B000BD000000100240000C0140C5
:102B400010B5FFF7CDFFFFF713FDFFF789FF044630
:102B500045F21030844205D047F29670844201D08D
:102B6000012010BD0D4804804FF4A0700B4948802F
:102B70004FF4F070888000F015F8002001F036F96D
:102B80004FF6FF70FFF710FBFFF722FCFFF700FB8B
:102B900001F0E0FF024908700020E2E7A0000020F9
:102BA0009E00002010B5FE48008845F21031884292
:102BB00040F07B87ED20FFF743FF0120FFF748FF40
:102BC000FE20FFF745FFEE20FFF73AFFDE20FFF77C
:102BD0003FFF2120FFF73CFFF120FFF731FF0120ED
:102BE000FFF736FFDF20FFF72BFF1020FFF730FF46
:102BF000C420FFF725FF8F20FFF72AFFC620FFF72D
:102C00001FFF0020FFF724FFE220FFF721FFE22053
:102C1000FFF71EFFE220FFF71BFFBF20FFF710FFAB
:102C2000AA20FFF715FFB020FFF70AFF0D20FFF7DE
:102C30000FFF0020FFF70CFF0D20FFF709FF00201A
:102C4000FFF706FF1120FFF703FF0020FFF700FF4B
:102C50001920FFF7FDFE0020FFF7FAFE2120FFF705
:102C6000F7FE0020FFF7F4FE2D20FFF7F1FE002015
:102C7000FFF7EEFE3D20FFF7EBFE0020FFF7E8FE3A
:102C80005D20FFF7E5FE0020FFF7E2FE5D20FFF785
:102C9000DFFE0020FFF7DCFEB120FFF7D1FE802031
:102CA000FFF7D6FE0020FFF7D3FE8B20FFF7D0FE04
:102CB0000020FFF7CDFE9620FFF7CAFE0020FFF7A9
:102CC000C7FEB220FFF7BCFE0020FFF7C1FE0020C8
:102CD000FFF7BEFE0220FFF7BBFE0020FFF7B8FEA5
:102CE0000320FFF7B5FE0020FFF7B2FEB320FFF789
:102CF000A7FE0020FFF7ACFE0020FFF7A9FE002092
:102D0000FFF7A6FE0020FFF7A3FE0020FFF7A0FEBE
:102D10000020FFF79DFE0020FFF79AFE0020FFF73E
:102D200097FE0020FFF794FE0020FFF791FE0020A1
:102D3000FFF78EFE0020FFF78BFE0020FFF788FED6
:102D40000020FFF785FE0020FFF782FE0020FFF73E
:102D50007FFE0020FFF77CFE0020FFF779FE0020B9
:102D6000FFF776FE0020FFF773FE0020FFF770FEEE
:102D70000020FFF76DFE0020FFF76AFE0020FFF73E
:102D800067FEB420FFF75CFE8B20FFF761FE00209A
:102D9000FFF75EFE9620FFF75BFE0020FFF758FE70
:102DA000A120FFF755FE0020FFF752FEB520FFF7E8
:102DB00047FE0220FFF74CFE0020FFF749FE0320EC
:102DC000FFF746FE0020FFF743FE0420FFF740FE1A
:102DD0000020FFF73DFEB620FFF732FE0020FFF790
:102DE00037FE0020FFF734FEB720FFF729FE002052
:102DF000FFF72EFE0020FFF72BFE3F20FFF728FEF7
:102E00000020FFF725FE5E20FFF722FE0020FFF7DF
:102E10001FFE6420FFF71CFE0020FFF719FE8C2028
:102E2000FFF716FE0020FFF713FEAC20FFF710FEA1
:102E30000020FFF70DFEDC20FFF70AFE0020FFF761
:102E400007FE7020FFF704FE0020FFF701FE902030
:102E5000FFF7FEFD0020FFF7FBFDEB20FFF7F8FD7D
:102E60000020FFF7F5FDDC20FFF7F2FD0020FFF763
:102E7000EFFDB820FFF7E4FD0020FFF7E9FD00209B
:102E8000FFF7E6FD0020FFF7E3FD0020FFF7E0FD80
:102E90000020FFF7DDFD0020FFF7DAFD0020FFF73F
:102EA000D7FD0020FFF7D4FDBA20FFF7C9FD24208D
:102EB000FFF7CEFD0020FFF7CBFD0020FFF7C8FD98
:102EC0000020FFF7C5FDC120FFF7BAFD2020FFF766
:102ED000BFFD0020FFF7BCFD5420FFF7B9FD002027
:102EE000FFF7B6FDFF20FFF7B3FD0020FFF7B0FDB1
:102EF000C220FFF7A5FD0A20FFF7AAFD0020FFF77B
:102F0000A7FD0420FFF7A4FD0020FFF7A1FDC320CB
:102F1000FFF796FD3C20FFF79BFD0020FFF798FD93
:102F20003A20FFF795FD0020FFF792FD3920FFF7CB
:102F30008FFD0020FFF78CFD3720FFF789FD002073
:102F4000FFF786FD3C20FFF783FD0020FFF780FDA3
:102F50003620FFF77DFD0020FFF77AFD3220FFF7D6
:102F600077FD0020FFF774FD2F20FFF771FD002093
:102F7000FFF76EFD2C20FFF76BFD0020FFF768FDCB
:102F80002920FFF765FD0020FFF762FD2620FFF7EF
:102F90005FFD0020FFF75CFD2420FFF759FD01E0F5
:102FA000A00000200020FFF753FD2420FFF750FD74
:102FB0000020FFF74DFD2320FFF74AFD0020FFF71B
:102FC00047FD3C20FFF744FD0020FFF741FD362080
:102FD000FFF73EFD0020FFF73BFD3220FFF738FDF5
:102FE0000020FFF735FD2F20FFF732FD0020FFF70F
:102FF0002FFD2C20FFF72CFD0020FFF729FD2920B5
:10300000FFF726FD0020FFF723FD2620FFF720FD18
:103010000020FFF71DFD2420FFF71AFD0020FFF719
:1030200017FD2420FFF714FD0020FFF711FD2320DA
:10303000FFF70EFD0020FFF70BFDC420FFF700FD9A
:103040006220FFF705FD0020FFF702FD0520FFF7D6
:10305000FFFC0020FFF7FCFC8420FFF7F9FC0020B8
:10306000FFF7F6FCF020FFF7F3FC0020FFF7F0FC81
:103070001820FFF7EDFC0020FFF7EAFCA420FFF783
:10308000E7FC0020FFF7E4FC1820FFF7E1FC00203C
:10309000FFF7DEFC5020FFF7DBFC0020FFF7D8FC39
:1030A0000C20FFF7D5FC0020FFF7D2FC1720FFF71C
:1030B000CFFC0020FFF7CCFC9520FFF7C9FC0020D7
:1030C000FFF7C6FCF320FFF7C3FC0020FFF7C0FCAE
:1030D000E620FFF7BDFC0020FFF7BAFCC520FFF794
:1030E000AFFC3220FFF7B4FC0020FFF7B1FC442016
:1030F000FFF7AEFC0020FFF7ABFC6520FFF7A8FC54
:103100000020FFF7A5FC7620FFF7A2FC0020FFF7C8
:103110009FFC8820FFF79CFC0020FFF799FCC6204D
:10312000FFF78EFC2020FFF793FC0020FFF790FCB8
:103130001720FFF78DFC0020FFF78AFC0120FFF726
:1031400087FC0020FFF784FCC720FFF779FC0020F4
:10315000FFF77EFC0020FFF77BFC0020FFF778FCE8
:103160000020FFF775FCC820FFF76AFC0020FFF77E
:103170006FFC0020FFF76CFC0020FFF769FC0020CB
:10318000FFF766FCC920FFF75BFC0020FFF760FC3F
:103190000020FFF75DFC0020FFF75AFC0020FFF73E
:1031A00057FC0020FFF754FC0020FFF751FC0020E3
:1031B000FFF74EFC0020FFF74BFC0020FFF748FC18
:1031C0000020FFF745FC0020FFF742FC0020FFF73E
:1031D0003FFC0020FFF73CFC0020FFF739FC0020FB
:1031E000FFF736FC0020FFF733FCE020FFF728FC58
:1031F0001620FFF72DFC0020FFF72AFC1C20FFF70C
:1032000027FC0020FFF724FC2120FFF721FC0020F1
:10321000FFF71EFC3620FFF71BFC0020FFF718FC11
:103220004620FFF715FC0020FFF712FC5220FFF7A5
:103230000FFC0020FFF70CFC6420FFF709FC0020C6
:10324000FFF706FC7A20FFF703FC0020FFF700FCE5
:103250008B20FFF7FDFB0020FFF7FAFB9920FFF71B
:10326000F7FB0020FFF7F4FBA820FFF7F1FB00209D
:10327000FFF7EEFBB920FFF7EBFB0020FFF7E8FBC1
:10328000C420FFF7E5FB0020FFF7E2FBCA20FFF7B1
:10329000DFFB0020FFF7DCFBD220FFF7D9FB00208B
:1032A000FFF7D6FBD920FFF7D3FB0020FFF7D0FBB9
:1032B000E020FFF7CDFB0020FFF7CAFBF320FFF76C
:1032C000C7FB0020FFF7C4FBE120FFF7B9FB162086
:1032D000FFF7BEFB0020FFF7BBFB1C20FFF7B8FB8E
:1032E0000020FFF7B5FB2220FFF7B2FB0020FFF71D
:1032F000AFFB3620FFF7ACFB0020FFF7A9FB452012
:10330000FFF7A6FB0020FFF7A3FB5220FFF7A0FB6F
:103310000020FFF79DFB6420FFF79AFB0020FFF7DA
:1033200097FB7A20FFF794FB0020FFF791FB8B209F
:10333000FFF78EFB0020FFF78BFB9920FFF788FB40
:103340000020FFF785FBA820FFF782FB0020FFF796
:103350007FFBB920FFF77CFB0020FFF779FBC4203F
:10336000FFF776FB0020FFF773FBCA20FFF770FB27
:103370000020FFF76DFBD220FFF76AFB0020FFF76C
:1033800067FBD820FFF764FB0020FFF761FBE0201C
:10339000FFF75EFB0020FFF75BFBF320FFF758FB16
:1033A0000020FFF755FBE220FFF74AFB0520FFF75F
:1033B0004FFB0020FFF74CFB0B20FFF749FB0020E1
:1033C000FFF746FB1B20FFF743FB0020FFF740FB06
:1033D0003420FFF73DFB0020FFF73AFB4420FFF7C6
:1033E00037FB0020FFF734FB4F20FFF731FB0020B5
:1033F000FFF72EFB6120FFF72BFB0020FFF728FBD8
:103400007920FFF725FB0020FFF722FB8820FFF73C
:103410001FFB0020FFF71CFB9720FFF719FB002084
:10342000FFF716FBA620FFF713FB0020FFF710FBAA
:10343000B720FFF70DFB0020FFF70AFBC220FFF7C4
:1034400007FB0020FFF704FBC720FFF701FB00206C
:10345000FFF7FEFAD120FFF7FBFA0020FFF7F8FA9A
:10346000D620FFF7F5FA0020FFF7F2FADD20FFF78C
:10347000EFFA0020FFF7ECFAF320FFF7E9FA00205B
:10348000FFF7E6FAE320FFF7DBFA0520FFF7E0FAA3
:103490000020FFF7DDFA0A20FFF7DAFA0020FFF735
:1034A000D7FA1C20FFF7D4FA0020FFF7D1FA332017
:1034B000FFF7CEFA0020FFF7CBFA4420FFF7C8FA57
:1034C0000020FFF7C5FA5020FFF7C2FA0020FFF7EF
:1034D000BFFA6220FFF7BCFA0020FFF7B9FA7820A4
:1034E000FFF7B6FA0020FFF7B3FA8820FFF7B0FA2B
:1034F0000020FFF7ADFA9720FFF7AAFA0020FFF7A8
:10350000A7FAA620FFF7A4FA0020FFF7A1FAB72038
:10351000FFF79EFA0020FFF79BFAC220FFF798FA08
:103520000020FFF795FAC720FFF792FA0020FFF777
:103530008FFAD120FFF78CFA0020FFF789FAD52007
:10354000FFF786FA0020FFF783FADD20FFF780FA05
:103550000020FFF77DFAF320FFF77AFA0020FFF74B
:1035600077FAE420FFF76CFA0120FFF771FA0020E8
:10357000FFF76EFA0120FFF76BFA0020FFF768FAF9
:103580000220FFF765FA0020FFF762FA2A20FFF712
:103590005FFA0020FFF75CFA3C20FFF759FA0020A1
:1035A000FFF756FA4B20FFF753FA0020FFF750FAC7
:1035B0005D20FFF74DFA0020FFF74AFA7420FFF76D
:1035C00047FA0020FFF744FA8420FFF741FA002071
:1035D000FFF73EFA9320FFF73BFA0020FFF738FA97
:1035E000A220FFF735FA0020FFF732FAB320FFF7E9
:1035F0002FFA0020FFF72CFABE20FFF729FA00204F
:10360000FFF726FAC420FFF723FA0020FFF720FA7D
:10361000CD20FFF71DFA0020FFF71AFAD320FFF79D
:1036200017FA0020FFF714FADD20FFF711FA002047
:10363000FFF70EFAF320FFF70BFA0020FFF708FA66
:10364000E520FFF7FDF90020FFF702FA0020FFF761
:10365000FFF90020FFF7FCF90020FFF7F9F902203D
:10366000FFF7F6F90020FFF7F3F92920FFF7F0F94B
:103670000020FFF7EDF93C20FFF7EAF90020FFF703
:10368000E7F94B20FFF7E4F90020FFF7E1F95D20AF
:10369000FFF7DEF90020FFF7DBF97420FFF7D8F918
:1036A0000020FFF7D5F98420FFF7D2F90020FFF7BB
:1036B000CFF99320FFF7CCF90020FFF7C9F9A2203A
:1036C000FFF7C6F90020FFF7C3F9B320FFF7C0F9F1
:1036D0000020FFF7BDF9BE20FFF7BAF90020FFF781
:1036E000B7F9C420FFF7B4F90020FFF7B1F9CD20F6
:1036F000FFF7AEF90020FFF7ABF9D320FFF7A8F9E9
:103700000020FFF7A5F9DC20FFF7A2F90020FFF762
:103710009FF9F320FFF79CF90020FFF799F9E620C5
:10372000FFF78EF91120FFF793F90020FFF790F9CA
:103730003420FFF78DF90020FFF78AF95620FFF7B4
:1037400087F90020FFF784F97620FFF781F9002040
:10375000FFF77EF97720FFF77BF90020FFF778F974
:103760006620FFF775F90020FFF772F98820FFF750
:103770006FF90020FFF76CF99920FFF769F9002035
:10378000FFF766F9BB20FFF763F90020FFF760F948
:103790009920FFF75DF90020FFF75AF96620FFF73F
:1037A00057F90020FFF754F95520FFF751F9002091
:1037B000FFF74EF95520FFF74BF90020FFF748F9C6
:1037C0004520FFF745F90020FFF742F94320FFF7B6
:1037D0003FF90020FFF73CF94420FFF739F90020BA
:1037E000FFF736F9E720FFF72BF93220FFF730F922
:1037F0000020FFF72DF95520FFF72AF90020FFF7E9
:1038000027F97620FFF724F90020FFF721F9662039
:10381000FFF71EF90020FFF71BF96720FFF718F9E3
:103820000020FFF715F96720FFF712F90020FFF7D6
:103830000FF98720FFF70CF90020FFF709F999200D
:10384000FFF706F90020FFF703F9BB20FFF700F9A7
:103850000020FFF7FDF89920FFF7FAF80020FFF7A6
:10386000F7F87720FFF7F4F80020FFF7F1F844208D
:10387000FFF7EEF80020FFF7EBF85620FFF7E8F827
:103880000020FFF7E5F82320FFF7E2F80020FFF71C
:10389000DFF83320FFF7DCF80020FFF7D9F84520E8
:1038A000FFF7D6F80020FFF7D3F8E820FFF7C8F8B5
:1038B0000020FFF7CDF80020FFF7CAF89920FFF7A6
:1038C000C7F80020FFF7C4F88720FFF7C1F80020F1
:1038D000FFF7BEF88820FFF7BBF80020FFF7B8F825
:1038E0007720FFF7B5F80020FFF7B2F86620FFF762
:1038F000AFF80020FFF7ACF88820FFF7A9F8002008
:10390000FFF7A6F8AA20FFF7A3F80020FFF7A0F81A
:10391000BB20FFF79DF80020FFF79AF89920FFF7EA
:1039200097F80020FFF794F86620FFF791F8002041
:10393000FFF78EF85520FFF78BF80020FFF788F887
:103940005520FFF785F80020FFF782F84420FFF7A5
:103950007FF80020FFF77CF84420FFF779F800207B
:10396000FFF776F85520FFF773F80020FFF770F89F
:10397000E920FFF765F8AA20FFF76AF80020FFF7B3
:1039800067F80020FFF764F80020FFF761F80020D7
:10399000FFF756F8AA20FFF75BF8CF20FFF750F8A3
:1039A0000020FFF755F80020FFF752F80020FFF73E
:1039B0004FF80020FFF74CF80020FFF749F80020EF
:1039C000FFF746F80020FFF743F80020FFF740F824
:1039D0000020FFF73DF80020FFF73AF80020FFF73E
:1039E00037F80020FFF734F80020FFF731F8002007
:1039F000FFF72EF80020FFF72BF80020FFF728F83C
:103A00000020FFF725F8F020FFF71AF80020FFF755
:103A10001FF85020FFF71CF80020FFF719F80020CE
:103A2000FFF716F80020FFF713F8F320FFF708F868
:103A30000020FFF70DF8F920FFF702F80620FFF746
:103A400007F81020FFF704F82920FFF701F80020FD
:103A5000FEF7FEFF3A20FEF7F3FF5520FEF7F8FFD2
:103A60001120FEF7EDFF642001F032FA2920FEF765
:103A7000E7FF3520FEF7E4FF0020FEF7E9FF5120C5
:103A8000FEF7DEFFFF20FEF7E3FF5320FEF7D8FF2F
:103A90002C20FEF7DDFF5520FEF7D2FF8220FEF737
:103AA000D7FF2C20FEF7CCFFE6E07448008847F2F1
:103AB00096718842F8D11120FEF7C2FF782001F0FC
:103AC00007FA3620FEF7BCFF4820FEF7C1FF3A2078
:103AD000FEF7B6FF5520FEF7BBFFF020FEF7B0FF64
:103AE000C320FEF7B5FFF020FEF7AAFF9620FEF7F1
:103AF000AFFFB420FEF7A4FF0120FEF7A9FFB62018
:103B0000FEF79EFF0A20FEF7A3FFA220FEF7A0FF0C
:103B1000B720FEF795FFC620FEF79AFFB920FEF703
:103B20008FFF0220FEF794FFE020FEF791FFC020F8
:103B3000FEF786FF8020FEF78BFF1620FEF788FF3A
:103B4000C120FEF77DFF1920FEF782FFC220FEF79D
:103B500077FFA720FEF77CFFC520FEF771FF162038
:103B6000FEF776FFE820FEF76BFF4020FEF770FFC0
:103B70008A20FEF76DFF0020FEF76AFF0020FEF7A7
:103B800067FF2920FEF764FF1920FEF761FFA520DB
:103B9000FEF75EFF3320FEF75BFFE020FEF750FFED
:103BA000F020FEF755FF0720FEF752FF0D20FEF72D
:103BB0004FFF0420FEF74CFF0520FEF749FF1420BD
:103BC000FEF746FF3620FEF743FF5420FEF740FF86
:103BD0004C20FEF73DFF3820FEF73AFF1320FEF79A
:103BE00037FF1420FEF734FF2E20FEF731FF34207C
:103BF000FEF72EFFE120FEF723FFF020FEF728FF5F
:103C00001020FEF725FF1420FEF722FF0E20FEF7FE
:103C10001FFF0C20FEF71CFF0820FEF719FF3520C0
:103C2000FEF716FF4420FEF713FF4C20FEF710FFAF
:103C30002620FEF70DFF1020FEF70AFF1220FEF7E8
:103C400007FF2C20FEF704FF3220FEF701FFF020D3
:103C5000FEF7F6FE3C20FEF7FBFEF020FEF7F0FE3E
:103C60006920FEF7F5FE782001F032F92120FEF7F9
:103C7000E7FE2920FEF7E4FE10BD0000A0000020B2
:103C800000B585B00020019002900390049000BF21
:103C900000BF0E48806940F008000C498861084662
:103CA000806900F00800009000BF00BF00BF022044
:103CB000019000200290012003900320049001A9AC
:103CC0000348FCF723FD05B000BD000000100240D2
:103CD000000C01402DE9FC5F06460F4602213548E5
:103CE000FCF7B4FE002862D1D02000F0AEFC814683
:103CF000902000F0AAFC82462F490989A9EB010116
:103D000008B202F05FFB00902B480168009802F0B7
:103D100077FA8346294902F011FA019002F032FB4A
:103D200084B225494989AAEB010108B202F04AFB95
:103D3000009021484168009802F062FA2049019001
:103D400002F0FCF9834602F01DFB85B2B4F5A07FBA
:103D500002DAB5F5F07F02DB0120BDE8FC9FFEF73B
:103D6000ADFE8046B8F1000006D0012807D0022839
:103D70000BD0032818D111E034803D8014E0358049
:103D8000FEF7A2FE001B38800EE0FEF7A3FE001B2C
:103D90003080FEF799FE401B388005E0FEF79AFE62
:103DA000401B30803C8000BF00BF0020D5E70220D0
:103DB000D3E70000000C0140000200200000204377
:103DC0000000704370B504460D462A20FEF738FE09
:103DD000200AFEF73DFEE0B2FEF73AFE280AFEF7A3
:103DE00037FEE8B2FEF734FE70BD000010B50446A1
:103DF00034B1012C0CD0022C12D0032C20D117E0AE
:103E00004FF4A070134948804FF4F070888019E097
:103E10004FF4F0700F4948804FF4A070888011E093
:103E20004FF4A0700B4948804FF4F070888009E08F
:103E30004FF4F070074948804FF4A070888001E08B
:103E4000022010BD00BF0348C471002000F018F824
:103E50000020F6E7A000002070B504460D462B2098
:103E6000FEF7EEFD200AFEF7F3FDE0B2FEF7F0FDEF
:103E7000280AFEF7EDFDE8B2FEF7EAFD70BD00008E
:103E80007CB505464A48C07930B1012806D00228E1
:103E900024D0032862D141E02C4661E005F01F00E8
:103EA000C0B96811082815D2DFE800F0040C080E2C
:103EB00006100A1260240FE020240DE0E0240BE03D
:103EC000A02409E0402407E0C02405E0002403E02A
:103ED000802401E002207CBD00BF41E005F01F000E
:103EE000C0B96811082815D2DFE800F0040C080EEC
:103EF00006100A12C0240FE040240DE080240BE0DD
:103F0000002409E0E02407E0A02405E0602403E0A9
:103F1000202401E00220DEE700BF21E005F01F00C1
:103F2000C0B96811082815D2DFE800F0040C080EAB
:103F300006100A12A0240FE0E0240DE020240BE07C
:103F4000602409E0802407E0002405E0C02403E0A9
:103F5000402401E00220BEE700BF01E00120BAE7F3
:103F600000BF13498C710846008847F29671884259
:103F700001D144F00804362000900194BDF80000FF
:103F80000C490880BDF80400891C088000BF08485F
:103F90004088401E81B20020FFF714FF044880884B
:103FA000401E81B20020FFF757FF002093E700007A
:103FB000A0000020FEFF0F602DE9FF4F85B0824674
:103FC0008B460020029001900798203800F0FF08EF
:103FD000089830B101280DD0022812D0032820D132
:103FE00018E008EB4800324901EB800506260C2456
:103FF0000C2719E02F4800EB08150826102410277D
:1040000012E008EBC8002C4901EB80050C261824AF
:10401000242709E0294800EB881510262024402792
:1040200002E009B0BDE8F08F00BF0AEB0600B0F572
:10403000A07F04DC0BEB0400B0F5F07F00DDF0E7BF
:104040004FF0000930E015F80900049000200390BB
:1040500022E0049800F0800040B1019A5A4491B2E5
:10406000029A524490B2129AFEF749FA0198401C03
:10407000C0B201900198A04206D1002001900298A0
:10408000401CC0B202900AE004984006000E049062
:104090000398401CC0B2039003980828D9DB00BFE6
:1040A00009F1010000F0FF09B945CCDB00BFB8E71A
:1040B000A66700081A6C00080A720008667F0008EC
:1040C0002DE9FF5F04460D4692469B46DDF8388099
:1040D0000F9830B1012807D0022808D003280CD14E
:1040E00008E006260C270AE00826102707E00C2621
:1040F000182704E01026202701E0BDE8FF9F00BF3D
:10410000A146039504EB0A00401CB0F5A07F02DD38
:104110004FF4A07002E004EB0A00401C80B2029051
:1041200005EB0B00401CB0F5F07F02DD4FF4F070A2
:1041300002E005EB0B00401C80B2019019E0A119D0
:104140000298814202DB4C46E81985B2E9190198D0
:10415000814201DB4D46039C1098009098F80020A6
:10416000294620460F9BFFF727FFA01984B208F1CC
:10417000010898F80000202803DB98F800007E284A
:10418000DDDD00BFB9E710B52C20FEF759FC10BDEE
:104190002DE9F04F8FB04FF6FF70FEF705F84FF4A2
:1041A00078400121E24A4FF4C873CDE90021029022
:1041B000F02228210846FFF783FFB7E1002009908D
:1041C000B0E10998062817D2DFE800F00317283E6F
:1041D0005976FEF779FC40100890FEF77BFC401002
:1041E0004FF6FF720790089900F0BAF94FF4784241
:1041F0001421084600F0B4F96FE14FF6FF72142164
:10420000084600F0ADF9FEF765FC143880B24FF4B3
:1042100078421421089000F0A3F95EE1FEF75AFC01
:10422000143880B24FF6FF721421089000F098F90C
:10423000FEF74AFC143880B24FF4784201460890E9
:10424000142000F08DF948E1FEF73EFC143880B2EE
:104250004FF6FF7201460890142000F081F9FEF736
:1042600033FC143880B20890FEF734FC143880B266
:104270004FF478420790089900F072F92DE1FEF7AB
:1042800023FC143880B20890FEF724FC143880B266
:104290004FF6FF720790089900F062F9FEF714FCE0
:1042A00040100890FEF716FC40104FF4784207903B
:1042B000089900F055F910E1BDF82C00BDF8281060
:1042C000401A0FFA80F8BDF83400BDF83010401ADB
:1042D0000FFA80FABDF83610BDF82E00081A0FFA52
:1042E00080F9BDF83200BDF82A10401A0FFA80FBA1
:1042F000504601F066FCCDE90601404601F061FC44
:10430000CDE90401DDE9062301F0D4FA04460D46A7
:10431000584601F056FCCDE90601484601F051FC33
:10432000CDE90401DDE9062301F0C4FA06460F4693
:10433000002213462046294601F06EFC01D285F08A
:104340000045002213463046394601F065FC01D293
:1043500087F000474FF06632764B2046294601F041
:104360005BFC6DD3744A754B2046294601F08EFDE7
:1043700066D34FF066326F4B3046394601F04CFC45
:104380005ED36D4A6D4B3046394601F07FFD57D301
:10439000CDF80480B8F1000F01DB019801E001982D
:1043A0004042B0F5805F4BDACDF80890B9F1000FCC
:1043B00001DB029801E002984042B0F5805F3FDAED
:1043C000CDF80CA0BAF1000F01DB039801E00398CF
:1043D0004042B0F5805F33DACDF810B0BBF1000F8A
:1043E00001DB049801E004984042B0F5805F27DAD1
:1043F000CDF81480B8F1000F01DB059801E00598B5
:104400004042E8B1CDF81890B9F1000F01DB0698F1
:1044100001E00698404298B1CDF81CA0BAF1000F17
:1044200001DB079801E00798404248B1CDF820B081
:10443000BBF1000F01DB089801E00898404200B989
:104440004BE0FEF747FB28384000069001F0BAFF2A
:10445000089008EB0A0001F0B5FF0790089901F0F9
:10446000CFFE37490860FEF72FFB28384000069042
:1044700001F0A8FF089009EB0B0001F0A3FF0790E3
:10448000089901F0BDFE2E494860BDF8380008814A
:10449000BDF83A102A4841814FF6FF70FDF784FEBF
:1044A000FEF712FB0890FEF715FB07901F20012175
:1044B00024A2CDE90021029064214420DDE90723F4
:1044C000FFF7FEFD4FF47A7000F002FD4FF6FF702B
:1044D000FDF76AFE0FB0BDE8F08F00BFC82000F006
:1044E000F7FC00BF02211D48FCF7B0FA0028F9D103
:1044F000D02000F0AAF80AAA099922F821009020F9
:1045000000F0A3F80AAA099902EB8101488000BFD4
:1045100002211248FCF79AFA0028F9D00998401CA9
:10452000C0B2099009980628FFF64BAE46E6000097
:10453000509800086666EE3FCDCCCCCCCCCCF03F9A
:1045400000020020546F7563682053637265656EC6
:104550002041646A757374204F4B2100000C0140A8
:10456000F8B504460D46164604F10D018AB2193914
:1045700088B22B4629460096FDF772FF05F10D0023
:1045800083B2193881B2224620460096FDF768FFB3
:104590006A1C91B2621C90B23246FDF7B0FF6A1CF1
:1045A00091B2621E90B23246FDF7A9FF6A1E91B227
:1045B000621C90B23246FDF7A2FF6A1E91B2621EE3
:1045C00090B23246FDF79BFF33460622294620462D
:1045D000FDF703FFF8BD2DE9FE43804600270024C8
:1045E00006E0404600F06EFB2DF81400601CC4B2DB
:1045F000052CF6DB002416E0601CC5B20FE03DF888
:1046000014003DF81510884207DD3DF814603DF8B0
:1046100015002DF814002DF81560681CC5B2052D85
:10462000EDDB601CC4B2042CE6DB012405E03DF8A0
:104630001400384487B2601CC4B2042CF7DB03209A
:1046400097FBF0F080B2BDE8FE832DE9F04106460D
:1046500000BF3046FFF7BFFF05463046FFF7BBFF00
:104660000446A54202DD281B87B201E0601B87B229
:10467000322FEEDC28194010BDE8F08110B5044659
:104680000422214648F2401000F018F90020207161
:1046900010BD00001FB5044600200090019002905C
:1046A00003900220009001200190029003200390CB
:1046B00069462A48FCF72AF8142C02D05D2C3FD119
:1046C00022E000BF002220212548FCF7D1F900BFDD
:1046D00000BF002202212148FCF7CAF900BF00BF39
:1046E000012202211D48FCF7C3F900BF012000F0A0
:1046F000EFFB00BF012220211948FCF7B9F900BFE8
:104700000A2000F0E5FB1CE000BF00222021144835
:10471000FCF7AEF900BF00BF002202210F48FCF7F2
:10472000A7F900BF012000F0D3FB00BF0122202128
:104730000B48FCF79DF900BF0A2000F0C9FB00E020
:1047400000BF00BF022000900020019002900320D3
:10475000039069460148FBF7D9FF1FBD000C0140DB
:104760000010014010B500BF002208211048FCF7DE
:104770007FF900BF00F01EF800BF012211460C486F
:10478000FCF776F900BF00F015F800BF0022012108
:104790000748FCF76DF900BF00F00CF800BF0122DC
:1047A00008210348FCF764F900BF00F003F810BDCE
:1047B000000C014010B5022000F094FB10BD000079
:1047C00010B586B004460020029003900490059036
:1047D00000BF00BF2548806940F008002349886178
:1047E0000846806900F00800019000BF00BF00BFCC
:1047F00000BF00BF0846806940F008008861084695
:10480000806900F00800019000BF00BF00BF0846AB
:10481000806940F0010088610846806900F001006D
:10482000019000BF00BF00BF1149486820F0E06060
:1048300040F00070486000BF00BF0120029003906C
:1048400004900320059002A90A48FBF75FFF0820A7
:1048500002901120039002A90648FBF757FF00F0D1
:10486000F3F80548047006B010BD000000100240C7
:1048700000000140000C0140A800002010B500BF5E
:10488000012208210C48FCF7F3F800BFFFF792FF64
:1048900000BF012211460848FCF7EAF800BFFFF705
:1048A00089FF00BF002201210348FCF7E1F800BFA7
:1048B000FFF780FF10BD0000000C01402DE9F04122
:1048C00005460E46174600F099F819490978002266
:1048D00042EA4101C8B200F05BF800F0D5F8280ABE
:1048E00000F056F800F0D0F8E8B200F051F800F00F
:1048F000CBF800F083F80E490978012202EB410160
:10490000C8B200F045F800F0BFF8002405E001202F
:1049100000F010F83055601CC4B2781EA042F6DCDE
:10492000002000F007F8305500F08EF8BDE8F08167
:10493000A800002070B50546002400261CE0600693
:10494000040E00BF012211461048FCF791F800BF89
:10495000FFF730FF08210D48FCF778F808B1601C1C
:10496000C4B200BF002201210848FCF781F800BF53
:10497000FFF720FF701CC6B2082EE0DB15B9FFF769
:104980007DFF01E0FFF7EEFE204670BD000C014008
:1049900070B50446002524E000BFE00928B10122DB
:1049A00008211548FCF764F804E0002208211248A9
:1049B000FCF75EF800BFFFF7FDFE00BF01221146C5
:1049C0000D48FCF755F800BFFFF7F4FE00BF0022CA
:1049D00001210948FCF74CF800BF6006040E681C72
:1049E000C5B2082DD8DB00BF012208210248FCF720
:1049F0003FF800BF70BD0000000C014010B500BFC3
:104A0000012208210F48FCF733F800BF00BF012244
:104A100011460C48FCF72CF800BFFFF7CBFE00BF97
:104A2000002208210748FCF723F800BFFFF7C2FE69
:104A300000BF002201210348FCF71AF800BFFFF76E
:104A4000B9FE10BD000C014010B500BF00220821C6
:104A50000C48FCF70DF800BFFFF7ACFE00BF0122C9
:104A600011460848FCF704F800BFFFF7A3FE00BF9B
:104A7000012208210348FBF7FBFF00BFFFF79AFE66
:104A800010BD0000000C014070B50024002500BFDF
:104A9000012208211448FBF7EBFF00BFFFF78AFE55
:104AA00000BF012211461048FBF7E2FF00BFFFF7ED
:104AB00081FE07E0601CC4B2FA2C03DDFFF7C4FFDF
:104AC000012505E008210848FBF7C0FF0028F1D1C7
:104AD00000BF00BF002201210348FBF7C9FF00BF50
:104AE000FFF768FE284670BD000C01402DE9F0413B
:104AF00005460F469046FFF781FF154909780022C9
:104B000042EA4101C8B2FFF743FFFFF7BDFF280AA1
:104B1000FFF73EFFFFF7B8FFE8B2FFF739FFFFF7F7
:104B2000B3FF002609E0B85DFFF732FFFFF7ACFFE7
:104B3000044604B103E0701CC6B24645F3DB00BF77
:104B4000FFF782FF14B10120BDE8F0810020FBE7F0
:104B5000A80000201CB5FDF733FB1420FFF79AFDD9
:104B60001420FFF72DFE642000F0B2F96846FFF72D
:104B700085FD08A16846FBF77FFB38B1FFF780F899
:104B800000F00CF8FFF704FB00201CBD00F036F924
:104B90000120FAE7313135380000000000B585B05A
:104BA0000020019002900390049000BF00BF404895
:104BB000806940F020003E4988610846806900F025
:104BC0002000009000BF00BF00BF00BF00BF08462C
:104BD000806940F0080088610846806900F008009C
:104BE000009000BF00BF00BF0846806940F0010090
:104BF00088610846806900F00100009000BF00BF96
:104C000000BF2C49486820F0E06040F00070486028
:104C100000BF00BF00BF00BF2548806940F0100002
:104C2000234988610846806900F01000009000BFA9
:104C300000BF00BF00BF00BF0846806940F0080009
:104C400088610846806900F00800009000BF00BF3E
:104C500000BF40200190002002900120039003201B
:104C6000049001A91448FBF751FD08200190012090
:104C7000029003900320049001A91048FBF746FD21
:104C8000202001900120029003900320049001A9AC
:104C90000B48FBF73BFD012001900290039003209D
:104CA000049001A90548FBF731FD05B000BD0000E7
:104CB000001002400000014000140140000C0140BF
:104CC0000010014070B50646002400BF00220121FB
:104CD0002F48FBF7CDFE00BF00BF002208212C4863
:104CE000FBF7C6FE00BF00BF002220212948FBF7CA
:104CF000BFFE00BF304600F051F8062000F0F2F889
:104D000000BF002201212248FBF7B2FE00BF0120B4
:104D100000F0E8F800BF012211461D48FBF7A8FE8D
:104D200000BF012000F0DEF800BF0022012118487A
:104D3000FBF79EFE00BF00251DE04FF6FF7000EA66
:104D4000440400BF002201211148FBF791FE00BF7F
:104D5000012000F0C7F800BF012211460C48FBF704
:104D600087FE00BF40210C48FBF770FE08B1601CB5
:104D700084B2681CC5B2102DDFDB241100BF0122F4
:104D800020210448FBF774FE00BF204670BD0000E0
:104D9000000C0140001001400014014070B50446B1
:104DA000002525E004F0800030B100BF0122082179
:104DB0001148FBF75DFE06E000BF002208210E4807
:104DC000FBF756FE00BF6006040E00BF0022012163
:104DD0000948FBF74DFE00BF012000F083F800BF3B
:104DE000012211460448FBF743FE00BF681CC5B210
:104DF000082DD7DB70BD0000000C014008B5022073
:104E000000900122694648F24000FFF76FFE0A2039
:104E100000F05EF8002000900122694648F2400050
:104E2000FFF764FE08BD000000B5244B21F00042EE
:104E300087B09A42DCBF0022134629DD204B9A42FC
:104E400008D140B94FF00100FBF75FFAFDF78FF989
:104E500007B000BD03DBFDF787F907B000BD02AA6C
:104E6000FCF774FE10F0030104BF0DF1080C9CE880
:104E70000F000DD0012001290ED0022914D00DF110
:104E8000080C00909CE80F00FDF7F8F807B000BD93
:104E9000FDF720F807B000BD0DF1080C00909CE86C
:104EA0000F00FDF7EBF805E00DF1080C9CE80F0092
:104EB000FDF710F807B081F0004100BDFB21E93F8C
:104EC0000000F07F01490860704700008800002062
:104ED00010B504464FF47A7104FB01F000F002F8BB
:104EE00010BD000070B5034600224FF0E026756942
:104EF0000D4E366803FB06F44FF0E026B16910E072
:104F00004FF0E026B06988420BD0884202D20E1AD8
:104F1000324402E02E1A0E4432440146A24200D32B
:104F200000E0EDE700BF70BD880000202DE9FE4FD6
:104F300005460F46002424E004EB440207EB8202FE
:104F4000A968906801F06AFA814604EB440207EB15
:104F500082026968506801F061FA824604EB4402FB
:104F600057F82200296801F059FA8346514601F0AA
:104F7000E5F88046494601F0E1F84DF82400601C50
:104F8000C4B2032CD8DB002605E05DF8260045F806
:104F90002600701CC6B2032EF7DB2846BDE8FE8F44
:104FA0002DE9F04F9BB083460C4691469A465D49E9
:104FB000204601F025F904465A49484601F020F9F7
:104FC00081465849504601F01BF98246204601F0BF
:104FD00089F80746FFF728FF054600F07DFB129091
:104FE00000201390204601F07DF8074600F0D4FA27
:104FF000054600F071FB1490002015904FF07E5193
:10500000169100211791204601F06CF8074600F038
:10501000C3FA81F00041054600F05EFB18900021C4
:105020001991204601F05EF80746FFF7FDFE0546A0
:1050300000F052FB1A904FF07E50099000200A9029
:105040000B900C90484601F04DF80746FFF7ECFE38
:10505000054600F041FB0D90484601F043F8054637
:1050600000F09AFA81F00041074600F035FB0E90FF
:1050700000200F90484601F035F8054600F08CFA04
:10508000074600F029FB1090484601F02BF8054632
:10509000FFF7CAFE074600F01FFB1190504601F0D3
:1050A00021F80746FFF7C0FE054600F015FB00900B
:1050B000504601F017F8054600F06EFA81F0004105
:1050C000074600F009FB019000200290504601F0D5
:1050D00009F8074600F060FA054600F0FDFA039073
:1050E000504600F0FFFF0546FFF79EFE074600F022
:1050F000F3FA0490002105910020069007914FF0EB
:105100007E51089169465846FFF710FF064609A9E7
:10511000FFF70CFF054612A9FFF708FF1BB0BDE81B
:10512000F08F0000DA0F49400EB5FDF709FD044687
:105130006CB120A0FBF76CF808E000BF20212448E8
:10514000FBF78CFC00BFC820FFF7C2FEF5E74FF667
:10515000FF70FDF729F84FF4784003211DA22023AA
:10516000CDE9002102904FF4A0720A210846FEF713
:10517000A7FF4FF47840022118A21823CDE900219F
:1051800002904FF4A0722A210A20FEF799FF4FF4F3
:105190007840012114A21023CDE9002102904FF4A0
:1051A000A07242210A20FEF78BFF01E000F024F8F4
:1051B000FCE7000041544B2D4D443033353020691D
:1051C0006E6974206661696C6564210D0A000000D7
:1051D0000018014053544D333200000041544B2D10
:1051E0004D4430333530000041544F4D40414C491F
:1051F000454E54454B0000002DE9F84F61480078BA
:1052000040B101216048FDF721F8012800D10AE0F2
:10521000002008E05C49891C881EFEF75BFD08B988
:10522000012000E00020E8B1574800881C2819DD63
:10523000FDF750FC1C3854490988884212DD524859
:1052400040886E280EDDFDF73FFC1C384E4949882A
:10525000884207DD4C4800884C4908804A4840880D
:105260004B49088000250CE005EB4501494A02EB5B
:105270008100494B494A4FF07C51FFF791FE681C71
:10528000C5B2082DF0DB00245FE04148008801F042
:10529000B1F88346424A601C105C401E00EB40009F
:1052A0003C4A02EB80004168584600F047FF8246C6
:1052B00001F068F886B23548008801F09BF8834613
:1052C000374A601C105C401E00EB4000314A52F827
:1052D0002010584600F032FF824601F053F887B2A2
:1052E0002B48008801F086F883462D48005D401E5B
:1052F00000EB4000274A02EB80004168584600F06E
:105300001DFF824601F03EF81FFA80F81F48008812
:1053100001F070F883462248005D401E00EB40001B
:105320001C4A52F82010584600F008FF824601F04F
:1053300029F81FFA80F91F2033463A46414600906B
:105340004846FDF78DF8A01CC4B2182C9DDB6420E4
:10535000FFF7BEFD4FF6FF700D4E009036881C36ED
:10536000B3B20A4E36881C36B2B2094E36881C3E9D
:10537000B1B2064E36881C3EB0B2FDF7D2F8BDE899
:10538000F88F00009E000020800000207C0000209C
:105390007E00002004000020CDCC4C3E9A99993E1E
:1053A0006400002000BF054A126802F04002002A93
:1053B000F9D0C2B2014B1B1D1A6070470038014082
:1053C00000B585B00020019002900390049000BFCA
:1053D00000BF1B48806940F00400194988610846F5
:1053E000806900F00400009000BF00BF00BF00BF54
:1053F00000BF0846806940F0040088610846806963
:1054000000F00400009000BF00BF00BF0120019029
:105410000020029002200390049001A90948FBF7A4
:1054200075F94FF400400190002002900220039093
:10543000049001A90348FBF769F905B000BD00001D
:10544000001002400008014000B585B00020019026
:1054500002900390049000BF00BF2148806940F093
:1054600040001F4988610846806900F040000090B4
:1054700000BF00BF00BF00BF00BF0846806940F00A
:10548000400088610846806900F04000009000BF3D
:1054900000BF00BF20200190012002900220039055
:1054A000049001A90F48FBF731F940200190012039
:1054B000029002200390049001A90A48FBF726F904
:1054C00000BF012220210748FBF7D2FA00BF00BF2E
:1054D000012240210348FBF7CBFA00BF05B000BD15
:1054E000001002400018014010B5FBF7D9FA4FF444
:1054F000E01000F0A1F84820FFF7E4FC4FF4E130A1
:1055000000F0CEF8FFF7A0FFFFF75AFF00F004F815
:10551000FFF70AFE002010BD10B50BA0FAF778FEC9
:105520000AA0FAF775FE12A0FAF772FE12A0FAF7B7
:105530006FFE15A0FAF76CFE04A0FAF769FE0BA047
:10554000FAF766FE10BD00000A0000002A2A2A2A87
:105550002A2A2A2A2A2A2A2A2A2A2A2A2A2A2A2AAB
:105560002A2A2A2A2A2A2A2A2A2A2A2A0D0A00002C
:1055700053544D33320D0A0041544B2D4D443033BA
:1055800035300D0A0000000041544F4D40414C4958
:10559000454E54454B0D0A0000B5254B21F0004205
:1055A00087B09A4203DC0022134600922BE0214B85
:1055B0009A4208D140B94FF00100FAF7A6FEFCF775
:1055C000D6FD07B000BD03DBFCF7CEFD07B000BD84
:1055D00002AAFCF7BBFA10F003014FF001000DD056
:1055E000012914D002291AD00DF1080C9CE80F00F3
:1055F000FCF770FC07B081F0004100BD0DF1080C14
:1056000000909CE80F00FCF739FD07B000BD0DF1DC
:10561000080C9CE80F00FCF75DFC07B000BD0DF125
:10562000080C00909CE80F00FCF728FDE2E7000062
:10563000FB21E93F0000F07F30B58FB00546012423
:10564000282105A8FAF7F0FD14216846FAF7ECFDC9
:1056500001200590000406900020079002200C9085
:10566000C1030D910E9505A8FBF7EEFB04460CB1A6
:1056700000BFFEE70F200090022001900020029062
:105680004FF4806003900020049002216846FBF7ED
:10569000A5FA04460CB100BFFEE70FB030BD000014
:1056A00010B5044609480A490860084644600021CC
:1056B0008160C160016181610C214161FBF76CFF78
:1056C000012204490248FBF7FBFF10BD00380140EE
:1056D000740100209200002021F00042A2F16052EB
:1056E000B2F5801F01F0004328BFD2F17F6C0BD9C7
:1056F0005FEA001C43EAC20242EB507018BF7047D9
:1057000028BF20F001007047B2F5801FBCBF1846CB
:1057100070474FEA410C1CF5001F02D2084600F00A
:1057200044BF70B500F05EFB00000089FFF7F6BFD4
:105730004FF00040A0F580007047000010B591EADE
:10574000030F48BF83F0004300F1EA83841A71EB32
:10575000030C05D2121943EB0C03001B61EB0C0187
:10576000DFF824E14FEA1154A4EB135C1EEA430F67
:1057700018BF9EEA445F73D023EA0E03DCF1200ECB
:1057800021EA045143F4801332D322FA0CFE10EBC9
:105790000E0023FA0CFE41EB0E01CCF1200E03FAB1
:1057A0000EFE10EB0E0051F10001B1F5801FCCF19F
:1057B000200E32D201EB045112FA0EF2BDE8104075
:1057C00058BF7047401C38BF5FEA420218BF70479D
:1057D000002814BF20F0010041F100014FEA41030D
:1057E00013F5001F38BF7047A1F1C04100F048BB5E
:1057F000012A43EB0302ACF1200CDCF11F0E32BF97
:105800004FF0000E23FA0CF310EB030041EB0451B0
:10581000B4EB115FD0D0A1EB045101F58011490820
:105820005FEA300001EB04510ED350F1000038BFA5
:1058300012FA0EFE08D1BDE81040C9E7401C38BF7F
:105840005FEA4202CAD1C3E7BDE810404FEA410314
:1058500013F5001F38BF7047A1F1C04100F010BB25
:105860009EEA445F08D011EA5E0FBDE8104004BF15
:1058700001F0004100207047BDE8104070B500F015
:10588000B1FA00BF64FBBE3E0000E0FF02494FF0EA
:10589000000000F004BF00BF0000F87F491058BFAF
:1058A000C1F140415B1058BFC3F140438B42EFF35D
:1058B000008070472DE9C04130B4DFF8A0C23CEA57
:1058C000111418BF3CEA131400F0EC8081EA0305C0
:1058D0001CEA111444EAD57418BF1CEA131500F031
:1058E000C780A4EB05044FF0004545EAC12145EA15
:1058F000C32341EA505143EA525304F17F74994261
:1059000004F500344FEAC0204FEAC22208BF90429B
:1059100000F09C804FEA13650FF24016765D4FEA67
:10592000134506FB05F7C7F1807706FB07F74FEA3B
:10593000D737A7FB03687642C8F58038A7FB06CEA9
:1059400038BFA8F1010807FB08E64FF0000EA6FBE0
:10595000028CE6FB03CEDCF1000CCEF1004E38BF2A
:10596000AEF1010EA6FB0C584FF000074FF00005FA
:10597000E6FB0E87A1FB08C6A0FB07CE16EB0E06C2
:1059800045F10005E1FB076515F1E04E7EBFA4F58A
:1059900080345FEA46066D4116F1800745F1000547
:1059A0004FEA17274FEA066647EA0567A6F1DE4683
:1059B000B6F1805F4FEA15251FD9384624F0010C57
:1059C00005EBC471BCF1FE6F01EB0C1102D8F0BC09
:1059D000BDE8008124425CBF01F5801E9EEAC47FC1
:1059E00002D4F0BCBDE80081244238D4F0BCA1F15F
:1059F000C041BDE8004100F043BA4FEAD22242EA7A
:105A000043524FEAD323A7FB02864FEAD02040EA55
:105A1000415007FB03661EEA0E0F4FEAD12105FB3A
:105A2000026658BFA6EB0056B6EB00564FEA520E80
:105A30004EEAC37E18EB0E0E56EB530EBDD518EB97
:105A400002085E417F1C55F10005B6E74FF4801552
:105A50004FF000074FF000064FF00008ADE7F0BC34
:105A60004FF0000001F1C04101F00041BDE80081AC
:105A700011EA0C1F0CEA131500D00CE013EA0C1FFE
:105A800000F025804FF00000F0BC81EA030101F036
:105A90000041BDE80081F0BCBDE8004181EA03019E
:105AA00000F0EEB9F0BCBDE8004170B500F09AF925
:105AB000097EFC3E00F007B881EA03014FF00000C8
:105AC00001F00041704781EA030100F0D9B9F0BC50
:105AD000BDE800414FF0000021497047FFFDFBF990
