:020000040800F2
:1000000020080020CD010008E7140008DF140008D4
:10001000E3140008B9030008951700080000000069
:10002000000000000000000000000000151500089E
:10003000BD03000800000000E914000817150008BF
:10004000E7010008E7010008E7010008E7010008F0
:10005000E7010008E7010008E7010008E7010008E0
:10006000E7010008E7010008E7010008E7010008D0
:10007000E7010008E7010008E7010008E7010008C0
:10008000E7010008E7010008E7010008E7010008B0
:10009000E7010008E7010008E7010008E7010008A0
:1000A000E7010008E7010008E7010008E701000890
:1000B000E7010008E7010008E7010008E701000880
:1000C000E7010008E7010008E7010008E701000870
:1000D000E701000871170008E7010008E7010008C0
:1000E000E7010008E7010008E7010008E701000850
:1000F000E7010008E7010008E7010008E701000840
:10010000E7010008E7010008E7010008E70100082F
:10011000E7010008E7010008E7010008E70100081F
:10012000E7010008E7010008E7010008E70100080F
:1001300000F002F800F03AF80AA090E8000C8244BF
:100140008344AAF10107DA4501D100F02FF8AFF29C
:10015000090EBAE80F0013F0010F18BFFB1A43F0A5
:100160000103184798910000B8910000103A24BF8D
:1001700078C878C1FAD8520724BF30C830C144BF0C
:1001800004680C607047000000230024002500264E
:10019000103A28BF78C1FBD8520728BF30C148BFEA
:1001A0000B6070471FB51FBD10B510BD00F0C2F841
:1001B0001146FFF7F7FF04F0B5FE00F0F4F803B4C2
:1001C000FFF7F2FF03BC01F037FE0000094880474B
:1001D00009480047FEE7FEE7FEE7FEE7FEE7FEE729
:1001E000FEE7FEE7FEE7FEE704480549054A064B41
:1001F000704700001F150008310100082002002090
:100200002008002020040020200400207047000067
:100210000FB4044910B503AA029800F055F810BCB9
:100220005DF814FB880000204FF0013C50F8042BCF
:1002300051F8043B9A4221D1A2EB0C03934313EAF9
:10024000CC1317D150F8042B51F8043B9A4215D126
:10025000A2EB0C03934313EACC130BD150F8042BFD
:1002600051F8043B9A4209D1A2EB0C03934313EAE1
:10027000CC13DBD04FF00000704700BFD01A01BA9A
:10028000B1FA81F101F0180122FA01F0CB40C1F17D
:100290002001DBB2C0B2C01A2CFA01F3D11A91438B
:1002A00011EAC311E6D17047704770477047704735
:1002B00010B500F01BF8006810BD10B5044600F042
:1002C00015F8046010BD0000074B70B50D467B4467
:1002D00000F015F80446284600F024F810B14FF05D
:1002E000FF3070BD204670BDEB4A000000487047EB
:1002F000BC01002001694A1C02610878704700B502
:100300008FB0CDE901310021059105497944CDE94E
:1003100003101146684600F032F80FB000BD00002F
:10032000E5FFFFFF007B00F080007047004870474A
:10033000BC0100207546FFF7F9FFAE46050069468F
:10034000534620F00700854618B020B5FFF74CFF54
:10035000BDE820404FF000064FF000074FF00008C6
:100360004FF0000B21F00701AC46ACE8C009ACE847
:10037000C009ACE8C009ACE8C0098D4670472DE95A
:10038000F04106460024D6E90170F5688046304603
:1003900003E04146B847641C3046A8470028F8D11E
:1003A0002046BDE8F08110B50446AFF3008020463A
:1003B000BDE81040FFF703BF00BFFEE77047000035
:1003C00070B50446002594F82100022803D00420CB
:1003D000A0630125C1E02068006820F00E002168BC
:1003E00008602068006820F00100216808605C490E
:1003F0002068884252D95A4978392068884201D108
:10040000012047E0564964392068884201D1102014
:1004100040E0534950392068884201D1801539E0C5
:100420004F493C392068884201D1801432E04C4960
:1004300028392068884202D14FF480302AE04849A8
:1004400014392068884202D14FF4801022E04449D8
:100450002068884201D140041CE04249206888425B
:1004600001D1012016E03F4914312068884201D1B2
:1004700010200FE03B4928312068884201D18015C7
:1004800008E038493C312068884201D1801401E0FD
:100490004FF480303349091F086051E03049783902
:1004A0002068884201D1012047E02D496439206845
:1004B000884201D1102040E0294950392068884203
:1004C00001D1801539E026493C392068884201D1A4
:1004D000801432E0224928392068884202D14FF442
:1004E00080302AE01E4914392068884202D14FF436
:1004F000801022E01A492068884201D140041CE0A3
:1005000018492068884201D1012016E015491431AC
:100510002068884201D110200FE01249283120685C
:10052000884201D1801508E00E493C31206888429C
:1005300001D1801401E04FF48030094980394860CE
:10054000012084F8210000BF002084F8200000BFB3
:10055000606B10B12046616B8847284670BD000073
:1005600080000240080402402DE9F84702460023BB
:100570009C467BE14FF0010808FA03F4D1F80080B3
:1005800008EA0400A0427DD1DFF8F4A2D1F804808B
:10059000A8EB0A09D0453AD014DCB8F1030F50D0CB
:1005A00009DCB8F1000F31D0B8F1010F1CD0B8F15F
:1005B000020F49D120E0B8F1110F18D0B8F1120F95
:1005C00042D11EE0B9F5881F25D006DCB9F5803F81
:1005D00020D0B9F5801F37D11AE0B9F5001F18D027
:1005E000B9F5041F30D117E0D1F80CC02DE0D1F8D7
:1005F0000C8008F1040C28E0D1F80C8008F1080CFC
:1006000023E0D1F80C8008F10C0C1EE000BF00BF05
:1006100000BF00BF00BF00BFD1F80880B8F1000FD5
:1006200002D14FF0040C0BE0D1F80880B8F1010FB3
:1006300003D14FF0080C146102E04FF0080C546134
:1006400003E04FF0000C00E000BF00BFFF2801D81E
:10065000904601E002F104084646FF2802D84FEA1E
:10066000830803E0A3F108084FEA88084746D6F854
:1006700000804FF00F0909FA07F928EA09080CFA77
:1006800007F900E07AE048EA0908C6F80080D1F8E6
:10069000048008F08058B8F1805F6FD100BFDFF8A8
:1006A000E481D8F8188048F00108DFF8D891C9F83B
:1006B0001880C846D8F8188008F00108CDF80080E6
:1006C00000BF00BF4FEAB9384FEA930958F82950E4
:1006D0004FEA83784FEA18794FF00F0808FA09F8C3
:1006E00025EA0805DFF8A081424502D14FF0000855
:1006F00024E0DFF89881424502D14FF001081DE067
:10070000DFF88C81424502D14FF0020816E0DFF895
:100710008481424502D14FF003080FE0DFF8788171
:10072000424502D14FF0040808E0DFF870814245ED
:1007300002D14FF0050801E04FF006084FEA837937
:100740004FEA197908FA09F848EA0505DFF85081F7
:100750004FEA930948F82950D1F8048008F480380A
:10076000B8F5803F0BD1DFF83C81D8F8008048EA2B
:100770000008DFF83091C9F800800AE075E0DFF882
:100780002481D8F8008028EA0008DFF81891C9F819
:100790000080D1F8048008F40038B8F5003F0ED18D
:1007A000DFF8008108F10408D8F8008048EA000862
:1007B000DFF8F09009F10409C9F800800DE0DFF8D6
:1007C000E48008F10408D8F8008028EA0008DFF87F
:1007D000D49009F10409C9F80080D1F8048008F424
:1007E0008018B8F5801F0ED1DFF8B88008F108082E
:1007F000D8F8008048EA0008DFF8A89009F1080955
:10080000C9F800800DE0DFF89C8008F10808D8F8EE
:10081000008028EA0008DFF88C9009F10809C9F87F
:100820000080D1F8048008F40018B8F5001F0ED13C
:10083000DFF8708008F10C08D8F8008048EA00085A
:10084000DFF8609009F10C09C9F800800DE0DFF8CD
:10085000548008F10C08D8F8008028EA0008DFF876
:10086000449009F10C09C9F800805B1CD1F80080A4
:1008700028FA03F8B8F1000F7FF47CAEBDE8F887E2
:10088000000011100010024000080140000C01405F
:10089000001001400014014000180140001C0140FC
:1008A0000800014000040140024693680B400BB170
:1008B000012000E00020704710B5C26821EA020361
:1008C00002EA010443EA0443036110BD0AB1016175
:1008D00001E00B04036170470148006870470000A5
:1008E0009000002003480068034909780844014942
:1008F00008607047900000209800002010B508485C
:10090000006840F0100006490860052000F080F8FB
:100910000F2000F007F800F02BF8002010BD0000B9
:100920000020024070B504460E4800784FF47A71FA
:10093000B1FBF0F00C490968B1FBF0F5284600F076
:10094000F7FB08B1012070BD102C07D20022214610
:10095000501E00F01EF80548046001E00120F2E797
:100960000020F0E798000020000000209400002004
:10097000704701460846002809DB00F01F030122EA
:100980009A4043099B0003F1E023C3F8002100BF14
:1009900070472DE9F05F80460D461646002700F0AF
:1009A0000FFF074639462A46334601F00700C0F1DB
:1009B000070ABAF1040F02D94FF0040A01E0C0F1AE
:1009C000070AD14600F1040ABAF1070F02D24FF02C
:1009D000000A01E0A0F1030AD4464FF0010A0AFA26
:1009E00009FAAAF1010A0AEA020A0AFA0CFA4FF015
:1009F000010B0BFA0CFBABF1010B0BEA030B4AEA00
:100A00000B042146404600F0E3FEBDE8F09F0000E5
:100A100000BF00F00702064B19684FF6FF031940AC
:100A2000044B0B4343EA0221014B196000BF70479E
:100A30000CED00E00000FA0570B504460D460CB957
:100A4000012070BD5A48006800F00700A8420ED28D
:100A50005748006820F007002843554908600846B9
:100A6000006800F00700A84201D00120E9E72078E3
:100A700000F0020002281DD1207800F004000428B4
:100A800005D14C48406840F4E0604A49486020780D
:100A900000F00800082805D14648406840F460503E
:100AA000444948604348406820F0F000A16808438A
:100AB00040494860207800F0010078B36068012860
:100AC00006D13C48006800F4003090B90120B8E736
:100AD0006068022806D13748006800F0007040B90D
:100AE0000120AEE73348006800F0020008B9012099
:100AF000A7E73048406820F00300616808432D49AB
:100B00004860FFF7E9FE064609E0FFF7E5FE801BB7
:100B100041F28831884202D9032092E707E0254854
:100B2000406800F00C006168B0EB810FEDD1204807
:100B3000006800F00700A8420ED91D48006820F0A8
:100B4000070028431A4908600846006800F00700BB
:100B5000A84201D0012074E7207800F004000428A6
:100B600007D11448406820F4E060E1680843114967
:100B70004860207800F00800082808D10D48406837
:100B800020F46050216940EAC1000A49486000F041
:100B90003FF808494968C1F30311074A515CC8404E
:100BA0000649086006480068FFF7BCFE002048E7D9
:100BB0000020024000100240BA610008000000203E
:100BC00094000020014800687047000000000020E9
:100BD00000B5FFF7F7FF04494968C1F30221034A52
:100BE000515CC84000BD000000100240CA6100080E
:100BF00000B5FFF7E7FF04494968C1F3C221034A82
:100C0000515CC84000BD000000100240CA610008ED
:100C1000F0B585B00FF26C0C9CE8E01001A8A0E8DC
:100C2000E0101CA52D68009500210022002300245F
:100C30000020194D696801F00C05F5B1042D02D0B2
:100C4000082D19D101E0154819E001ADC1F3834623
:100C5000AC5D01F4803555B10F4D6D68C5F340456D
:100C60001DF805200D4D6543B5FBF2F302E00C4D78
:100C700004FB05F3184602E000BF084800BF00BFB0
:100C800005B0F0BD02030405060708090A0B0C0DA8
:100C90000E0F1010010200000010024000127A0036
:100CA00000093D00F8B504460CB90120F8BD2078D4
:100CB00000F00100002878D0F848406800F00C00EF
:100CC00004280CD0F548406800F00C00082811D129
:100CD000F248406800F48030B0F5803F0AD1EF4818
:100CE000006800F4003000285FD0606800285CD104
:100CF0000120DBE700BF6068B0F5803F06D1E74820
:100D0000006840F48030E549086028E0606858B920
:100D1000E248006820F48030E04908600846006836
:100D200020F4802008601AE06068B0F5A02F0BD195
:100D3000DA48006840F48020D84908600846006816
:100D400040F4803008600AE0D448006820F4803025
:100D5000D24908600846006820F48020086000BF7F
:100D6000606888B1FFF7B8FD054606E0FFF7B4FDFF
:100D7000401B642801D9032098E7C848006800F4A4
:100D800000300028F2D010E0FFF7A6FD054606E08F
:100D9000FFF7A2FD401B642801D9032086E7BF4866
:100DA000006800F400300028F2D1207800F0020042
:100DB000022857D1B948406800F00C0050B1B7483C
:100DC000406800F00C00082818D1B448406800F4CE
:100DD000803098B9B148006800F0020020B1206965
:100DE000012801D0012061E7AC48006820F0F8003C
:100DF000616940EAC100A949086033E02069E8B1AF
:100E00000120A7490860FFF767FD054606E0FFF7E8
:100E100063FD401B022801D9032047E79F48006873
:100E200000F002000028F2D09C48006820F0F80092
:100E3000616940EAC1009949086013E000209849BF
:100E40000860FFF749FD054606E0FFF745FD401B3A
:100E5000022801D9032029E79048006800F0020029
:100E60000028F2D1207800F0080008282DD1A069D0
:100E7000B8B101208B490860FFF72EFD054606E05A
:100E8000FFF72AFD401B022801D903200EE7834803
:100E9000406A00F002000028F2D0012000F026FB9A
:100EA00013E000207F490860FFF716FD054606E0C5
:100EB000FFF712FD401B022801D90320F6E6774810
:100EC000406A00F002000028F2D1207800F004000F
:100ED000042873D100277148C06900F0805070B9B0
:100EE00000BF6E48C06940F080506C49C861084638
:100EF000C06900F08050009000BF00BF01276A4821
:100F0000006800F48070B0B96748006840F48070F1
:100F100065490860FFF7E0FC054606E0FFF7DCFCEA
:100F2000401B642801D90320C0E65F48006800F434
:100F300080700028F2D000BFE068012806D1574831
:100F4000006A40F001005549086227E0E06858B99E
:100F50005248006A20F00100504908620846006AC1
:100F600020F00400086219E0E06805280BD14B4826
:100F7000006A40F00400494908620846006A40F0EF
:100F8000010008620AE04548006A20F00100434978
:100F900008620846006A20F00400086200BFE068AA
:100FA000A0B1FFF799FC054609E0FFF795FC401B4F
:100FB00041F28831884202D9032077E622E037489F
:100FC000006A00F002000028EFD012E0FFF784FC76
:100FD000054608E0FFF780FC401B41F2883188425B
:100FE00001D9032062E62D48006A00F002000028C3
:100FF000F0D1012F05D12948C06920F08050274940
:10100000C86100BFE069C8B32448406800F00C0024
:10101000082860D0E069022848D1002020490866ED
:10102000FFF75AFC054606E0FFF756FC401B022876
:1010300001D903203AE61948006800F00070002842
:10104000F2D1206AB0F5803F07D11448406820F4FF
:101050000030A168084311494860D4E908010843F9
:101060000E49496821F4741108430C494860012075
:101070000B490866FFF730FC054607E03DE0FFF747
:101080002BFC401B022801D903200FE6034800680F
:1010900000F000700028F2D02FE0000000100240A5
:1010A0000000424280044242007000400020144987
:1010B0000866FFF711FC054606E0FFF70DFC401B34
:1010C000022801D90320F1E50E48006800F0007005
:1010D0000028F2D111E0E069012800D1E6E50948D5
:1010E000466806F48031206A814204D106F470110A
:1010F000606A814201D00120D8E50020D6E50000D9
:101100000000424200100240042808D14FF0E021C4
:10111000096941F004014FF0E022116107E04FF04E
:10112000E021096921F004014FF0E02211617047CC
:1011300070B504462546681EB0F1807F01D30120BA
:101140000FE0681E4FF0E02148610F214FF0FF30A3
:1011500000F03EFB00204FF0E0218861072008618D
:10116000002070BD704700002DE9F047044620685C
:1011700005682068C668206847694FF00008C146C6
:1011800005F00F08B8F1000F0AD105F0200038B1C2
:1011900006F0200020B1204600F0ECF9BDE8F08711
:1011A000B8F1000F71D007F0010018B906F4907083
:1011B00000286AD005F0010030B106F4807018B143
:1011C000E06B40F00100E06305F0040030B107F08F
:1011D000010018B1E06B40F00200E06305F002008E
:1011E00030B107F0010018B1E06B40F00400E0639B
:1011F00005F0080048B106F0200010B907F0010022
:1012000018B1E06B40F00800E063E06B68B305F0F4
:10121000200028B106F0200010B1204600F0AAF905
:1012200020684069C0F38019E06B00F0080010B935
:10123000B9F1000F22D0204600F07CF92068406907
:1012400000F04000B0B12068406920F04000216803
:101250004861606B50B11848616B4863606BFFF781
:10126000AFF810B1606B416B88470CE02046FFF788
:1012700079FF08E02046FFF775FF04E02046FFF7FE
:1012800071FF0020E06389E7FFE705F0800030B1DF
:1012900006F0800018B1204600F03AFA7EE705F02B
:1012A000400030B106F0400018B1204600F052F97D
:1012B00074E700BF72E700002115000810B504466E
:1012C0000CB9012010BDA06900B100E000BF94F886
:1012D000390028B9002084F83800204600F028F8AA
:1012E000242084F839002068C06820F40050216868
:1012F000C860204600F08EF92068006920F4904014
:10130000216808612068406920F02A00216848614E
:101310002068C06840F400502168C8600020E06385
:10132000202084F8390084F83A000020CAE7000041
:1013300010B586B004462849206888424AD100BFCB
:1013400000BF2648806940F00400244988610846AF
:10135000806900F00400019000BF00BF00BF00BF23
:1013600000BF0846806940F0040088610846806933
:1013700000F00400019000BF00BF00BF00BF00BF2D
:101380000846806940F4804088610846806900F41E
:101390008040019000BF00BF00BF481502900220AE
:1013A0000390012004900320059002A90C48FFF748
:1013B000DBF84FF4806002900020039002A90848F7
:1013C000FFF7D2F82520FFF7D4FA03221146252093
:1013D000FFF7DFFA06B010BD0038014000100240F0
:1013E0000008014010B5034693F83A0020282FD199
:1013F00001B10AB9012010BD00BF93F838000128DF
:1014000001D10220F7E7012083F8380000BF99627C
:101410009A85DA850020D863222083F83A0000BF3D
:10142000002083F8380000BF1868C06840F480705E
:101430001C68E0601868406940F001001C68606149
:101440001868C06840F020001C68E0600020D2E707
:101450000220D0E71D4A0168914236D11C49098813
:1014600001F4004189BB1A49098801F4804171B136
:10147000184909780A2903D00021154A118024E06F
:101480001349098841F40041114A11801DE01149B6
:1014900009780D2906D10E49098841F480410C4A8A
:1014A000118012E00B490978094A1288C2F30D0233
:1014B000094B995406490988491C054A118011466F
:1014C0000988C72901DD00211180704700380140DB
:1014D0008C0000208E000020A8000020704700BF74
:1014E000FEE700BFFEE770477047000008B50849F7
:1014F0000968C9084FF47A72B1FBF2F141430091D7
:1015000000BF00BF00994A1E00920029F9D108BD12
:1015100000000020704710B5FFF7E4F910BD7047D8
:1015200070B505466C6A0020E085E0842046FFF730
:1015300019FE70BD0168C96821F490710268D1601C
:101540000168496921F0010102685161202180F898
:101550003A10704710B504462068C06820F040007B
:101560002168C860202084F839002046FFF7B6FFC4
:10157000002010BD70B5044694F83A00222847D1E7
:10158000A068B0F5805F0CD1206950B90025A66A2B
:1015900020684068C0F308003080A06A801CA06208
:1015A00015E0A56A0026A068B0F5805F03D0A068AA
:1015B00028B9206918B920684068287004E02068BC
:1015C000406800F07F002870A06A401CA062E08D97
:1015D000401E80B2E085C8B92068C06820F02000B5
:1015E0002168C8602068C06820F480702168C860E5
:1015F0002068406920F0010021684861202084F8BB
:101600003A002046FFF726FF002070BD0020FCE7CF
:101610000220FAE770B504462168096921F44051B7
:10162000E2681143226811612269A168114362696D
:1016300041EA02052168C96841F20C6291432943DD
:101640002268D1602168496921F44071A26911437F
:10165000226851612D4A2168914202D1FFF7C8FAF0
:1016600001E0FFF7B5FA00EBC00101EB0011626881
:101670009200B1FBF2F100EBC00202EB00126368D2
:101680009B00B2FBF3F26423B2FBF3F202EBC20362
:1016900003EB0212A1EB8201322202EB0111642260
:1016A000B1FBF2F101F0F00100EBC00202EB00121D
:1016B00063689B00B2FBF3F26423B2FBF3F201EB2D
:1016C000021200EBC00101EB001163689B00B1FB4B
:1016D000F3F100EBC00303EB00136668B600B3FB45
:1016E000F6F36426B3FBF6F303EBC30606EB031332
:1016F000A1EB8301322303EB01116423B1FBF3F16E
:1017000001F00F0111442268916070BD0038014062
:10171000014691F83900212828D18868B0F5805F0A
:101720000BD1086948B90A6A1088C0F308000B6831
:101730005860086A801C086205E00B6A581C086241
:1017400018780B685860C88C401E80B2C88458B99D
:101750000868C06820F080000B68D8600868C0681E
:1017600040F040000B68D860002070470220FCE782
:1017700010B50648FFF7F8FC00BF012204490348F2
:10178000FFF730FE0028F8D110BD000070010020E6
:101790008E00002000BFFEE7490050EAC12018BFBC
:1017A00004204A0D18BF40F0010040F2FF72B2EB76
:1017B000515F08BF40F00200012808BF05207047B4
:1017C00002480068C0F30220704700000CED00E002
:1017D00010B5002804DB0A07130E054A135406E06F
:1017E0000A07140E034A00F00F031B1FD45410BD48
:1017F00000E400E018ED00E02DE9F74F144694B046
:101800000021C4E902111599079121F00045C94949
:101810008D4206DC1599C4E9000117B00020BDE82F
:10182000F08FC549DFF814A3A9423CDD0799C44EE7
:101830000029C44FC44A1599534619DD04F07EF8B7
:10184000554506D0C14AC24B04F078F8C4E90001FE
:101850000AE04FF0D352BE4B04F070F832463B46DC
:1018600004F06CF8C4E9000117B00120BDE8F08F66
:1018700003F07AFC554506D0B44AB54B03F074FC2E
:10188000C4E900010AE04FF0D352B14B03F06CFC05
:1018900032463B4603F068FCC4E9000117B04FF044
:1018A000FF30BDE8F08FAB49A942159978DB21F0F4
:1018B000004183468846A84AA84B03F0FFFE002259
:1018C000A74B03F051FC03F063FE099003F08FFE79
:1018D00006460F469C4A534603F0F0FE43465A46DE
:1018E00004F020F880468A46984A994B304639469B
:1018F00003F0E4FE2A0D01250B924246534604F004
:1019000011F8032DC4E9000139D00B98C1F30A5135
:10191000401A05EB45111139814230DA9148C3462E
:10192000784400EB0510CDF80CA00C90D0E9002312
:101930003046394603F0C2FE02460B46049106903B
:101940005846039903F0FAFF80468A4602460B4642
:101950005846039903F0F2FF049B069A03F0EEFF4A
:1019600083460C9803913946D0E90223304603F0B0
:10197000A5FE5A46039B03F0E1FF6D1CBDE70798E7
:101980000028A2BF099817B0BDE8F08F616881F008
:1019900000416160099817B04042BDE8F08FFFE751
:1019A00084461598C1F31301C0F30A50A0F2F53034
:1019B0004FEA601800F01F06C6F1200013900020C7
:1019C0000690079041F4801E05206D4676B1664A68
:1019D00008EB00017A4452F8213002EB8101B34058
:1019E0004A68139922FA01F1194305E05F4908EBAF
:1019F0000002794451F82210A1FB0E27A1FB0C1321
:101A00001A449A4234BF0123002303EB070A05EB73
:101A10008003D3E901B70F448F4234BF0121002175
:101A200093448B4411B1934502D903E0934501D20D
:101A3000012100E00021C3E901B7514445F820101D
:101A4000011EA0F10100C1DC0298059F00F10050C9
:101A5000800F12900298DDE90356800003F0C7FD65
:101A6000834628460D9103F0D9FD6FF01D0204F066
:101A70005EFBCDE90E01304603F0D0FD6FF03D0274
:101A800004F055FB80468A46384603F0C7FD6FF0E8
:101A90005D0204F04CFB074642465346119103F0A9
:101AA00063FBDDE90E2303F05FFB5A460D9B03F059
:101AB0005BFB00250E465A4628460D9B03F03EFF71
:101AC000DDE90E2303F03AFF4246534603F036FFAA
:101AD0003A46119B03F026FFDFF898A0244A5346AC
:101AE00003F0ECFD07468846234A244B314628463E
:101AF00003F0E4FD3A46434603F036FB07468846CA
:101B00004FF0A84253463146284603F0D7FD3A46E7
:101B1000434603F029FB159A12F0004F04D0129AA5
:101B200081F0004152421292C4E90001129817B0AC
:101B3000BDE8F08FFB21E93F7CD90240FB21F93F52
:101B40007370032E8A19A33B000040543163621A5C
:101B500061B4D03DFB21394183C8C96D305FE43F9A
:101B60000000E03F6C780000E8770000CA770000D2
:101B7000182D4454FB21F93D3326A611460B113C88
:101B80002DE9FF4D21F0004807460C46B8F1795F7A
:101B900008DA03F0FDFC002801BF0020324904B040
:101BA000BDE8F08D3A4623461046194603F086FDFF
:101BB000054602462D480E460B460621784400F0A5
:101BC0005DF82A46334603F079FDDDE902238246BB
:101BD0008B463846214603F071FD04460F465246B7
:101BE0005B462846314603F069FD22463B4603F03A
:101BF000A5FE07468A464FF0FF322846314604F0DC
:101C000096FA1B4A90450ADA3A46534603F096FE86
:101C100004B00022BDE8F04D134B03F083BE154A1B
:101C20004245A8BFA8F500154FF00004B8BF124DFB
:101C300022462B4603F082FE0646884622462B4665
:101C40000020094903F07AFE04460D463A46534601
:101C50003046414603F072FE04B022462B46BDE8F2
:101C6000F04D03F05FBE00000000F03FA0750000E3
:101C70003333D33F0000E93F0000D23F2DE9F0416C
:101C80004F1E00EBC7010446D1E9000115461E4670
:101C900037F006020DD02A46334603F00FFD7F1EB3
:101CA00004EBC703D3E9002303F05EFA37F0060222
:101CB000F1D1022F25D0042F13D0062F18BFBDE875
:101CC000F0812A46334603F0F9FCD4E90A2303F0F5
:101CD0004BFA2A46334603F0F1FCD4E9082303F01B
:101CE00043FA2A46334603F0E9FCD4E9062303F01D
:101CF0003BFA2A46334603F0E1FCD4E9042303F01F
:101D000033FA2A46334603F0D9FCD4E9022303F020
:101D10002BFA2A46334603F0D1FCD4E90023BDE870
:101D2000F04103F021BA00002DE9FF4D054621F0F6
:101D3000004084B00C46B0F1795F0BDA2846FFF71B
:101D40002BFD042808BF00F06FF8284608B0214694
:101D5000BDE8F08D2A460B46104603F0AFFC064660
:101D60000F462A46234603F0A9FC804626488A46A9
:101D700032463B4605217844FFF780FF83461098A2
:101D8000029160B3214A224B4046514603F096FC33
:101D9000CDE900015A4640465146029B03F08EFCB5
:101DA00082468846DDE906014FF0FF3204F0BFF9B4
:101DB0005246434603F0C2FD32463B4603F07EFCEA
:101DC000DDE9062303F0BAFDDDE9002303F0B6FDEB
:101DD00008B02A462346BDE8F04D03F0A3BD0B46EC
:101DE0005A463046394603F069FC084A084B03F06E
:101DF000BBF94246534603F061FC08B02A4623462D
:101E0000BDE8F04D03F0B0B9DE74000049555555FA
:101E10005555C5BF012204F08AB900221346104669
:101E2000114603F05DBA0000024A0020110704F0D9
:101E30007EB9000001FDFFFF00BF704710B500BF75
:101E4000012291020248FEF741FD00BF10BD0000D3
:101E50000010014038B5044640F2DF1340F23F1253
:101E600000210846009400F0B0F938BD00B585B0F7
:101E70000020019002900390049000BF00BF1B4817
:101E8000806940F01000194988610846806900F0B7
:101E90001000009000BF00BF00BF00BF00BF084699
:101EA000806940F0100088610846806900F01000E9
:101EB000009000BF00BF00BF0220019000200290F0
:101EC000012003900320049001A90948FEF74CFB70
:101ED0004FF40050019001200290039003200490E1
:101EE00001A90348FEF740FB05B000BD0010024009
:101EF000001001402DE9F04186B005460E460EB1B6
:101F0000052E03DD002006B0BDE8F081002408E0C6
:101F100004EB440005EB400008B90020F3E7601C27
:101F2000C4B2B442F4DB012205A948F24E1002F01B
:101F3000CFF99DF8140000F0800080287ED19DF834
:101F4000140000F00F07BE4201DA304600E03846C8
:101F5000074600247EE0474931F81400062203A911
:101F600002F0B6F99DF80C009DF80D1040EA012032
:101F7000ADF804009DF80E009DF80F1040EA012016
:101F8000ADF806009DF810009DF8111040EA012000
:101F9000ADF8080000F06EF98046B8F1000F09D0E6
:101FA000B8F1010F14D0B8F1020F22D0B8F1030F2D
:101FB00046D132E0BDF8040004EB440125F81100DD
:101FC000BDF8060004EB440105EB4101488037E011
:101FD000BDF8060004EB440125F8110000F050F9AB
:101FE000BDF80410401A04EB440105EB41014880A0
:101FF00026E000F04BF9BDF80410401A04EB440150
:1020000025F8110000F03CF9BDF80610401A04EB69
:10201000440105EB4101488012E000F037F9BDF8BA
:102020000610401A04EB440125F81100BDF8040025
:1020300004EB440105EB4101488000E017E000BFDC
:1020400000BFBDF8080004EB440105EB41018880A6
:10205000601CC4B2BC42FFF67EAF00200590012296
:1020600005A948F24E1002F04BFA38464BE7002023
:1020700049E700005291000810B5292000F016FA37
:1020800010BD2DE9F05F06460F4691469B46C9F10B
:10209000000400254FEA4900C0F1020800BF7A1988
:1020A00091B2321B90B25A4600F07DF87A1991B283
:1020B000321990B25A4600F076F87A1B91B2321972
:1020C00090B25A4600F06FF87A1B91B2321B90B270
:1020D0005A4600F068F8C246AA450ADC6D1C012089
:1020E00000EB45008044EC4203D1A24501DC4FF0F7
:1020F000000AA24504DD641C012000EB440080447A
:10210000002CCCDDBDE8F09F2DE9FC5F04460D46B8
:1021100016461F46B44201DA301B00E0A01B1FFA2E
:1021200080F8BD4201DA781B00E0E81B1FFA80F955
:10213000B44201DA012001E04FF0FF300190BD42CE
:1021400001DA012001E04FF0FF300090A8EB090018
:102150000FFA80FA394630460C9A00F024F81CE059
:10216000294620460C9A00F01EF84FEA4A000FFA62
:1021700080FBC9F10000834506DDAAEB09000FFAD8
:1021800080FA0198204484B2C34506DA0AEB0800BD
:102190000FFA80FA0098284485B2B442E0D1BD42DB
:1021A000DED1BDE8FC9F70B504460D4616462146BB
:1021B000204601F033FB2946284601F079FB01F067
:1021C00004FD304600F090F970BD2DE9F047074658
:1021D0000C4615461E46DDF820A02946384601F07B
:1021E0001DFB3146204601F063FB01F0EEFCA146E9
:1021F0000EE0B84606E0504600F076F908F101001E
:102200001FFA80F8A845F6DD09F101001FFA80F9F0
:10221000B145EEDDBDE8F08710B5D42000F046F9F9
:1022200000F000F9044600F0FDF8044600F0FAF86A
:102230004FF6FF7101EA002400F0F4F8C0B2044345
:1022400045F21030844212D0D32000F02FF900F074
:10225000E9F8044600F0E6F8044600F0E3F84FF62B
:10226000FF7101EA002400F0DDF8C0B2044320460B
:1022700010BD00000148C079704700009C0000209C
:1022800001488088704700009C0000200148408879
:10229000704700009C00002000B585B00020019030
:1022A00002900390049000BF00BF5A48806940F03C
:1022B0001000584988610846806900F010000090BD
:1022C00000BF00BF00BF00BF00BF0846806940F0EC
:1022D000100088610846806900F01000009000BF7F
:1022E00000BF00BF00BF00BF0846806940F010007B
:1022F00088610846806900F01000009000BF00BFB0
:1023000000BF00BF00BF0846806940F01000886130
:102310000846806900F01000009000BF00BF00BFB9
:1023200000BF00BF0846806940F008008861084689
:10233000806900F00800009000BF00BF00BF0846A1
:10234000806940F0010088610846806900F0010062
:10235000009000BF00BF00BF2F49486820F0E06038
:1023600040F00070486000BF00BF88150190012058
:10237000029003900320049001A92848FEF7F4F886
:102380004FF400700190012002900390032004900C
:1023900001A92248FEF7E8F84020019001200290B0
:1023A00003900320049001A91C48FEF7DDF880206B
:1023B00001900120029003900320049001A9174886
:1023C000FEF7D2F84FF6FF700190012002900390C3
:1023D0000320049001A91248FEF7C6F800BF4FF48D
:1023E00080700E49086100BF00BF4000086100BF57
:1023F00000BF4020086100BF00BF8020086100BF0F
:1024000000BF4FF6FF7006490C31086000BF05B0F1
:1024100000BD00000010024000000140001001401B
:10242000000C01401FB50020009001900290039025
:102430004FF6FF70009000200190012002900320D1
:10244000039069461748FEF78FF800BF4FF480707D
:102450001549086100BF00BF4000486100BF00BFD0
:102460004020486100BF00BF00BF0E480830006830
:1024700084B200BF40200C49086100BF00BFC0000B
:10248000086100BF4FF6FF7000900120019002909C
:102490000320039069460348FEF766F8204604B01F
:1024A00010BD0000000C01400010014000BF4FF4BF
:1024B00080710B4A516100BF00BF4900516100BFEC
:1024C00000BF0849086000BF00BF8021516100BF04
:1024D00000BF116100BF00BF8900116100BF7047DC
:1024E000001001400C0C014000BF4FF480710B4AFA
:1024F000116100BF00BF4900516100BF00BF084922
:10250000086000BF00BF8021516100BF00BF1161A2
:1025100000BF00BF8900116100BF7047001001407B
:102520000C0C014010B504460B462046FFF7BEFFD9
:102530001846FFF7D9FF10BD00B585B00020019007
:1025400002900390049000BF00BF1148806940F0E2
:1025500010000F4988610846806900F01000009063
:1025600000BF00BF00BF081501900120029003903A
:102570000320049001A90748FDF7F6FF00BF0022E1
:102580004FF480610348FEF7A1F900BF05B000BD1C
:10259000001002400010014010B5FFF7CDFFFFF71B
:1025A0007BFEFFF739FE044645F21030844205D029
:1025B00047F29670844201D0012010BD0D4804807E
:1025C0004FF4A0700B4948804FF4F070888000F001
:1025D00015F8002001F036F94FF6FF70FFF73AFCCE
:1025E000FFF74AFDFFF72AFC01F0BEFF0249087021
:1025F0000020E2E79C0000209A00002010B5FE4871
:10260000008845F21031884240F07B87ED20FFF7CB
:102610004DFF0120FFF768FFFE20FFF765FFEE206A
:10262000FFF744FFDE20FFF75FFF2120FFF75CFF8D
:10263000F120FFF73BFF0120FFF756FFDF20FFF7F8
:1026400035FF1020FFF750FFC420FFF72FFF8F202A
:10265000FFF74AFFC620FFF729FF0020FFF744FFDE
:10266000E220FFF741FFE220FFF73EFFE220FFF705
:102670003BFFBF20FFF71AFFAA20FFF735FFB0206E
:10268000FFF714FF0D20FFF72FFF0020FFF72CFFAF
:102690000D20FFF729FF0020FFF726FF1120FFF78D
:1026A00023FF0020FFF720FF1920FFF71DFF002068
:1026B000FFF71AFF2120FFF717FF0020FFF714FF95
:1026C0002D20FFF711FF0020FFF70EFF3D20FFF741
:1026D0000BFF0020FFF708FF5D20FFF705FF00203C
:1026E000FFF702FF5D20FFF7FFFE0020FFF7FCFE73
:1026F000B120FFF7DBFE8020FFF7F6FE0020FFF79A
:10270000F3FE8B20FFF7F0FE0020FFF7EDFE962092
:10271000FFF7EAFE0020FFF7E7FEB220FFF7C6FE54
:102720000020FFF7E1FE0020FFF7DEFE0220FFF7AA
:10273000DBFE0020FFF7D8FE0320FFF7D5FE0020C8
:10274000FFF7D2FEB320FFF7B1FE0020FFF7CCFE6B
:102750000020FFF7C9FE0020FFF7C6FE0020FFF7AC
:10276000C3FE0020FFF7C0FE0020FFF7BDFE0020E3
:10277000FFF7BAFE0020FFF7B7FE0020FFF7B4FE18
:102780000020FFF7B1FE0020FFF7AEFE0020FFF7AC
:10279000ABFE0020FFF7A8FE0020FFF7A5FE0020FB
:1027A000FFF7A2FE0020FFF79FFE0020FFF79CFE30
:1027B0000020FFF799FE0020FFF796FE0020FFF7AC
:1027C00093FE0020FFF790FE0020FFF78DFE002013
:1027D000FFF78AFE0020FFF787FEB420FFF766FEB2
:1027E0008B20FFF781FE0020FFF77EFE9620FFF78B
:1027F0007BFE0020FFF778FEA120FFF775FE00208A
:10280000FFF772FEB520FFF751FE0220FFF76CFEC6
:102810000020FFF769FE0320FFF766FE0020FFF7A8
:1028200063FE0420FFF760FE0020FFF75DFEB62088
:10283000FFF73CFE0020FFF757FE0020FFF754FE95
:10284000B720FFF733FE0020FFF74EFE0020FFF712
:102850004BFE3F20FFF748FE0020FFF745FE5E20BD
:10286000FFF742FE0020FFF73FFE6420FFF73CFE2B
:102870000020FFF739FE8C20FFF736FE0020FFF71F
:1028800033FEAC20FFF730FE0020FFF72DFEDC20EA
:10289000FFF72AFE0020FFF727FE7020FFF724FE37
:1028A0000020FFF721FE9020FFF71EFE0020FFF71B
:1028B0001BFEEB20FFF718FE0020FFF715FEDC20C3
:1028C000FFF712FE0020FFF70FFEB820FFF7EEFD26
:1028D0000020FFF709FE0020FFF706FE0020FFF7AB
:1028E00003FE0020FFF700FE0020FFF7FDFD0020A3
:1028F000FFF7FAFD0020FFF7F7FD0020FFF7F4FDDA
:10290000BA20FFF7D3FD2420FFF7EEFD0020FFF7EC
:10291000EBFD0020FFF7E8FD0020FFF7E5FDC120FB
:10292000FFF7C4FD2020FFF7DFFD0020FFF7DCFDEF
:102930005420FFF7D9FD0020FFF7D6FDFF20FFF759
:10294000D3FD0020FFF7D0FDC220FFF7AFFD0A2026
:10295000FFF7CAFD0020FFF7C7FD0420FFF7C4FD05
:102960000020FFF7C1FDC320FFF7A0FD3C20FFF7CB
:10297000BBFD0020FFF7B8FD3A20FFF7B5FD0020B2
:10298000FFF7B2FD3920FFF7AFFD0020FFF7ACFDE8
:102990003720FFF7A9FD0020FFF7A6FD3C20FFF739
:1029A000A3FD0020FFF7A0FD3620FFF79DFD0020CE
:1029B000FFF79AFD3220FFF797FD0020FFF794FD07
:1029C0002F20FFF791FD0020FFF78EFD2C20FFF751
:1029D0008BFD0020FFF788FD2920FFF785FD0020F3
:1029E000FFF782FD2620FFF77FFD0020FFF77CFD2B
:1029F0002420FFF779FD01E09C0000200020FFF774
:102A000073FD2420FFF770FD0020FFF76DFD2320EC
:102A1000FFF76AFD0020FFF767FD3C20FFF764FD2C
:102A20000020FFF761FD3620FFF75EFD0020FFF775
:102A30005BFD3220FFF758FD0020FFF755FD2F20EA
:102A4000FFF752FD0020FFF74FFD2C20FFF74CFD54
:102A50000020FFF749FD2920FFF746FD0020FFF782
:102A600043FD2620FFF740FD0020FFF73DFD242019
:102A7000FFF73AFD0020FFF737FD2420FFF734FD74
:102A80000020FFF731FD2320FFF72EFD0020FFF788
:102A90002BFDC420FFF70AFD6220FFF725FD002073
:102AA000FFF722FD0520FFF71FFD0020FFF71CFDAB
:102AB0008420FFF719FD0020FFF716FDF020FFF737
:102AC00013FD0020FFF710FD1820FFF70DFD00207B
:102AD000FFF70AFDA420FFF707FD0020FFF704FD24
:102AE0001820FFF701FD0020FFF7FEFC5020FFF744
:102AF000FBFC0020FFF7F8FC0C20FFF7F5FC0020A2
:102B0000FFF7F2FC1720FFF7EFFC0020FFF7ECFCCB
:102B10009520FFF7E9FC0020FFF7E6FCF320FFF724
:102B2000E3FC0020FFF7E0FCE620FFF7DDFC0020DF
:102B3000FFF7DAFCC520FFF7B9FC3220FFF7D4FC21
:102B40000020FFF7D1FC4420FFF7CEFC0020FFF768
:102B5000CBFC6520FFF7C8FC0020FFF7C5FC762002
:102B6000FFF7C2FC0020FFF7BFFC8820FFF7BCFC8A
:102B70000020FFF7B9FCC620FFF798FC2020FFF7E4
:102B8000B3FC0020FFF7B0FC1720FFF7ADFC0020DE
:102B9000FFF7AAFC0120FFF7A7FC0020FFF7A4FC29
:102BA000C720FFF783FC0020FFF79EFC0020FFF703
:102BB0009BFC0020FFF798FC0020FFF795FCC82045
:102BC000FFF774FC0020FFF78FFC0020FFF78CFC60
:102BD0000020FFF789FC0020FFF786FCC920FFF7E3
:102BE00065FC0020FFF780FC0020FFF77DFC002043
:102BF000FFF77AFC0020FFF777FC0020FFF774FC5A
:102C00000020FFF771FC0020FFF76EFC0020FFF7AB
:102C10006BFC0020FFF768FC0020FFF765FC00203C
:102C2000FFF762FC0020FFF75FFC0020FFF75CFC71
:102C30000020FFF759FC0020FFF756FC0020FFF7AB
:102C400053FCE020FFF732FC1620FFF74DFC00207C
:102C5000FFF74AFC1C20FFF747FC0020FFF744FC6D
:102C60002120FFF741FC0020FFF73EFC3620FFF754
:102C70003BFC0020FFF738FC4620FFF735FC002026
:102C8000FFF732FC5220FFF72FFC0020FFF72CFC4F
:102C90006420FFF729FC0020FFF726FC7A20FFF7CD
:102CA00023FC0020FFF720FC8B20FFF71DFC0020F9
:102CB000FFF71AFC9920FFF717FC0020FFF714FC20
:102CC000A820FFF711FC0020FFF70EFCB920FFF74A
:102CD0000BFC0020FFF708FCC420FFF705FC0020D8
:102CE000FFF702FCCA20FFF7FFFB0020FFF7FCFB09
:102CF000D220FFF7F9FB0020FFF7F6FBD920FFF702
:102D0000F3FB0020FFF7F0FBE020FFF7EDFB0020D6
:102D1000FFF7EAFBF320FFF7E7FB0020FFF7E4FBF8
:102D2000E120FFF7C3FB1620FFF7DEFB0020FFF7D3
:102D3000DBFB1C20FFF7D8FB0020FFF7D5FB222090
:102D4000FFF7D2FB0020FFF7CFFB3620FFF7CCFBCD
:102D50000020FFF7C9FB4520FFF7C6FB0020FFF767
:102D6000C3FB5220FFF7C0FB0020FFF7BDFB642030
:102D7000FFF7BAFB0020FFF7B7FB7A20FFF7B4FBA1
:102D80000020FFF7B1FB8B20FFF7AEFB0020FFF721
:102D9000ABFB9920FFF7A8FB0020FFF7A5FBA820BD
:102DA000FFF7A2FB0020FFF79FFBB920FFF79CFB7A
:102DB0000020FFF799FBC420FFF796FB0020FFF7E8
:102DC00093FBCA20FFF790FB0020FFF78DFBD2207A
:102DD000FFF78AFB0020FFF787FBD820FFF784FB73
:102DE0000020FFF781FBE020FFF77EFB0020FFF7CC
:102DF0007BFBF320FFF778FB0020FFF775FBE22059
:102E0000FFF754FB0520FFF76FFB0020FFF76CFB7B
:102E10000B20FFF769FB0020FFF766FB1B20FFF785
:102E200063FB0020FFF760FB3420FFF75DFB002011
:102E3000FFF75AFB4420FFF757FB0020FFF754FB36
:102E40004F20FFF751FB0020FFF74EFB6120FFF7FB
:102E50004BFB0020FFF748FB7920FFF745FB0020E4
:102E6000FFF742FB8820FFF73FFB0020FFF73CFB0A
:102E70009720FFF739FB0020FFF736FBA620FFF76E
:102E800033FB0020FFF730FBB720FFF72DFB0020BE
:102E9000FFF72AFBC220FFF727FB0020FFF724FBE8
:102EA000C720FFF721FB0020FFF71EFBD120FFF713
:102EB0001BFB0020FFF718FBD620FFF715FB0020B7
:102EC000FFF712FBDD20FFF70FFB0020FFF70CFBE5
:102ED000F320FFF709FB0020FFF706FBE320FFF7D5
:102EE000E5FA0520FFF700FB0020FFF7FDFA0A20B6
:102EF000FFF7FAFA0020FFF7F7FA1C20FFF7F4FAC1
:102F00000020FFF7F1FA3320FFF7EEFA0020FFF779
:102F1000EBFA4420FFF7E8FA0020FFF7E5FA50202B
:102F2000FFF7E2FA0020FFF7DFFA6220FFF7DCFA92
:102F30000020FFF7D9FA7820FFF7D6FA0020FFF734
:102F4000D3FA8820FFF7D0FA0020FFF7CDFA9720B8
:102F5000FFF7CAFA0020FFF7C7FAA620FFF7C4FA66
:102F60000020FFF7C1FAB720FFF7BEFA0020FFF7F5
:102F7000BBFAC220FFF7B8FA0020FFF7B5FAC72066
:102F8000FFF7B2FA0020FFF7AFFAD120FFF7ACFA53
:102F90000020FFF7A9FAD520FFF7A6FA0020FFF7D7
:102FA000A3FADD20FFF7A0FA0020FFF79DFAF32037
:102FB000FFF79AFA0020FFF797FAE420FFF776FA76
:102FC0000120FFF791FA0020FFF78EFA0120FFF7AA
:102FD0008BFA0020FFF788FA0220FFF785FA00201D
:102FE000FFF782FA2A20FFF77FFA0020FFF77CFA2A
:102FF0003C20FFF779FA0020FFF776FA4B20FFF725
:1030000073FA0020FFF770FA5D20FFF76DFA0020D9
:10301000FFF76AFA7420FFF767FA0020FFF764FAF7
:103020008420FFF761FA0020FFF75EFA9320FFF794
:103030005BFA0020FFF758FAA220FFF755FA0020AC
:10304000FFF752FAB320FFF74FFA0020FFF74CFAD0
:10305000BE20FFF749FA0020FFF746FAC420FFF729
:1030600043FA0020FFF740FACD20FFF73DFA002099
:10307000FFF73AFAD320FFF737FA0020FFF734FAC8
:10308000DD20FFF731FA0020FFF72EFAF320FFF7DB
:103090002BFA0020FFF728FAE520FFF707FA0020B7
:1030A000FFF722FA0020FFF71FFA0020FFF71CFAB3
:1030B0000020FFF719FA0220FFF716FA0020FFF7A9
:1030C00013FA2920FFF710FA0020FFF70DFA3C2031
:1030D000FFF70AFA0020FFF707FA4B20FFF704FA80
:1030E0000020FFF701FA5D20FFF7FEF90020FFF74F
:1030F000FBF97420FFF7F8F90020FFF7F5F98420B9
:10310000FFF7F2F90020FFF7EFF99320FFF7ECF952
:103110000020FFF7E9F9A220FFF7E6F90020FFF70A
:10312000E3F9B320FFF7E0F90020FFF7DDF9BE2057
:10313000FFF7DAF90020FFF7D7F9C420FFF7D4F939
:103140000020FFF7D1F9CD20FFF7CEF90020FFF7DF
:10315000CBF9D320FFF7C8F90020FFF7C5F9DC2031
:10316000FFF7C2F90020FFF7BFF9F320FFF7BCF922
:103170000020FFF7B9F9E620FFF798F91120FFF7D3
:10318000B3F90020FFF7B0F93420FFF7ADF90020C4
:10319000FFF7AAF95620FFF7A7F90020FFF7A4F9D7
:1031A0007620FFF7A1F90020FFF79EF97720FFF7BF
:1031B0009BF90020FFF798F96620FFF795F90020AA
:1031C000FFF792F98820FFF78FF90020FFF78CF9BD
:1031D0009920FFF789F90020FFF786F9BB20FFF758
:1031E00083F90020FFF780F99920FFF77DF900208F
:1031F000FFF77AF96620FFF777F90020FFF774F9F7
:103200005520FFF771F90020FFF76EF95520FFF701
:103210006BF90020FFF768F94520FFF765F90020FA
:10322000FFF762F94320FFF75FF90020FFF75CF931
:103230004420FFF759F90020FFF756F9E720FFF780
:1032400035F93220FFF750F90020FFF74DF95520EE
:10325000FFF74AF90020FFF747F97620FFF744F916
:103260000020FFF741F96620FFF73EF90020FFF745
:103270003BF96720FFF738F90020FFF735F96720A1
:10328000FFF732F90020FFF72FF98720FFF72CF91D
:103290000020FFF729F99920FFF726F90020FFF712
:1032A00023F9BB20FFF720F90020FFF71DF9992033
:1032B000FFF71AF90020FFF717F97720FFF714F945
:1032C0000020FFF711F94420FFF70EF90020FFF767
:1032D0000BF95620FFF708F90020FFF705F9232026
:1032E000FFF702F90020FFF7FFF83320FFF7FCF8A3
:1032F0000020FFF7F9F84520FFF7F6F80020FFF768
:10330000F3F8E820FFF7D2F80020FFF7EDF80020EF
:10331000FFF7EAF89920FFF7E7F80020FFF7E4F855
:103320008720FFF7E1F80020FFF7DEF88820FFF79D
:10333000DBF80020FFF7D8F87720FFF7D5F800205A
:10334000FFF7D2F86620FFF7CFF80020FFF7CCF8A0
:103350008820FFF7C9F80020FFF7C6F8AA20FFF77A
:10336000C3F80020FFF7C0F8BB20FFF7BDF800202E
:10337000FFF7BAF89920FFF7B7F80020FFF7B4F885
:103380006620FFF7B1F80020FFF7AEF85520FFF7F1
:10339000ABF80020FFF7A8F85520FFF7A5F80020AC
:1033A000FFF7A2F84420FFF79FF80020FFF79CF8F2
:1033B0004420FFF799F80020FFF796F85520FFF713
:1033C00093F80020FFF790F8E920FFF76FF8AA20A4
:1033D000FFF78AF80020FFF787F80020FFF784F84E
:1033E0000020FFF781F80020FFF760F8AA20FFF720
:1033F0007BF8CF20FFF75AF80020FFF775F8002080
:10340000FFF772F80020FFF76FF80020FFF76CF865
:103410000020FFF769F80020FFF766F80020FFF7AB
:1034200063F80020FFF760F80020FFF75DF8002048
:10343000FFF75AF80020FFF757F80020FFF754F87D
:103440000020FFF751F80020FFF74EF80020FFF7AB
:103450004BF80020FFF748F80020FFF745F8F02070
:10346000FFF724F80020FFF73FF85020FFF73CF863
:103470000020FFF739F80020FFF736F80020FFF7AB
:1034800033F8F320FFF712F80020FFF72DF8F920AA
:10349000FFF70CF80620FFF727F81020FFF724F8B5
:1034A0002920FFF721F80020FFF71EF83A20FEF749
:1034B000FDFF5520FFF718F81120FEF7F7FF6420F5
:1034C00001F0FEF92920FEF7F1FF3520FEF7EEFFAF
:1034D0000020FFF709F85120FEF7E8FFFF20FFF773
:1034E00003F85320FEF7E2FF2C20FEF7FDFF5520E6
:1034F000FEF7DCFF8220FEF7F7FF2C20FEF7D6FF59
:10350000E6E07448008847F296718842F8D11120AD
:10351000FEF7CCFF782001F0D3F93620FEF7C6FF86
:103520004820FEF7E1FF3A20FEF7C0FF5520FEF7E6
:10353000DBFFF020FEF7BAFFC320FEF7D5FFF02037
:10354000FEF7B4FF9620FEF7CFFFB420FEF7AEFFE4
:103550000120FEF7C9FFB620FEF7A8FF0A20FEF7FC
:10356000C3FFA220FEF7C0FFB720FEF79FFFC620D3
:10357000FEF7BAFFB920FEF799FF0220FEF7B4FF6D
:10358000E020FEF7B1FFC020FEF790FF8020FEF79D
:10359000ABFF1620FEF7A8FFC120FEF787FF19201A
:1035A000FEF7A2FFC220FEF781FFA720FEF79CFFD7
:1035B000C520FEF77BFF1620FEF796FFE820FEF7FA
:1035C00075FF4020FEF790FF8A20FEF78DFF002058
:1035D000FEF78AFF0020FEF787FF2920FEF784FF11
:1035E0001920FEF781FFA520FEF77EFF3320FEF7AE
:1035F0007BFFE020FEF75AFFF020FEF775FF072063
:10360000FEF772FF0D20FEF76FFF0420FEF76CFF40
:103610000520FEF769FF1420FEF766FF3620FEF74F
:1036200063FF5420FEF760FF4C20FEF75DFF38205B
:10363000FEF75AFF1320FEF757FF1420FEF754FF42
:103640002E20FEF751FF3420FEF74EFFE120FEF75B
:103650002DFFF020FEF748FF1020FEF745FF142055
:10366000FEF742FF0E20FEF73FFF0C20FEF73CFF67
:103670000820FEF739FF3520FEF736FF4420FEF71D
:1036800033FF4C20FEF730FF2620FEF72DFF1020E1
:10369000FEF72AFF1220FEF727FF2C20FEF724FF5B
:1036A0003220FEF721FFF020FEF700FF3C20FEF75E
:1036B0001BFFF020FEF7FAFE6920FEF715FF7820C9
:1036C00001F0FEF82120FEF7F1FE2920FEF7EEFEC4
:1036D00010BD00009C00002000B585B000200190C6
:1036E00002900390049000BF00BF0E48806940F034
:1036F00010000C4988610846806900F010000090B5
:1037000000BF00BF00BF02200190002002900120F6
:1037100003900320049001A90348FCF725FF05B09E
:1037200000BD000000100240001001402DE9FC5FC8
:1037300006460F4602213548FDF7B6F8002862D14B
:10374000D02000F0A4FC8146902000F0A0FC82462E
:103750002F490989A9EB010108B202F049FB009049
:103760002B480168009802F061FA8346294902F06B
:10377000FBF9019002F01CFB84B225494989AAEBB0
:10378000010108B202F034FB009021484168009822
:1037900002F04CFA2049019002F0E6F9834602F06B
:1037A00007FB85B2B4F5A07F02DAB5F5F07F02DB46
:1037B0000120BDE8FC9FFEF75DFD8046B8F10000EA
:1037C00006D0012807D002280BD0032818D111E019
:1037D00034803D8014E03580FEF752FD001B3880B8
:1037E0000EE0FEF753FD001B3080FEF749FD401B45
:1037F000388005E0FEF74AFD401B30803C8000BF6A
:1038000000BF0020D5E70220D3E7000000100140F0
:10381000B0010020000020430000704370B5044652
:103820000D462A20FEF742FE200AFEF75DFEE0B2BA
:10383000FEF75AFE280AFEF757FEE8B2FEF754FEDE
:1038400070BD000010B5044634B1012C0CD0022C20
:1038500012D0032C20D117E04FF4A07013494880F8
:103860004FF4F070888019E04FF4F0700F494880F1
:103870004FF4A070888011E04FF4A0700B4948808D
:103880004FF4F070888009E04FF4F07007494880E9
:103890004FF4A070888001E0022010BD00BF0348F3
:1038A000C471002000F018F80020F6E79C0000200A
:1038B00070B504460D462B20FEF7F8FD200AFEF7F2
:1038C00013FEE0B2FEF710FE280AFEF70DFEE8B286
:1038D000FEF70AFE70BD000070B505464648C07987
:1038E00030B1012806D0022824D0032862D141E05B
:1038F0002C4661E005F01F00C0B96811082815D2F8
:10390000DFE800F0040C080E06100A1260240FE035
:1039100020240DE0E0240BE0A02409E0402407E08F
:10392000C02405E0002403E0802401E0022070BDF3
:1039300000BF41E005F01F00C0B96811082815D28A
:10394000DFE800F0040C080E06100A12C0240FE095
:1039500040240DE080240BE0002409E0E02407E08F
:10396000A02405E0602403E0202401E00220DEE73B
:1039700000BF21E005F01F00C0B96811082815D26A
:10398000DFE800F0040C080E06100A12A0240FE075
:10399000E0240DE020240BE0602409E0802407E00F
:1039A000002405E0C02403E0402401E00220BEE73B
:1039B00000BF01E00120BAE700BF0F498C71084643
:1039C000008847F29671884201D144F008042146EC
:1039D0003620FEF7A7FD08484088401E81B200202F
:1039E000FFF71CFF04488088401E81B20020FFF7CB
:1039F0005FFF00209BE700009C0000202DE9FF4FA7
:103A000085B082468B4600200290019007982038AE
:103A100000F0FF08089830B101280DD0022812D01C
:103A2000032820D118E008EB4800324901EB80055B
:103A300006260C240C2719E02F4800EB0815082651
:103A40001024102712E008EBC8002C4901EB800578
:103A50000C261824242709E0294800EB8815102695
:103A60002024402702E009B0BDE8F08F00BF0AEB38
:103A70000600B0F5A07F04DC0BEB0400B0F5F07F8E
:103A800000DDF0E74FF0000930E015F80900049080
:103A90000020039022E0049800F0800040B1019AD9
:103AA0005A4491B2029A524490B2129AFEF77BFBAA
:103AB0000198401CC0B201900198A04206D100209C
:103AC00001900298401CC0B202900AE0049840069F
:103AD000000E04900398401CC0B20390039808287D
:103AE000D9DB00BF09F1010000F0FF09B945CCDBCB
:103AF00000BFB8E7D261000846660008366C0008CF
:103B0000927900082DE9FF5F04460D4692469B46D8
:103B1000DDF838800F9830B1012807D0022808D08E
:103B200003280CD108E006260C270AE008261027F7
:103B300007E00C26182704E01026202701E0BDE846
:103B4000FF9F00BFA146039504EB0A00401CB0F59F
:103B5000A07F02DD4FF4A07002E004EB0A00401CDD
:103B600080B2029005EB0B00401CB0F5F07F02DD47
:103B70004FF4F07002E005EB0B00401C80B20190A6
:103B800019E0A1190298814202DB4C46E81985B27E
:103B9000E9190198814201DB4D46039C1098009081
:103BA00098F80020294620460F9BFFF727FFA01911
:103BB00084B208F1010898F80000202803DB98F887
:103BC00000007E28DDDD00BFB9E710B52C20FEF730
:103BD0006DFC10BD2DE9F04F8FB04FF6FF70FEF772
:103BE00039F94FF478400121E24A4FF4C873CDE926
:103BF00000210290F02228210846FFF783FFB7E159
:103C000000200990B0E10998062817D2DFE800F0FB
:103C10000317283E5976FEF733FB40100890FEF755
:103C200035FB40104FF6FF720790089900F0BAF983
:103C30004FF478421421084600F0B4F96FE14FF6D2
:103C4000FF721421084600F0ADF9FEF71FFB14388F
:103C500080B24FF478421421089000F0A3F95EE19D
:103C6000FEF714FB143880B24FF6FF72142108904F
:103C700000F098F9FEF704FB143880B24FF4784254
:103C800001460890142000F08DF948E1FEF7F8FA9B
:103C9000143880B24FF6FF7201460890142000F0ED
:103CA00081F9FEF7EDFA143880B20890FEF7EEFACB
:103CB000143880B24FF478420790089900F072F9F6
:103CC0002DE1FEF7DDFA143880B20890FEF7DEFA37
:103CD000143880B24FF6FF720790089900F062F92D
:103CE000FEF7CEFA40100890FEF7D0FA40104FF4DD
:103CF00078420790089900F055F910E1BDF82C00C2
:103D0000BDF82810401A0FFA80F8BDF83400BDF84D
:103D10003010401A0FFA80FABDF83610BDF82E00A8
:103D2000081A0FFA80F9BDF83200BDF82A10401ABF
:103D30000FFA80FB504601F05AFCCDE906014046DF
:103D400001F055FCCDE90401DDE9062301F0C8FAD4
:103D500004460D46584601F04AFCCDE906014846A6
:103D600001F045FCCDE90401DDE9062301F0B8FAD4
:103D700006460F46002213462046294601F062FC03
:103D800001D285F00045002213463046394601F045
:103D900059FC01D287F000474FF06632764B20463F
:103DA000294601F04FFC6DD3744A754B20462946D5
:103DB00001F082FD66D34FF066326F4B30463946D4
:103DC00001F040FC5ED36D4A6D4B3046394601F040
:103DD00073FD57D3CDF80480B8F1000F01DB0198D3
:103DE00001E001984042B0F5805F4BDACDF80890D1
:103DF000B9F1000F01DB029801E002984042B0F5F2
:103E0000805F3FDACDF80CA0BAF1000F01DB039818
:103E100001E003984042B0F5805F33DACDF810B08E
:103E2000BBF1000F01DB049801E004984042B0F5BB
:103E3000805F27DACDF81480B8F1000F01DB059818
:103E400001E005984042E8B1CDF81890B9F1000FB3
:103E500001DB069801E00698404298B1CDF81CA01D
:103E6000BAF1000F01DB079801E00798404248B122
:103E7000CDF820B0BBF1000F01DB089801E00898F5
:103E8000404200B94BE0FEF701FA283840000690A6
:103E900001F0AEFF089008EB0A0001F0A9FF0790BF
:103EA000089901F0C3FE37490860FEF7E9F92838A0
:103EB0004000069001F09CFF089009EB0B0001F018
:103EC00097FF0790089901F0B1FE2E494860BDF8B0
:103ED00038000881BDF83A102A4841814FF6FF703A
:103EE000FDF7B8FFFEF7CCF90890FEF7CFF9079081
:103EF0001F20012124A2CDE9002102906421442049
:103F0000DDE90723FFF7FEFD4FF47A7000F0D8FCDF
:103F10004FF6FF70FDF79EFF0FB0BDE8F08F00BFBA
:103F2000C82000F0CDFC00BF02211D48FCF7BCFCFE
:103F30000028F9D1D02000F0AAF80AAA099922F89D
:103F40002100902000F0A3F80AAA099902EB810150
:103F5000488000BF02211248FCF7A6FC0028F9D0D7
:103F60000998401CC0B2099009980628FFF64BAE8C
:103F700046E60000809200086666EE3FCDCCCCCCD1
:103F8000CCCCF03FB0010020546F756368205363C0
:103F90007265656E2041646A757374204F4B210011
:103FA00000100140F8B504460D46164604F10D0117
:103FB0008AB2193988B22B4629460096FEF7A4F832
:103FC00005F10D0083B2193881B2224620460096D1
:103FD000FEF79AF86A1C91B2621C90B23246FEF764
:103FE000E2F86A1C91B2621E90B23246FEF7DBF82C
:103FF0006A1E91B2621C90B23246FEF7D4F86A1E75
:1040000091B2621E90B23246FEF7CDF833460622D8
:1040100029462046FEF735F8F8BD2DE9FE438046D7
:104020000027002406E0404600F03AFB2DF814007B
:10403000601CC4B2052CF6DB002416E0601CC5B27F
:104040000FE03DF814003DF81510884207DD3DF8FB
:1040500014603DF815002DF814002DF81560681C4B
:10406000C5B2052DEDDB601CC4B2042CE6DB0124D7
:1040700005E03DF81400384487B2601CC4B2042C3B
:10408000F7DB032097FBF0F080B2BDE8FE832DE95B
:10409000F041064600BF3046FFF7BFFF05463046F9
:1040A000FFF7BBFF0446A54202DD281B87B201E0F3
:1040B000601B87B2322FEEDC28194010BDE8F0817A
:1040C00010B504460422214648F2401000F000F9E1
:1040D0000020207110BD00001FB504460020009094
:1040E0000190029003900220009001200190029024
:1040F0000320039069462B48FCF736FA142C02D0B3
:104100005D2C41D123E000BF00224FF4005125482F
:10411000FCF7DCFB00BF00BF002202212148FCF7B6
:10412000D5FB00BF00BF012202211E48FCF7CEFBD9
:1041300000BF012000F0C4FB00BF01225103194859
:10414000FCF7C4FB00BF0A2000F0BAFB1DE000BF73
:1041500000224FF400511348FCF7B8FB00BF00BF2A
:10416000002202210F48FCF7B1FB00BF012000F044
:10417000A7FB00BF012251030A48FCF7A7FB00BFC1
:104180000A2000F09DFB00E000BF00BF022000906D
:104190000020019002900320039069460148FCF73B
:1041A000E3F91FBD0010014010B500BF0022082137
:1041B0001048FCF78BFB00BF00F01EF800BF012287
:1041C00011460C48FCF782FB00BF00F015F800BF59
:1041D000002201210748FCF779FB00BF00F00CF832
:1041E00000BF012208210348FCF770FB00BF00F06C
:1041F00003F810BD0010014010B5022000F07CFB58
:1042000010BD000010B586B0044600200290039057
:104210000490059000BF00BF1A48806940F010006C
:10422000184988610846806900F01000019000BFBD
:1042300000BF00BF00BF00BF0846806940F010000B
:1042400088610846806900F01000019000BF00BF3F
:1042500000BF01200290039004900320059002A962
:104260000948FCF781F9082002901120039002A967
:104270000548FCF779F900F0F1F80448047006B03D
:1042800010BD00000010024000100140A4000020FA
:1042900010B500BF012208210C48FCF717FB00BF36
:1042A000FFF7AAFF00BF012211460848FCF70EFBEA
:1042B00000BFFFF7A1FF00BF002201210348FCF768
:1042C00005FB00BFFFF798FF10BD00000010014084
:1042D0002DE9F04105460E46174600F099F81949B8
:1042E0000978002242EA4101C8B200F05BF800F010
:1042F000D5F8280A00F056F800F0D0F8E8B200F03F
:1043000051F800F0CBF800F083F80E49097801224B
:1043100002EB4101C8B200F045F800F0BFF80024FC
:1043200005E0012000F010F83055601CC4B2781E82
:10433000A042F6DC002000F007F8305500F08EF8BF
:10434000BDE8F081A400002070B5054600240026D9
:104350001CE06006040E00BF012211461048FCF765
:10436000B5FA00BFFFF748FF08210D48FCF79CFA9B
:1043700008B1601CC4B200BF002201210848FCF74C
:10438000A5FA00BFFFF738FF701CC6B2082EE0DBAD
:1043900015B9FFF77DFF01E0FFF706FF204670BD6E
:1043A0000010014070B50446002524E000BFE0097C
:1043B00028B1012208211548FCF788FA04E0002200
:1043C00008211248FCF782FA00BFFFF715FF00BF73
:1043D000012211460D48FCF779FA00BFFFF70CFFE8
:1043E00000BF002201210948FCF770FA00BF6006F7
:1043F000040E681CC5B2082DD8DB00BF01220821BD
:104400000248FCF763FA00BF70BD000000100140D5
:1044100010B500BF012208210F48FCF757FA00BF72
:1044200000BF012211460C48FCF750FA00BFFFF70D
:10443000E3FE00BF002208210748FCF747FA00BF4F
:10444000FFF7DAFE00BF002201210348FCF73EFA25
:1044500000BFFFF7D1FE10BD0010014010B500BF36
:10446000002208210C48FCF731FA00BFFFF7C4FE18
:1044700000BF012211460848FCF728FA00BFFFF7E9
:10448000BBFE00BF012208210348FCF71FFA00BF52
:10449000FFF7B2FE10BD00000010014070B500240F
:1044A000002500BF012208211448FCF70FFA00BFC5
:1044B000FFF7A2FE00BF012211461048FCF706FAE2
:1044C00000BFFFF799FE07E0601CC4B2FA2C03DDC1
:1044D000FFF7C4FF012505E008210848FCF7E4F9CF
:1044E0000028F1D100BF00BF002201210348FCF7E2
:1044F000EDF900BFFFF780FE284670BD00100140B7
:104500002DE9F04105460F469046FFF781FF15491A
:104510000978002242EA4101C8B2FFF743FFFFF7E2
:10452000BDFF280AFFF73EFFFFF7B8FFE8B2FFF72D
:1045300039FFFFF7B3FF002609E0B85DFFF732FF50
:10454000FFF7ACFF044604B103E0701CC6B2464559
:10455000F3DB00BFFFF782FF14B10120BDE8F0815B
:104560000020FBE7A40000201CB5FDF77FFC142011
:10457000FFF7B2FD1420FFF745FE642000F0A0F91C
:104580006846FFF79DFD08A16846FBF74DFE38B170
:10459000FFF7A2F800F00CF8FFF71CFB00201CBD91
:1045A00000F016F90120FAE731313538000000003B
:1045B00000B585B00020019002900390049000BFE8
:1045C00000BF3548806940F01000334988610846D3
:1045D000806900F01000009000BF00BF00BF00BF66
:1045E00000BF0846806940F0100088610846806975
:1045F00000F01000009000BF00BF00BF00BF00BF70
:104600000846806940F0100088610846806900F023
:104610001000009000BF00BF00BF00BF00BF0846F1
:10462000806940F0100088610846806900F0100041
:10463000009000BF00BF00BF042001900020029046
:10464000012003900320049001A91448FBF78CFF7C
:10465000082001900120029003900320049001A9FA
:104660000E48FBF781FF4FF40050019001200290AB
:1046700003900320049001A90848FBF775FF01206F
:104680000190029003900320049001A90348FBF7D6
:104690006BFF05B000BD000000100240001001409B
:1046A00070B50646002400BF002201212F48FCF708
:1046B0000DF900BF00BF002208212C48FCF706F9C5
:1046C00000BF00BF00224FF400512848FCF7FEF85D
:1046D00000BF304600F04CF8062000F00DF900BF96
:1046E000002201212148FCF7F1F800BF012000F071
:1046F00003F900BF012211461C48FCF7E7F800BF90
:10470000012000F0F9F800BF002201211748FCF752
:10471000DDF800BF00251DE04FF6FF7000EA4404FD
:1047200000BF002201211148FCF7D0F800BF012092
:1047300000F0E2F800BF012211460C48FCF7C6F871
:1047400000BF04210948FCF7AFF808B1601C84B22F
:10475000681CC5B2102DDFDB241100BF01225103FC
:104760000248FCF7B3F800BF204670BD00100140BE
:1047700070B50446002525E004F0800030B100BF8C
:10478000012208211148FCF7A1F806E000BF002231
:1047900008210E48FCF79AF800BF6006040E00BF1F
:1047A000002201210948FCF791F800BF012000F028
:1047B000A3F800BF012211460448FCF787F800BFA8
:1047C000681CC5B2082DD7DB70BD00000010014089
:1047D00008B5022000900122694648F24000FFF728
:1047E0008FFE0A2000F06CF800200090012269463C
:1047F00048F24000FFF784FE08BD000000B5244BDE
:1048000021F0004287B09A42DCBF0022134629DD26
:10481000204B9A4208D140B94FF00100FBF74DFD03
:10482000FDF7FBFA07B000BD03DBFDF7F3FA07B0B5
:1048300000BD02AAFCF7E0FF10F0030104BF0DF178
:10484000080C9CE80F000DD0012001290ED0022990
:1048500014D00DF1080C00909CE80F00FDF764FAED
:1048600007B000BDFDF78CF907B000BD0DF1080CD5
:1048700000909CE80F00FDF757FA05E00DF1080CD9
:104880009CE80F00FDF77CF907B081F0004100BD06
:10489000FB21E93F0000F07F10B5044600204FF0F7
:1048A000E0210861FCF730FC2046E11704EB517170
:1048B000C1F3CF01014A118010BD00008600002025
:1048C00070B504464FF47A7094FBF0F594FBF0F168
:1048D00000FB114603E0074800F00EF86D1E002DA6
:1048E000F9D12EB14FF47A7106FB01F000F004F813
:1048F00070BD000040420F000146114A12884A4331
:104900004FF0E0235A6100229A611A46126942F080
:1049100001021A6100BF4FF0E022106900F00102AD
:104920001AB100F48032002AF5D04FF0E02212696B
:1049300022F001024FF0E0231A6100229A617047D1
:10494000860000202DE9FE4F05460F46002424E096
:1049500004EB440207EB8202A968906801F074FA44
:10496000814604EB440207EB82026968506801F05B
:104970006BFA824604EB440257F82200296801F0E2
:1049800063FA8346514601F0EFF88046494601F04C
:10499000EBF84DF82400601CC4B2032CD8DB0026D1
:1049A00005E05DF8260045F82600701CC6B2032E0F
:1049B000F7DB2846BDE8FE8F2DE9F04F9BB083461C
:1049C0000C4691469A465D49204601F02FF904466F
:1049D0005A49484601F02AF981465849504601F0A3
:1049E00025F98246204601F093F80746FFF706FFB7
:1049F000054600F087FB129000201390204601F03E
:104A000087F8074600F0E6FA054600F07BFB1490B5
:104A1000002015904FF07E511691002117912046ED
:104A200001F076F8074600F0D5FA81F0004105461E
:104A300000F068FB189000211991204601F068F8F9
:104A40000746FFF7DBFE054600F05CFB1A904FF0CF
:104A50007E50099000200A900B900C90484601F07F
:104A600057F80746FFF7CAFE054600F04BFB0D90CE
:104A7000484601F04DF8054600F0ACFA81F00041DF
:104A8000074600F03FFB0E9000200F90484601F0D3
:104A90003FF8054600F09EFA074600F033FB109001
:104AA000484601F035F80546FFF7A8FE074600F036
:104AB00029FB1190504601F02BF80746FFF79EFEA8
:104AC000054600F01FFB0090504601F021F8054616
:104AD00000F080FA81F00041074600F013FB0190DE
:104AE00000200290504601F013F8074600F072FAD9
:104AF000054600F007FB0390504601F009F8054613
:104B0000FFF77CFE074600F0FDFA049000210591B6
:104B10000020069007914FF07E5108916946584653
:104B2000FFF710FF064609A9FFF70CFF054612A97B
:104B3000FFF708FF1BB0BDE8F08F0000DA0F494017
:104B40000EB5FDF729FD044674B120A0FBF760FB0C
:104B500009E000BF4FF480712348FBF7ADFE00BFB2
:104B6000C820FFF7ADFEF4E74FF6FF70FDF772F9CE
:104B70004FF4784003211DA22023CDE900210290AB
:104B80004FF4A0720A210846FEF7BCFF4FF47840AC
:104B9000022118A21823CDE9002102904FF4A0723F
:104BA0002A210A20FEF7AEFF4FF47840012114A21B
:104BB0001023CDE9002102904FF4A07242210A2077
:104BC000FEF7A0FF01E000F023F8FCE741544B2D75
:104BD0004D443033353020696E6974206661696CEC
:104BE0006564210D0A0000000008014053544D3354
:104BF0003200000041544B2D4D443033353000001D
:104C000041544F4D40414C49454E54454B000000E6
:104C10002DE9F84F6148007840B101216048FDF767
:104C200069F9012800D10AE0002008E05C49891CEC
:104C3000881EFEF77BFD08B9012000E00020E8B1E6
:104C4000574800881C2819DDFDF720FB1C38544903
:104C50000988884212DD524840886E280EDDFDF733
:104C60000FFB1C384E494988884207DD4C480088B4
:104C70004C4908804A4840884B49088000250CE090
:104C800005EB4501494A02EB8100494B494A4FF087
:104C90007C51FFF791FE681CC5B2082DF0DB0024A3
:104CA0005FE04148008801F0BBF88346424A601C3F
:104CB000105C401E00EB40003C4A02EB8000416863
:104CC000584600F051FF824601F072F886B235482E
:104CD000008801F0A5F88346374A601C105C401E2E
:104CE00000EB4000314A52F82010584600F03CFFDB
:104CF000824601F05DF887B22B48008801F090F8F9
:104D000083462D48005D401E00EB4000274A02EB21
:104D100080004168584600F027FF824601F048F8BD
:104D20001FFA80F81F48008801F07AF8834622486D
:104D3000005D401E00EB40001C4A52F8201058460F
:104D400000F012FF824601F033F81FFA80F91F20AD
:104D500033463A46414600904846FDF7D5F9A01C37
:104D6000C4B2182C9DDB6420FFF7AAFD4FF6FF703C
:104D70000D4E009036881C36B3B20A4E36881C366B
:104D8000B2B2094E36881C3EB1B2064E36881C3E81
:104D9000B0B2FDF71AFABDE8F88F00009A000020C3
:104DA000800000207C0000207E0000200400002005
:104DB000CDCC4C3E9A99993E6400002000BF054A34
:104DC000126802F04002002AF9D0C2B2014B1B1D4A
:104DD0001A6070470038014000B585B000BF00BFC1
:104DE0002948806940F01000274988610846806999
:104DF00000F01000009000BF00BF00BF00BF00BF68
:104E00000846806940F0040088610846806900F027
:104E10000400009000BF00BF00BF00BF00BF0846F5
:104E2000806940F0040088610846806900F0040051
:104E3000009000BF00BF00BF202001900020029022
:104E4000012003900320049001A91048FBF78CFB7C
:104E50004FF40040019000200290012003900320B5
:104E6000049001A90A48FBF77FFB01200190002074
:104E70000290022003900320049001A90448FBF74C
:104E800073FB05B000BD000000100240001001409F
:104E90000008014000B585B000BF00BF1E48806912
:104EA00040F004001C4988610846806900F0040055
:104EB000009000BF00BF00BF00BF00BF0846806970
:104EC00040F0200088610846806900F020000090D2
:104ED00000BF00BF00BF8815019001200290039021
:104EE0000320049001A90D48FBF73EFB042001902C
:104EF00001A90B48FBF738FB00BF0122110207484C
:104F0000FBF7E4FC00BF00BF012204210448FBF7CB
:104F1000DDFC00BF05B000BD0010024000080140EC
:104F20000014014010B5FBF7E9FC4FF4E01000F06D
:104F3000A1F84820FFF7B0FC4FF4E13000F0C6F8CC
:104F4000FFF7A8FFFFF748FF00F004F8FFF7F8FDB0
:104F5000002010BD10B50BA0FBF75AF90AA0FBF713
:104F600057F912A0FBF754F912A0FBF751F915A05D
:104F7000FBF74EF904A0FBF74BF90BA0FBF748F940
:104F800010BD00000A0000002A2A2A2A2A2A2A2AFA
:104F90002A2A2A2A2A2A2A2A2A2A2A2A2A2A2A2A71
:104FA0002A2A2A2A2A2A2A2A0D0A000053544D3373
:104FB000320D0A0041544B2D4D44303335300D0A2B
:104FC0000000000041544F4D40414C49454E54456E
:104FD0004B0D0A0000B5254B21F0004287B09A42E4
:104FE00003DC0022134600922BE0214B9A4208D1A9
:104FF00040B94FF00100FBF760F9FCF70EFF07B076
:1050000000BD03DBFCF706FF07B000BD02AAFCF7FA
:10501000F3FB10F003014FF001000DD0012914D073
:1050200002291AD00DF1080C9CE80F00FCF7A8FD2E
:1050300007B081F0004100BD0DF1080C00909CE824
:105040000F00FCF771FE07B000BD0DF1080C9CE8E5
:105050000F00FCF795FD07B000BD0DF1080C0090A6
:105060009CE80F00FCF760FEE2E70000FB21E93F4F
:105070000000F07F30B58FB0054601240120059077
:10508000000406900020079002200C90C1030D91AF
:105090000E9505A8FBF706FE04460CB100BFFEE71F
:1050A0000F20009002200190002002904FF48060B9
:1050B00003900020049002216846FBF7BDFC0446E3
:1050C0000CB100BFFEE70FB030BD000010B50446C4
:1050D00009480A4908600846446000218160C160AF
:1050E000016181610C214161FCF7E8F8012204496A
:1050F0000248FCF777F910BD00380140700100202C
:105100008E00002021F00042A2F16052B2F5801F13
:1051100001F0004328BFD2F17F6C0BD95FEA001C7D
:1051200043EAC20242EB507018BF704728BF20F01C
:1051300001007047B2F5801FBCBF184670474FEAA8
:10514000410C1CF5001F02D2084600F044BF70B5A8
:1051500000F05EFB00000089FFF7F6BF4FF0004053
:10516000A0F580007047000010B591EA030F48BF1A
:1051700083F0004300F1EA83841A71EB030C05D23B
:10518000121943EB0C03001B61EB0C01DFF824E167
:105190004FEA1154A4EB135C1EEA430F18BF9EEABA
:1051A000445F73D023EA0E03DCF1200E21EA0451A0
:1051B00043F4801332D322FA0CFE10EB0E0023FAD4
:1051C0000CFE41EB0E01CCF1200E03FA0EFE10EBAB
:1051D0000E0051F10001B1F5801FCCF1200E32D24A
:1051E00001EB045112FA0EF2BDE8104058BF7047AF
:1051F000401C38BF5FEA420218BF7047002814BF46
:1052000020F0010041F100014FEA410313F5001FB6
:1052100038BF7047A1F1C04100F048BB012A43EB01
:105220000302ACF1200CDCF11F0E32BF4FF0000E78
:1052300023FA0CF310EB030041EB0451B4EB115FC4
:10524000D0D0A1EB045101F5801149085FEA30008C
:1052500001EB04510ED350F1000038BF12FA0EFEDC
:1052600008D1BDE81040C9E7401C38BF5FEA4202E0
:10527000CAD1C3E7BDE810404FEA410313F5001F50
:1052800038BF7047A1F1C04100F010BB9EEA445FF7
:1052900008D011EA5E0FBDE8104004BF01F00041E4
:1052A00000207047BDE8104070B500F0B1FA00BFB3
:1052B00064FBBE3E0000E0FF02494FF0000000F03A
:1052C00004BF00BF0000F87F491058BFC1F1404142
:1052D0005B1058BFC3F140438B42EFF3008070472F
:1052E0002DE9C04130B4DFF8A0C23CEA111418BF68
:1052F0003CEA131400F0EC8081EA03051CEA111467
:1053000044EAD57418BF1CEA131500F0C780A4EB5B
:1053100005044FF0004545EAC12145EAC32341EAAF
:10532000505143EA525304F17F74994204F500341A
:105330004FEAC0204FEAC22208BF904200F09C8092
:105340004FEA13650FF24016765D4FEA134506FBF0
:1053500005F7C7F1807706FB07F74FEAD737A7FBBA
:1053600003687642C8F58038A7FB06CE38BFA8F19F
:10537000010807FB08E64FF0000EA6FB028CE6FBD7
:1053800003CEDCF1000CCEF1004E38BFAEF1010EC1
:10539000A6FB0C584FF000074FF00005E6FB0E8708
:1053A000A1FB08C6A0FB07CE16EB0E0645F10005D3
:1053B000E1FB076515F1E04E7EBFA4F580345FEA9E
:1053C00046066D4116F1800745F100054FEA1727A3
:1053D0004FEA066647EA0567A6F1DE46B6F1805F4A
:1053E0004FEA15251FD9384624F0010C05EBC4718E
:1053F000BCF1FE6F01EB0C1102D8F0BCBDE80081DE
:1054000024425CBF01F5801E9EEAC47F02D4F0BC3A
:10541000BDE80081244238D4F0BCA1F1C041BDE810
:10542000004100F043BA4FEAD22242EA43524FEA27
:10543000D323A7FB02864FEAD02040EA415007FB66
:1054400003661EEA0E0F4FEAD12105FB026658BF24
:10545000A6EB0056B6EB00564FEA520E4EEAC37E5C
:1054600018EB0E0E56EB530EBDD518EB02085E413D
:105470007F1C55F10005B6E74FF480154FF000078B
:105480004FF000064FF00008ADE7F0BC4FF0000011
:1054900001F1C04101F00041BDE8008111EA0C1F9B
:1054A0000CEA131500D00CE013EA0C1F00F0258065
:1054B0004FF00000F0BC81EA030101F00041BDE8BB
:1054C0000081F0BCBDE8004181EA030100F0EEB9C3
:1054D000F0BCBDE8004170B500F09AF9097EFC3ED1
:1054E00000F007B881EA03014FF0000001F000412D
:1054F000704781EA030100F0D9B9F0BCBDE8004172
:105500004FF0000021497047FFFDFBF9F7F5F4F279
:10551000F0EEEDEBE9E8E6E4E3E1E0DEDDDBDAD84E
:10552000D7D5D4D3D1D0CFCDCCCBCAC8C7C6C5C4AC
:10553000C2C1C0BFBEBDBCBBBAB9B8B7B6B5B4B3C3
:10554000B2B1B0AFAEADACABAAA9A8A8A7A6A5A4AE
:10555000A3A3A2A1A09F9F9E9D9C9C9B9A99999872
:105560009797969595949393929191908F8F8E8E15
:105570008D8C8C8B8B8A89898888878786858584A2
:1055800084838382828181800000FF070000F87F8E
:105590004FEA41034FEA5353A3F58063D3F11E034F
:1055A000C8BFD3F1210C0CDD4FF0004242EAC1220A
:1055B00042EA505232FA03FC8CEAE17CACEBE17037
:1055C0007047102BC4BF0020704703F5787CBCF1F6
:1055D000FF3F04D06FF0004282EA2100704770B5AF
:1055E00000F016F94992248000207047F2E710F08D
:1055F000004248BF4042B0FA80F310FA03F10AD0EB
:10560000C3F11D0303F580634FEA415002EB0352DF
:1056100002EBD12170474FF000007047B0FA80F3E1
:1056200010FA03F10AD0C3F11D0303F580634FEABA
:1056300041504FEA035202EBD12170474FF0000076
:105640007047000051EA030C17D41CF5801F58BFA7
:10565000BCF5801F00F10680994218BF704708BF53
:105660009042704707D711F5801F58BF13F5801F70
:1056700019D499427047894270471CF5801F08D59C
:10568000BCF5801FF7D58B4218BF704708BF824218
:1056900070474FF4001C1CEB410F38BF1CEB430F4D
:1056A00001D28B42704770B500F0B2F892244900E5
:1056B0004FF000514FF08053FFF706BEDFF848C1AE
:1056C00070B51CEA111E1EBF1CEA13159EEA0C0FD2
:1056D00095EA0C0F00F06F8081EA030423EA4C1373
:1056E0004EEAD47E21EA4C1141F4801143F4801338
:1056F000AE44A1FB024CA0FB0365AEF17F7E3619E0
:1057000055EB0C05A1FB034C4CF10003A0FB021C64
:1057100016EB0C06654153F10003094218BF46F031
:10572000010613F4007F0BD14FEA03314FEA053035
:10573000340341EA155140EA16506FF003020AE0C3
:105740004FEAC3214FEAC520F40241EA555140EA2D
:1057500056506FF0020202EB2E4201EB025585EA31
:10576000CE710AD05FEA440C18BF24F0004450F117
:10577000000041F1000120EAD47040F2FE7C624555
:1057800000D270BDA84214BF4FF080444FF0404497
:10579000002E08BF0024BEF1806FA8BFA1F1C04158
:1057A000BDE8704080F282804FF0000001F1C041FE
:1057B00001F0004170479EEA0C0F0CEA131518BF68
:1057C00095EA0C0F06D04FF0000081EA030E0EF0B0
:1057D000004170BD00F01CF88900013E00F007B8E0
:1057E00000F009B84FEA430C5FEA5C5C08D081EA3C
:1057F000030100F05BB84FEA410C5FEA5C5CF6D154
:105800004FF00000014970470000FF070000F87FDB
:105810000EF1020E2EF0030E5EF8046B364205D434
:10582000012A43EB030515F5001F12D8012841EBAF
:10583000010C1CF5001F0CD80ED14FEAD17C15F5D8
:10584000001F0CEB4C0C0CF1020C08BF4CEBD37C92
:1058500004E04FF0080C01E04FEAD37C0CEB4C0560
:1058600026FA05F606F00706B6F1040C06D20EEB92
:10587000860CBDE870404CF0010C6047DFE80CF08E
:10588000090B02024FF000414FF00000A1F500218A
:1058900070BD19461046012851EB010418BFD4F51C
:1058A000001484BF002001F0004170BD0808A0F57D
:1058B00000114FEA3101704753EA010C17D41CF56F
:1058C000801F58BFBCF5801F00F106808B4218BFB7
:1058D000704708BF8242704707D713F5801F58BF33
:1058E00011F5801F19D48B4270479B4270471CF5FD
:1058F000801F08D5BCF5801FF7D5994218BF7047A7
:1059000008BF904270474FF4001C1CEB430F38BF98
:105910001CEB410F01D2994270470FB40CBC03BC81
:10592000FFF7C1BE91EA030F10B581F000413FF5CA
:1059300023AC83F0004300F009B8000010B591EAF1
:10594000030F48BF83F000433FF516AC841A71EB98
:10595000030C07D212198CF0004C43EB0C03001B14
:1059600061EB0C01DFF8A4E14FEA1154A4EB135CE6
:105970001EEA430F18BF9EEA445F00F0B08023EA9E
:105980006E03524221EA0451C3EB6E0338BF5B1E23
:10599000DCF1200E25D322FA0CFE10EB0E0043FAA8
:1059A0000CFE41EB0E01CCF1200E03FA0EFE10EBC3
:1059B0000E0051F10001CCF1200E29D412FA0EF2A2
:1059C00001EB0451BDE8104058BF7047401C1CBF9C
:1059D000B2F1004F704700280CBF491C20F00100B5
:1059E000704712EB020E43EB030218BF4FF0010E9B
:1059F0004EEA4202ACF1200CDCF11E0E54D943FAFF
:105A00000CFE10EB0E0051F1FF31CCF11E0ED5D57E
:105A10000EF1010E12FA0EFE404141EB010101EBC5
:105A2000445C5FEA5C5C10D910EBDE7001EB045162
:105A300038BFBEF1004FBDE8104018BF70470028C6
:105A40000CBF491C20F00100704730D24FEAD42C23
:105A500011F5001124F400641BD0B1FA81F20B3A65
:105A6000A41AA41ED2F12003914030FA03F3194383
:105A7000904001EBCC71002C01EB0451BDE81040CB
:105A8000A8BF704701F1C0414FF0000001F0004194
:105A90007047B0FA80F310FA03F100D110BDE41A98
:105AA000173C4805C90AE4E701EB045110BD491051
:105AB00001EB0451BDE810404FEA300002E04FF026
:105AC000000170474A0008BF0042F8D0B2F5001F3D
:105AD00028BF704701F000414FF0000070479EEA78
